{"contracts/ParkingSystem.sol":{"ParkingSystem":{"abi":[{"inputs":[{"internalType":"address","name":"_oracleAddress","type":"address"}],"stateMutability":"nonpayable","type":"constructor"},{"inputs":[],"name":"EnforcedPause","type":"error"},{"inputs":[],"name":"ExpectedPause","type":"error"},{"inputs":[{"internalType":"address","name":"owner","type":"address"}],"name":"OwnableInvalidOwner","type":"error"},{"inputs":[{"internalType":"address","name":"account","type":"address"}],"name":"OwnableUnauthorizedAccount","type":"error"},{"inputs":[],"name":"ReentrancyGuardReentrantCall","type":"error"},{"anonymous":false,"inputs":[{"indexed":false,"internalType":"address","name":"newOracle","type":"address"}],"name":"OracleUpdated","type":"event"},{"anonymous":false,"inputs":[{"indexed":true,"internalType":"address","name":"previousOwner","type":"address"},{"indexed":true,"internalType":"address","name":"newOwner","type":"address"}],"name":"OwnershipTransferred","type":"event"},{"anonymous":false,"inputs":[{"indexed":false,"internalType":"address","name":"account","type":"address"}],"name":"Paused","type":"event"},{"anonymous":false,"inputs":[{"indexed":false,"internalType":"uint256","name":"newFeePercentage","type":"uint256"}],"name":"PlatformFeeUpdated","type":"event"},{"anonymous":false,"inputs":[{"indexed":true,"internalType":"uint256","name":"reservationId","type":"uint256"},{"indexed":false,"internalType":"uint256","name":"refundAmount","type":"uint256"}],"name":"ReservationCancelled","type":"event"},{"anonymous":false,"inputs":[{"indexed":true,"internalType":"uint256","name":"reservationId","type":"uint256"},{"indexed":false,"internalType":"uint256","name":"actualEndTime","type":"uint256"},{"indexed":false,"internalType":"uint256","name":"actualCost","type":"uint256"},{"indexed":false,"internalType":"uint256","name":"refundAmount","type":"uint256"}],"name":"ReservationCompleted","type":"event"},{"anonymous":false,"inputs":[{"indexed":true,"internalType":"uint256","name":"reservationId","type":"uint256"},{"indexed":true,"internalType":"address","name":"user","type":"address"},{"indexed":true,"internalType":"uint256","name":"spotId","type":"uint256"},{"indexed":false,"internalType":"uint256","name":"startTime","type":"uint256"},{"indexed":false,"internalType":"uint256","name":"endTime","type":"uint256"},{"indexed":false,"internalType":"uint256","name":"totalCost","type":"uint256"}],"name":"ReservationCreated","type":"event"},{"anonymous":false,"inputs":[{"indexed":true,"internalType":"uint256","name":"reservationId","type":"uint256"},{"indexed":false,"internalType":"uint256","name":"actualStartTime","type":"uint256"}],"name":"ReservationStarted","type":"event"},{"anonymous":false,"inputs":[{"indexed":true,"internalType":"uint256","name":"spotId","type":"uint256"},{"indexed":false,"internalType":"string","name":"location","type":"string"},{"indexed":false,"internalType":"uint256","name":"hourlyRate","type":"uint256"}],"name":"SpotCreated","type":"event"},{"anonymous":false,"inputs":[{"indexed":true,"internalType":"uint256","name":"spotId","type":"uint256"},{"indexed":false,"internalType":"bool","name":"isOccupied","type":"bool"},{"indexed":false,"internalType":"address","name":"user","type":"address"}],"name":"SpotOccupancyChanged","type":"event"},{"anonymous":false,"inputs":[{"indexed":true,"internalType":"uint256","name":"spotId","type":"uint256"},{"indexed":false,"internalType":"uint256","name":"newRate","type":"uint256"},{"indexed":false,"internalType":"bool","name":"isActive","type":"bool"}],"name":"SpotUpdated","type":"event"},{"anonymous":false,"inputs":[{"indexed":false,"internalType":"address","name":"account","type":"address"}],"name":"Unpaused","type":"event"},{"inputs":[],"name":"MAX_RESERVATION_TIME","outputs":[{"internalType":"uint256","name":"","type":"uint256"}],"stateMutability":"view","type":"function"},{"inputs":[],"name":"MIN_RESERVATION_TIME","outputs":[{"internalType":"uint256","name":"","type":"uint256"}],"stateMutability":"view","type":"function"},{"inputs":[{"internalType":"uint256","name":"_reservationId","type":"uint256"}],"name":"cancelReservation","outputs":[],"stateMutability":"nonpayable","type":"function"},{"inputs":[{"internalType":"uint256","name":"_reservationId","type":"uint256"}],"name":"completeReservation","outputs":[],"stateMutability":"nonpayable","type":"function"},{"inputs":[{"internalType":"string","name":"_location","type":"string"},{"internalType":"uint256","name":"_hourlyRate","type":"uint256"}],"name":"createParkingSpot","outputs":[],"stateMutability":"nonpayable","type":"function"},{"inputs":[{"internalType":"uint256","name":"_spotId","type":"uint256"}],"name":"getParkingSpot","outputs":[{"components":[{"internalType":"uint256","name":"spotId","type":"uint256"},{"internalType":"string","name":"location","type":"string"},{"internalType":"uint256","name":"hourlyRate","type":"uint256"},{"internalType":"bool","name":"isActive","type":"bool"},{"internalType":"bool","name":"isOccupied","type":"bool"},{"internalType":"address","name":"currentUser","type":"address"},{"internalType":"uint256","name":"reservationEnd","type":"uint256"},{"internalType":"uint256","name":"totalEarnings","type":"uint256"},{"internalType":"uint256","name":"totalOccupations","type":"uint256"}],"internalType":"struct ParkingSystem.ParkingSpot","name":"","type":"tuple"}],"stateMutability":"view","type":"function"},{"inputs":[{"internalType":"uint256","name":"_reservationId","type":"uint256"}],"name":"getReservation","outputs":[{"components":[{"internalType":"uint256","name":"reservationId","type":"uint256"},{"internalType":"address","name":"user","type":"address"},{"internalType":"uint256","name":"spotId","type":"uint256"},{"internalType":"uint256","name":"startTime","type":"uint256"},{"internalType":"uint256","name":"endTime","type":"uint256"},{"internalType":"uint256","name":"totalCost","type":"uint256"},{"internalType":"uint256","name":"paidAmount","type":"uint256"},{"internalType":"enum ParkingSystem.ReservationStatus","name":"status","type":"uint8"},{"internalType":"uint256","name":"actualStartTime","type":"uint256"},{"internalType":"uint256","name":"actualEndTime","type":"uint256"}],"internalType":"struct ParkingSystem.Reservation","name":"","type":"tuple"}],"stateMutability":"view","type":"function"},{"inputs":[{"internalType":"address","name":"_user","type":"address"}],"name":"getUserReservations","outputs":[{"internalType":"uint256[]","name":"","type":"uint256[]"}],"stateMutability":"view","type":"function"},{"inputs":[],"name":"nextReservationId","outputs":[{"internalType":"uint256","name":"","type":"uint256"}],"stateMutability":"view","type":"function"},{"inputs":[],"name":"nextSpotId","outputs":[{"internalType":"uint256","name":"","type":"uint256"}],"stateMutability":"view","type":"function"},{"inputs":[],"name":"oracleAddress","outputs":[{"internalType":"address","name":"","type":"address"}],"stateMutability":"view","type":"function"},{"inputs":[],"name":"owner","outputs":[{"internalType":"address","name":"","type":"address"}],"stateMutability":"view","type":"function"},{"inputs":[{"internalType":"uint256","name":"","type":"uint256"}],"name":"parkingSpots","outputs":[{"internalType":"uint256","name":"spotId","type":"uint256"},{"internalType":"string","name":"location","type":"string"},{"internalType":"uint256","name":"hourlyRate","type":"uint256"},{"internalType":"bool","name":"isActive","type":"bool"},{"internalType":"bool","name":"isOccupied","type":"bool"},{"internalType":"address","name":"currentUser","type":"address"},{"internalType":"uint256","name":"reservationEnd","type":"uint256"},{"internalType":"uint256","name":"totalEarnings","type":"uint256"},{"internalType":"uint256","name":"totalOccupations","type":"uint256"}],"stateMutability":"view","type":"function"},{"inputs":[],"name":"pause","outputs":[],"stateMutability":"nonpayable","type":"function"},{"inputs":[],"name":"paused","outputs":[{"internalType":"bool","name":"","type":"bool"}],"stateMutability":"view","type":"function"},{"inputs":[],"name":"platformFeePercentage","outputs":[{"internalType":"uint256","name":"","type":"uint256"}],"stateMutability":"view","type":"function"},{"inputs":[],"name":"renounceOwnership","outputs":[],"stateMutability":"nonpayable","type":"function"},{"inputs":[{"internalType":"uint256","name":"","type":"uint256"}],"name":"reservations","outputs":[{"internalType":"uint256","name":"reservationId","type":"uint256"},{"internalType":"address","name":"user","type":"address"},{"internalType":"uint256","name":"spotId","type":"uint256"},{"internalType":"uint256","name":"startTime","type":"uint256"},{"internalType":"uint256","name":"endTime","type":"uint256"},{"internalType":"uint256","name":"totalCost","type":"uint256"},{"internalType":"uint256","name":"paidAmount","type":"uint256"},{"internalType":"enum ParkingSystem.ReservationStatus","name":"status","type":"uint8"},{"internalType":"uint256","name":"actualStartTime","type":"uint256"},{"internalType":"uint256","name":"actualEndTime","type":"uint256"}],"stateMutability":"view","type":"function"},{"inputs":[{"internalType":"uint256","name":"_spotId","type":"uint256"},{"internalType":"uint256","name":"_startTime","type":"uint256"},{"internalType":"uint256","name":"_endTime","type":"uint256"}],"name":"reserveSpot","outputs":[],"stateMutability":"payable","type":"function"},{"inputs":[{"internalType":"uint256","name":"","type":"uint256"}],"name":"spotExists","outputs":[{"internalType":"bool","name":"","type":"bool"}],"stateMutability":"view","type":"function"},{"inputs":[{"internalType":"uint256","name":"_reservationId","type":"uint256"}],"name":"startReservation","outputs":[],"stateMutability":"nonpayable","type":"function"},{"inputs":[],"name":"totalPlatformEarnings","outputs":[{"internalType":"uint256","name":"","type":"uint256"}],"stateMutability":"view","type":"function"},{"inputs":[{"internalType":"address","name":"newOwner","type":"address"}],"name":"transferOwnership","outputs":[],"stateMutability":"nonpayable","type":"function"},{"inputs":[],"name":"unpause","outputs":[],"stateMutability":"nonpayable","type":"function"},{"inputs":[{"internalType":"address","name":"_newOracle","type":"address"}],"name":"updateOracle","outputs":[],"stateMutability":"nonpayable","type":"function"},{"inputs":[{"internalType":"uint256","name":"_newFeePercentage","type":"uint256"}],"name":"updatePlatformFee","outputs":[],"stateMutability":"nonpayable","type":"function"},{"inputs":[{"internalType":"address","name":"","type":"address"},{"internalType":"uint256","name":"","type":"uint256"}],"name":"userReservations","outputs":[{"internalType":"uint256","name":"","type":"uint256"}],"stateMutability":"view","type":"function"},{"inputs":[],"name":"withdrawPlatformEarnings","outputs":[],"stateMutability":"nonpayable","type":"function"},{"stateMutability":"payable","type":"receive"}],"evm":{"bytecode":{"linkReferences":{},"object":"6080346100d957601f611e6538819003918201601f19168301916001600160401b038311848410176100de578084926020946040528339810103126100d957516001600160a01b0390818116908190036100d95733156100c05760005460018060a01b0319903382821617600055604051933391167f8be0079c531659141344cd1fd0a4f28419497f9722a3daafe3b4186f6b6457e0600080a36001805560016007556001600855600a600955600b541617600b55611d7090816100f58239f35b604051631e4fbdf760e01b815260006004820152602490fd5b600080fd5b634e487b7160e01b600052604160045260246000fdfe608080604052600436101561005f575b50361561001b57600080fd5b606460405162461bcd60e51b815260206004820152602060248201527f506169656d656e74732064697265637473206e6f6e206175746f726973c3a9736044820152fd5b60e090600035821c908163067cf832146118e257508063100bb533146118b15780631cb44dfc146117fb5780632325bbd81461134d5780632fdc2f90146111e25780633f4ba83a146111785780635340785114610ffe5780635c975abb14610fdb57806368e344e914610fbd5780636c4dfc6714610c365780636dea62c5146109db578063715018a614610982578063793087bd146108ce5780638456cb59146108745780638da5cb5b1461084b5780639d182f0b14610803578063a89ae4ba146107da578063aa0b59881461074c578063ae5e6cf41461053f578063bfa4c5c114610521578063c05b8e37146104c9578063c70c26cd146104ab578063cdd78cfc1461048d578063d57763c314610312578063df97a56d146102f4578063e1d250a1146102d7578063f2fde38b1461024e5763f5defcd30361000f573461024957602036600319011261024957600435600052600360205260406000208054906101cc60018201611aa9565b926002820154916003810154916004820154600660058401549301549361020560405198899889526101208060208b01528901906119a5565b604088019690965260ff81811615156060890152600882901c161515608088015260101c6001600160a01b031660a087015260c08601528401526101008301520390f35b600080fd5b346102495760203660031901126102495761026761198f565b61026f611b4f565b6001600160a01b039081169081156102be57600054826001600160601b0360a01b821617600055167f8be0079c531659141344cd1fd0a4f28419497f9722a3daafe3b4186f6b6457e0600080a3005b604051631e4fbdf760e01b815260006004820152602490fd5b34610249576000366003190112610249576020604051610e108152f35b34610249576000366003190112610249576020600754604051908152f35b50346102495760203660031901126102495760405160043591610334826119e5565b6000825260006020830152600060408301526000606083015260006080830152600060a0830152600060c0830152600081830152610100926000848401526000610120809401526103886008548210611c95565b6000526004602052604060002092604051936103a3856119e5565b8054855260018060a01b03928360018301541660208701908152600283015460408801908152600384015460608901908152600485015460808a0190815260058601549160a08b0192835260068701549360c08c0194855260ff60078901541699878d019660048c1015610477578c8e9c9a8d9b8a528c60088201549c019b8c52600901549c019b8c52604051809e519052511660208d01525160408c01525160608b01525160808a01525160a08901525160c08801525190860161046791611982565b5190840152519082015261014090f35b634e487b7160e01b600052602160045260246000fd5b34610249576000366003190112610249576020600954604051908152f35b34610249576000366003190112610249576020600854604051908152f35b34610249576040366003190112610249576104e261198f565b6001600160a01b03166000908152600560205260409020805460243591908210156102495760209161051391611a41565b90546040519160031b1c8152f35b34610249576000366003190112610249576020600a54604051908152f35b3461024957602080600319360112610249576004359061055d611c14565b61056a6008548310611c95565b6000828152600482526040902060018101546001600160a01b031633036107175760078101805460ff81166004811015610477576105a89015611ce1565b60088301546106c4576003830154421015610686579060026005939260ff191617905560028101546000526003835260006004604082200155015490600582028281046005148315171561067057610607606461061092048094611bd6565b92600a54611d2d565b600a558160008115610667575b600080809381933390f11561065b577fcec7557da08eef8fefe6b6111e8379e709f490bd0ace42321cfda8905617062b91604051908152a260018055005b6040513d6000823e3d90fd5b506108fc61061d565b634e487b7160e01b600052601160045260246000fd5b60405162461bcd60e51b81526004810185905260166024820152752a3937b8103a30b932103837bab91030b7373ab632b960511b6044820152606490fd5b60405162461bcd60e51b815260048101859052602560248201527f496d706f737369626c65206427616e6e756c657220617072c3a873206c65206460448201526430ea589d5d60da1b6064820152608490fd5b60405162461bcd60e51b815260048101839052600d60248201526c506173206175746f726973c3a960981b6044820152606490fd5b3461024957602036600319011261024957600435610768611b4f565b601481116107a1576020817f45610d581145924dd7090a5017e5f2b1d6f42213bb2e95707ff86846bbfcb1ca92600955604051908152a1005b60405162461bcd60e51b81526020600482015260116024820152704672616973206d6178696d756d2032302560781b6044820152606490fd5b3461024957600036600319011261024957600b546040516001600160a01b039091168152602090f35b346102495760003660031901126102495761081c611b4f565b6000808080600a5481600a5560018060a01b03825416828215610842575bf11561065b57005b506108fc61083a565b34610249576000366003190112610249576000546040516001600160a01b039091168152602090f35b346102495760003660031901126102495761088d611b4f565b610895611bf6565b600160ff1960025416176002557f62e78cea01bee320cd4e420270b5ea74000d11b0c9f74754ebdbfc544b05a2586020604051338152a1005b3461024957602080600319360112610249576001600160a01b036108f061198f565b1660005260058152604060002060405190818382549182815201908192600052846000209060005b8682821061096e57868661092e82880383611a1f565b604051928392818401908285525180915260408401929160005b82811061095757505050500390f35b835185528695509381019392810192600101610948565b835485529093019260019283019201610918565b346102495760003660031901126102495761099b611b4f565b600080546001600160a01b0319811682556001600160a01b03167f8be0079c531659141344cd1fd0a4f28419497f9722a3daafe3b4186f6b6457e08280a3005b34610249576020806003193601126102495760043560018060a01b03610a0681600b54163314611c37565b610a136008548310611c95565b8160005260048352604060002091600783019182549360ff8516600481101561047757610a409015611ce1565b60088101805415610bf157600982018054610bac57610aaa610a9f610adf93610e109360028701998a5460005260038d52600160406000209c42845560ff191617905560038b01610100600160b01b0319815416905554905490611bd6565b600289015490611be3565b04956064610aba60095489611be3565b0490610ad56005610acb848b611bd6565b9201918254611d2d565b9055600a54611d2d565b600a556000916005820154868111610b6e575b877f87343556099b49429066214ec214c7a2d132b37ad29dd9d6de4b47cc2b587a5f604088887f328019cf102d7c7c17d39656e37fc93b0d193d0f0458f8307d5c4d2e48bd2a83898d610b5b865192839242846040919493926060820195825260208201520152565b0390a254926000825191818352820152a2005b600195949350600080938193610b858a8495611bd6565b988992015416828215610ba3575bf11561065b579091858080610af2565b506108fc610b93565b60405162461bcd60e51b815260048101899052601d60248201527f52c3a9736572766174696f6e2064c3a96ac3a0207465726d696ec3a9650000006044820152606490fd5b60405162461bcd60e51b815260048101889052601b60248201527f52c3a9736572766174696f6e206e6f6e20636f6d6d656e63c3a96500000000006044820152606490fd5b50346102495760403660031901126102495760043567ffffffffffffffff8111610249573660238201121561024957806004013567ffffffffffffffff8111610f565760405191610c91601f8301601f191660200184611a1f565b818352366024838301011161024957816000926024602093018386013783010152610cba611b4f565b60243515610f6c5760075491610ccf83611b7b565b600755604051610cde81611a02565b83815282602082015260243560408201526001606082015260006080820152600060a0820152600060c0820152600082820152600061010082015283600052600360205260406000209181518355602082015180519067ffffffffffffffff8211610f5657610d506001860154611a6f565b601f8111610f0f575b50602090601f8311600114610e725793610e5a959383600694610100947fa6197eef0b3f314919f42f1269eb3a092be98fbbe59f968a27f4a5bb1fcdbb6a9a98600092610e67575b50508160011b916000199060031b1c19161760018601555b604082015160028601556060820151600386018054608085015160a08601516001600160b01b031990921660ff941515949094169390931792151560081b61ff00169290921760109290921b62010000600160b01b031691909117905560c08201516004860155810151600585015501519101558360005260066020526040600020600160ff198254161790556040519182916040835260408301906119a5565b60243560208301520390a2005b015190503880610da1565b906001860160005260206000209160005b601f1985168110610ef7575093600184610100947fa6197eef0b3f314919f42f1269eb3a092be98fbbe59f968a27f4a5bb1fcdbb6a9a9894610e5a9a98600698601f19811610610ede575b505050811b016001860155610db9565b015160001960f88460031b161c19169055388080610ece565b91926020600181928685015181550194019201610e83565b600186016000526020600020601f840160051c810160208510610f4f575b601f830160051c82018110610f43575050610d59565b60008155600101610f2d565b5080610f2d565b634e487b7160e01b600052604160045260246000fd5b60405162461bcd60e51b815260206004820152602360248201527f4c6520746172696620646f697420c3aa74726520737570c3a9726965757220c36044820152620a020360ec1b6064820152608490fd5b34610249576000366003190112610249576020604051620151808152f35b3461024957600036600319011261024957602060ff600254166040519015158152f35b34610249576020806003193601126102495760043560018060a01b0361102981600b54163314611c37565b6110366008548310611c95565b816000526004835260406000209260ff60078501541660048110156104775761105f9015611ce1565b6008840191825461113357600660028601938454600052600384526040600020904290556110c46001600383019861010061ff00198b5416178a5501978489541681549062010000600160b01b039060101b169062010000600160b01b031916179055565b019283549460018601809611610670577f87343556099b49429066214ec214c7a2d132b37ad29dd9d6de4b47cc2b587a5f95604095557f3ff61316811a031a622e30cac19dedb4040b4b6c408e7e2dabcf8814a07714d0848651428152a25494541682519160018352820152a2005b60405162461bcd60e51b815260048101839052601e60248201527f52c3a9736572766174696f6e2064c3a96ac3a020636f6d6d656e63c3a96500006044820152606490fd5b3461024957600036600319011261024957611191611b4f565b60025460ff8116156111d05760ff19166002557f5db9ee0a495bf2e6ff9c91a7834c1ba4fdd244a5e8aa4e537bd38aeae4b073aa6020604051338152a1005b604051638dfc202b60e01b8152600490fd5b50346102495760209081600319360112610249576040519060043561120683611a02565b60008352606084840152600060408401526000606084015260006080840152600060a0840152600060c0840152600082840152600061010080940152806000526006845261125b60ff60406000205416611b8a565b60005260038352826040600020916040519384809261127982611a02565b8554825261128960018701611aa9565b95858301968752600281015496604084019788526003820154906060850160ff831615158152608086019060ff8460081c161515825261131c60a088019360018060a01b03809660101c16855289600660048901549860c08c01998a528a60058201549c019b8c5201549b019a8b526040519e8f9e8f9d8e5251908d0152516101406101209c8d604082015201906119a5565b9a5160608d015251151560808c015251151560a08b0152511660c08901525190870152519085015251908301520390f35b50606036600319011261024957600435906024908135916044803591611371611c14565b611379611bf6565b856000526020906006825261139560ff60406000205416611b8a565b8660005260038252604060002091600383015460ff8116156117b95760081c60ff1661177f5742871061173e578685111561170557610e10806113d88988611bd6565b106116c357620151806113eb8988611bd6565b116116815760048401938454891061162a5761141690600261140d8b8a611bd6565b91015490611be3565b04938434106115f257506008549561142d87611b7b565b600855866040519161143e836119e5565b8183528383019033825260408401908c8252606085018c8152608086018b815260a08701918b835260c088019334855288019460008652610100890196600088526101208a019860008a5260005260048b52604060002099518a5560018a019060018060a01b039051166001600160601b0360a01b82541617905551600289015551600388015551600487015551600586015551600685015560078401905160048110156115dd579160059594939160099360ff801983541691161790555160088401555191015533600052526040600020805491680100000000000000008310156115c9575081611537916001879594018155611a41565b81549060031b9087821b91600019901b191617905555803411611596575b6040805194855260208501929092529083015233917fe7eef28fbc56402f7e03edcc642fac3bfa8290409ad900acd2f643e4165f5ff490606090a460018055005b60008080806115a58534611bd6565b8181156115c0575b3390f1611555576040513d6000823e3d90fd5b506108fc6115ad565b634e487b7160e01b60009081526041600452fd5b86634e487b7160e01b60005260216004526000fd5b7314185a595b595b9d081a5b9cdd59999a5cd85b9d60621b9060146064946040519462461bcd60e51b86526004860152840152820152fd5b60405162461bcd60e51b815260048101849052602b818601527f506c6163652064c3a96ac3a02072c3a973657276c3a96520706f757220636574818801526a74652070c3a972696f646560a81b6064820152608490fd5b507f447572c3a965206d6178696d616c652064c3a970617373c3a96500000000000084601a6064946040519462461bcd60e51b86526004860152840152820152fd5b507f447572c3a965206d696e696d616c65206e6f6e2072657370656374c3a965000084601e6064946040519462461bcd60e51b86526004860152840152820152fd5b7448657572652064652066696e20696e76616c69646560581b8460156064946040519462461bcd60e51b86526004860152840152820152fd5b7f48657572652064652064c3a962757420696e76616c69646500000000000000008460186064946040519462461bcd60e51b86526004860152840152820152fd5b8360156064936040519362461bcd60e51b8552600485015283015274506c6163652064c3a96ac3a0206f63637570c3a96560581b90820152fd5b507f506c616365206465207061726b696e6720696e616374697665000000000000008460196064946040519462461bcd60e51b86526004860152840152820152fd5b346102495760203660031901126102495761181461198f565b61181c611b4f565b6001600160a01b0316801561186c576020817f3df77beb5db05fcdd70a30fc8adf3f83f9501b68579455adbd100b8180940394926001600160601b0360a01b600b541617600b55604051908152a1005b60405162461bcd60e51b815260206004820152601760248201527f41647265737365206f7261636c6520696e76616c6964650000000000000000006044820152606490fd5b34610249576020366003190112610249576004356000526006602052602060ff604060002054166040519015158152f35b90503461024957602036600319011261024957610140916004356000526004602052604060002061197481549260018060a01b036001840154169060028401546003850154600486015460058701549160068801549360ff60078a01541696600960088b01549a01549a8c5260208c015260408b015260608a0152608089015260a088015260c0870152850190611982565b610100830152610120820152f35b9060048210156104775752565b600435906001600160a01b038216820361024957565b919082519283825260005b8481106119d1575050826000602080949584010152601f8019910116010190565b6020818301810151848301820152016119b0565b610140810190811067ffffffffffffffff821117610f5657604052565b610120810190811067ffffffffffffffff821117610f5657604052565b90601f8019910116810190811067ffffffffffffffff821117610f5657604052565b8054821015611a595760005260206000200190600090565b634e487b7160e01b600052603260045260246000fd5b90600182811c92168015611a9f575b6020831014611a8957565b634e487b7160e01b600052602260045260246000fd5b91607f1691611a7e565b9060405191826000825492611abd84611a6f565b908184526001948581169081600014611b2c5750600114611ae9575b5050611ae792500383611a1f565b565b9093915060005260209081600020936000915b818310611b14575050611ae793508201013880611ad9565b85548884018501529485019487945091830191611afc565b915050611ae794506020925060ff191682840152151560051b8201013880611ad9565b6000546001600160a01b03163303611b6357565b60405163118cdaa760e01b8152336004820152602490fd5b60001981146106705760010190565b15611b9157565b60405162461bcd60e51b815260206004820152601c60248201527f506c616365206465207061726b696e6720696e6578697374616e7465000000006044820152606490fd5b9190820391821161067057565b8181029291811591840414171561067057565b60ff60025416611c0257565b60405163d93c066560e01b8152600490fd5b600260015414611c25576002600155565b604051633ee5aeb560e01b8152600490fd5b15611c3e57565b60405162461bcd60e51b815260206004820152602960248201527f5365756c206c276f7261636c65207065757420617070656c6572206365747465604482015268103337b731ba34b7b760b91b6064820152608490fd5b15611c9c57565b60405162461bcd60e51b815260206004820152601860248201527f52c3a9736572766174696f6e20696e6578697374616e746500000000000000006044820152606490fd5b15611ce857565b60405162461bcd60e51b815260206004820152601760248201527f52c3a9736572766174696f6e206e6f6e206163746976650000000000000000006044820152606490fd5b919082018092116106705756fea264697066735822122044ff9e79433f8b11f2bc89235bdd962dbcc4913d8014370c77eda5214c0fbb5564736f6c63430008140033","opcodes":"PUSH1 0x80 CALLVALUE PUSH2 0xD9 JUMPI PUSH1 0x1F PUSH2 0x1E65 CODESIZE DUP2 SWAP1 SUB SWAP2 DUP3 ADD PUSH1 0x1F NOT AND DUP4 ADD SWAP2 PUSH1 0x1 PUSH1 0x1 PUSH1 0x40 SHL SUB DUP4 GT DUP5 DUP5 LT OR PUSH2 0xDE JUMPI DUP1 DUP5 SWAP3 PUSH1 0x20 SWAP5 PUSH1 0x40 MSTORE DUP4 CODECOPY DUP2 ADD SUB SLT PUSH2 0xD9 JUMPI MLOAD PUSH1 0x1 PUSH1 0x1 PUSH1 0xA0 SHL SUB SWAP1 DUP2 DUP2 AND SWAP1 DUP2 SWAP1 SUB PUSH2 0xD9 JUMPI CALLER ISZERO PUSH2 0xC0 JUMPI PUSH1 0x0 SLOAD PUSH1 0x1 DUP1 PUSH1 0xA0 SHL SUB NOT SWAP1 CALLER DUP3 DUP3 AND OR PUSH1 0x0 SSTORE PUSH1 0x40 MLOAD SWAP4 CALLER SWAP2 AND PUSH32 0x8BE0079C531659141344CD1FD0A4F28419497F9722A3DAAFE3B4186F6B6457E0 PUSH1 0x0 DUP1 LOG3 PUSH1 0x1 DUP1 SSTORE PUSH1 0x1 PUSH1 0x7 SSTORE PUSH1 0x1 PUSH1 0x8 SSTORE PUSH1 0xA PUSH1 0x9 SSTORE PUSH1 0xB SLOAD AND OR PUSH1 0xB SSTORE PUSH2 0x1D70 SWAP1 DUP2 PUSH2 0xF5 DUP3 CODECOPY RETURN JUMPDEST PUSH1 0x40 MLOAD PUSH4 0x1E4FBDF7 PUSH1 0xE0 SHL DUP2 MSTORE PUSH1 0x0 PUSH1 0x4 DUP3 ADD MSTORE PUSH1 0x24 SWAP1 REVERT JUMPDEST PUSH1 0x0 DUP1 REVERT JUMPDEST PUSH4 0x4E487B71 PUSH1 0xE0 SHL PUSH1 0x0 MSTORE PUSH1 0x41 PUSH1 0x4 MSTORE PUSH1 0x24 PUSH1 0x0 REVERT INVALID PUSH1 0x80 DUP1 PUSH1 0x40 MSTORE PUSH1 0x4 CALLDATASIZE LT ISZERO PUSH2 0x5F JUMPI JUMPDEST POP CALLDATASIZE ISZERO PUSH2 0x1B JUMPI PUSH1 0x0 DUP1 REVERT JUMPDEST PUSH1 0x64 PUSH1 0x40 MLOAD PUSH3 0x461BCD PUSH1 0xE5 SHL DUP2 MSTORE PUSH1 0x20 PUSH1 0x4 DUP3 ADD MSTORE PUSH1 0x20 PUSH1 0x24 DUP3 ADD MSTORE PUSH32 0x506169656D656E74732064697265637473206E6F6E206175746F726973C3A973 PUSH1 0x44 DUP3 ADD MSTORE REVERT JUMPDEST PUSH1 0xE0 SWAP1 PUSH1 0x0 CALLDATALOAD DUP3 SHR SWAP1 DUP2 PUSH4 0x67CF832 EQ PUSH2 0x18E2 JUMPI POP DUP1 PUSH4 0x100BB533 EQ PUSH2 0x18B1 JUMPI DUP1 PUSH4 0x1CB44DFC EQ PUSH2 0x17FB JUMPI DUP1 PUSH4 0x2325BBD8 EQ PUSH2 0x134D JUMPI DUP1 PUSH4 0x2FDC2F90 EQ PUSH2 0x11E2 JUMPI DUP1 PUSH4 0x3F4BA83A EQ PUSH2 0x1178 JUMPI DUP1 PUSH4 0x53407851 EQ PUSH2 0xFFE JUMPI DUP1 PUSH4 0x5C975ABB EQ PUSH2 0xFDB JUMPI DUP1 PUSH4 0x68E344E9 EQ PUSH2 0xFBD JUMPI DUP1 PUSH4 0x6C4DFC67 EQ PUSH2 0xC36 JUMPI DUP1 PUSH4 0x6DEA62C5 EQ PUSH2 0x9DB JUMPI DUP1 PUSH4 0x715018A6 EQ PUSH2 0x982 JUMPI DUP1 PUSH4 0x793087BD EQ PUSH2 0x8CE JUMPI DUP1 PUSH4 0x8456CB59 EQ PUSH2 0x874 JUMPI DUP1 PUSH4 0x8DA5CB5B EQ PUSH2 0x84B JUMPI DUP1 PUSH4 0x9D182F0B EQ PUSH2 0x803 JUMPI DUP1 PUSH4 0xA89AE4BA EQ PUSH2 0x7DA JUMPI DUP1 PUSH4 0xAA0B5988 EQ PUSH2 0x74C JUMPI DUP1 PUSH4 0xAE5E6CF4 EQ PUSH2 0x53F JUMPI DUP1 PUSH4 0xBFA4C5C1 EQ PUSH2 0x521 JUMPI DUP1 PUSH4 0xC05B8E37 EQ PUSH2 0x4C9 JUMPI DUP1 PUSH4 0xC70C26CD EQ PUSH2 0x4AB JUMPI DUP1 PUSH4 0xCDD78CFC EQ PUSH2 0x48D JUMPI DUP1 PUSH4 0xD57763C3 EQ PUSH2 0x312 JUMPI DUP1 PUSH4 0xDF97A56D EQ PUSH2 0x2F4 JUMPI DUP1 PUSH4 0xE1D250A1 EQ PUSH2 0x2D7 JUMPI DUP1 PUSH4 0xF2FDE38B EQ PUSH2 0x24E JUMPI PUSH4 0xF5DEFCD3 SUB PUSH2 0xF JUMPI CALLVALUE PUSH2 0x249 JUMPI PUSH1 0x20 CALLDATASIZE PUSH1 0x3 NOT ADD SLT PUSH2 0x249 JUMPI PUSH1 0x4 CALLDATALOAD PUSH1 0x0 MSTORE PUSH1 0x3 PUSH1 0x20 MSTORE PUSH1 0x40 PUSH1 0x0 KECCAK256 DUP1 SLOAD SWAP1 PUSH2 0x1CC PUSH1 0x1 DUP3 ADD PUSH2 0x1AA9 JUMP JUMPDEST SWAP3 PUSH1 0x2 DUP3 ADD SLOAD SWAP2 PUSH1 0x3 DUP2 ADD SLOAD SWAP2 PUSH1 0x4 DUP3 ADD SLOAD PUSH1 0x6 PUSH1 0x5 DUP5 ADD SLOAD SWAP4 ADD SLOAD SWAP4 PUSH2 0x205 PUSH1 0x40 MLOAD SWAP9 DUP10 SWAP9 DUP10 MSTORE PUSH2 0x120 DUP1 PUSH1 0x20 DUP12 ADD MSTORE DUP10 ADD SWAP1 PUSH2 0x19A5 JUMP JUMPDEST PUSH1 0x40 DUP9 ADD SWAP7 SWAP1 SWAP7 MSTORE PUSH1 0xFF DUP2 DUP2 AND ISZERO ISZERO PUSH1 0x60 DUP10 ADD MSTORE PUSH1 0x8 DUP3 SWAP1 SHR AND ISZERO ISZERO PUSH1 0x80 DUP9 ADD MSTORE PUSH1 0x10 SHR PUSH1 0x1 PUSH1 0x1 PUSH1 0xA0 SHL SUB AND PUSH1 0xA0 DUP8 ADD MSTORE PUSH1 0xC0 DUP7 ADD MSTORE DUP5 ADD MSTORE PUSH2 0x100 DUP4 ADD MSTORE SUB SWAP1 RETURN JUMPDEST PUSH1 0x0 DUP1 REVERT JUMPDEST CALLVALUE PUSH2 0x249 JUMPI PUSH1 0x20 CALLDATASIZE PUSH1 0x3 NOT ADD SLT PUSH2 0x249 JUMPI PUSH2 0x267 PUSH2 0x198F JUMP JUMPDEST PUSH2 0x26F PUSH2 0x1B4F JUMP JUMPDEST PUSH1 0x1 PUSH1 0x1 PUSH1 0xA0 SHL SUB SWAP1 DUP2 AND SWAP1 DUP2 ISZERO PUSH2 0x2BE JUMPI PUSH1 0x0 SLOAD DUP3 PUSH1 0x1 PUSH1 0x1 PUSH1 0x60 SHL SUB PUSH1 0xA0 SHL DUP3 AND OR PUSH1 0x0 SSTORE AND PUSH32 0x8BE0079C531659141344CD1FD0A4F28419497F9722A3DAAFE3B4186F6B6457E0 PUSH1 0x0 DUP1 LOG3 STOP JUMPDEST PUSH1 0x40 MLOAD PUSH4 0x1E4FBDF7 PUSH1 0xE0 SHL DUP2 MSTORE PUSH1 0x0 PUSH1 0x4 DUP3 ADD MSTORE PUSH1 0x24 SWAP1 REVERT JUMPDEST CALLVALUE PUSH2 0x249 JUMPI PUSH1 0x0 CALLDATASIZE PUSH1 0x3 NOT ADD SLT PUSH2 0x249 JUMPI PUSH1 0x20 PUSH1 0x40 MLOAD PUSH2 0xE10 DUP2 MSTORE RETURN JUMPDEST CALLVALUE PUSH2 0x249 JUMPI PUSH1 0x0 CALLDATASIZE PUSH1 0x3 NOT ADD SLT PUSH2 0x249 JUMPI PUSH1 0x20 PUSH1 0x7 SLOAD PUSH1 0x40 MLOAD SWAP1 DUP2 MSTORE RETURN JUMPDEST POP CALLVALUE PUSH2 0x249 JUMPI PUSH1 0x20 CALLDATASIZE PUSH1 0x3 NOT ADD SLT PUSH2 0x249 JUMPI PUSH1 0x40 MLOAD PUSH1 0x4 CALLDATALOAD SWAP2 PUSH2 0x334 DUP3 PUSH2 0x19E5 JUMP JUMPDEST PUSH1 0x0 DUP3 MSTORE PUSH1 0x0 PUSH1 0x20 DUP4 ADD MSTORE PUSH1 0x0 PUSH1 0x40 DUP4 ADD MSTORE PUSH1 0x0 PUSH1 0x60 DUP4 ADD MSTORE PUSH1 0x0 PUSH1 0x80 DUP4 ADD MSTORE PUSH1 0x0 PUSH1 0xA0 DUP4 ADD MSTORE PUSH1 0x0 PUSH1 0xC0 DUP4 ADD MSTORE PUSH1 0x0 DUP2 DUP4 ADD MSTORE PUSH2 0x100 SWAP3 PUSH1 0x0 DUP5 DUP5 ADD MSTORE PUSH1 0x0 PUSH2 0x120 DUP1 SWAP5 ADD MSTORE PUSH2 0x388 PUSH1 0x8 SLOAD DUP3 LT PUSH2 0x1C95 JUMP JUMPDEST PUSH1 0x0 MSTORE PUSH1 0x4 PUSH1 0x20 MSTORE PUSH1 0x40 PUSH1 0x0 KECCAK256 SWAP3 PUSH1 0x40 MLOAD SWAP4 PUSH2 0x3A3 DUP6 PUSH2 0x19E5 JUMP JUMPDEST DUP1 SLOAD DUP6 MSTORE PUSH1 0x1 DUP1 PUSH1 0xA0 SHL SUB SWAP3 DUP4 PUSH1 0x1 DUP4 ADD SLOAD AND PUSH1 0x20 DUP8 ADD SWAP1 DUP2 MSTORE PUSH1 0x2 DUP4 ADD SLOAD PUSH1 0x40 DUP9 ADD SWAP1 DUP2 MSTORE PUSH1 0x3 DUP5 ADD SLOAD PUSH1 0x60 DUP10 ADD SWAP1 DUP2 MSTORE PUSH1 0x4 DUP6 ADD SLOAD PUSH1 0x80 DUP11 ADD SWAP1 DUP2 MSTORE PUSH1 0x5 DUP7 ADD SLOAD SWAP2 PUSH1 0xA0 DUP12 ADD SWAP3 DUP4 MSTORE PUSH1 0x6 DUP8 ADD SLOAD SWAP4 PUSH1 0xC0 DUP13 ADD SWAP5 DUP6 MSTORE PUSH1 0xFF PUSH1 0x7 DUP10 ADD SLOAD AND SWAP10 DUP8 DUP14 ADD SWAP7 PUSH1 0x4 DUP13 LT ISZERO PUSH2 0x477 JUMPI DUP13 DUP15 SWAP13 SWAP11 DUP14 SWAP12 DUP11 MSTORE DUP13 PUSH1 0x8 DUP3 ADD SLOAD SWAP13 ADD SWAP12 DUP13 MSTORE PUSH1 0x9 ADD SLOAD SWAP13 ADD SWAP12 DUP13 MSTORE PUSH1 0x40 MLOAD DUP1 SWAP15 MLOAD SWAP1 MSTORE MLOAD AND PUSH1 0x20 DUP14 ADD MSTORE MLOAD PUSH1 0x40 DUP13 ADD MSTORE MLOAD PUSH1 0x60 DUP12 ADD MSTORE MLOAD PUSH1 0x80 DUP11 ADD MSTORE MLOAD PUSH1 0xA0 DUP10 ADD MSTORE MLOAD PUSH1 0xC0 DUP9 ADD MSTORE MLOAD SWAP1 DUP7 ADD PUSH2 0x467 SWAP2 PUSH2 0x1982 JUMP JUMPDEST MLOAD SWAP1 DUP5 ADD MSTORE MLOAD SWAP1 DUP3 ADD MSTORE PUSH2 0x140 SWAP1 RETURN JUMPDEST PUSH4 0x4E487B71 PUSH1 0xE0 SHL PUSH1 0x0 MSTORE PUSH1 0x21 PUSH1 0x4 MSTORE PUSH1 0x24 PUSH1 0x0 REVERT JUMPDEST CALLVALUE PUSH2 0x249 JUMPI PUSH1 0x0 CALLDATASIZE PUSH1 0x3 NOT ADD SLT PUSH2 0x249 JUMPI PUSH1 0x20 PUSH1 0x9 SLOAD PUSH1 0x40 MLOAD SWAP1 DUP2 MSTORE RETURN JUMPDEST CALLVALUE PUSH2 0x249 JUMPI PUSH1 0x0 CALLDATASIZE PUSH1 0x3 NOT ADD SLT PUSH2 0x249 JUMPI PUSH1 0x20 PUSH1 0x8 SLOAD PUSH1 0x40 MLOAD SWAP1 DUP2 MSTORE RETURN JUMPDEST CALLVALUE PUSH2 0x249 JUMPI PUSH1 0x40 CALLDATASIZE PUSH1 0x3 NOT ADD SLT PUSH2 0x249 JUMPI PUSH2 0x4E2 PUSH2 0x198F JUMP JUMPDEST PUSH1 0x1 PUSH1 0x1 PUSH1 0xA0 SHL SUB AND PUSH1 0x0 SWAP1 DUP2 MSTORE PUSH1 0x5 PUSH1 0x20 MSTORE PUSH1 0x40 SWAP1 KECCAK256 DUP1 SLOAD PUSH1 0x24 CALLDATALOAD SWAP2 SWAP1 DUP3 LT ISZERO PUSH2 0x249 JUMPI PUSH1 0x20 SWAP2 PUSH2 0x513 SWAP2 PUSH2 0x1A41 JUMP JUMPDEST SWAP1 SLOAD PUSH1 0x40 MLOAD SWAP2 PUSH1 0x3 SHL SHR DUP2 MSTORE RETURN JUMPDEST CALLVALUE PUSH2 0x249 JUMPI PUSH1 0x0 CALLDATASIZE PUSH1 0x3 NOT ADD SLT PUSH2 0x249 JUMPI PUSH1 0x20 PUSH1 0xA SLOAD PUSH1 0x40 MLOAD SWAP1 DUP2 MSTORE RETURN JUMPDEST CALLVALUE PUSH2 0x249 JUMPI PUSH1 0x20 DUP1 PUSH1 0x3 NOT CALLDATASIZE ADD SLT PUSH2 0x249 JUMPI PUSH1 0x4 CALLDATALOAD SWAP1 PUSH2 0x55D PUSH2 0x1C14 JUMP JUMPDEST PUSH2 0x56A PUSH1 0x8 SLOAD DUP4 LT PUSH2 0x1C95 JUMP JUMPDEST PUSH1 0x0 DUP3 DUP2 MSTORE PUSH1 0x4 DUP3 MSTORE PUSH1 0x40 SWAP1 KECCAK256 PUSH1 0x1 DUP2 ADD SLOAD PUSH1 0x1 PUSH1 0x1 PUSH1 0xA0 SHL SUB AND CALLER SUB PUSH2 0x717 JUMPI PUSH1 0x7 DUP2 ADD DUP1 SLOAD PUSH1 0xFF DUP2 AND PUSH1 0x4 DUP2 LT ISZERO PUSH2 0x477 JUMPI PUSH2 0x5A8 SWAP1 ISZERO PUSH2 0x1CE1 JUMP JUMPDEST PUSH1 0x8 DUP4 ADD SLOAD PUSH2 0x6C4 JUMPI PUSH1 0x3 DUP4 ADD SLOAD TIMESTAMP LT ISZERO PUSH2 0x686 JUMPI SWAP1 PUSH1 0x2 PUSH1 0x5 SWAP4 SWAP3 PUSH1 0xFF NOT AND OR SWAP1 SSTORE PUSH1 0x2 DUP2 ADD SLOAD PUSH1 0x0 MSTORE PUSH1 0x3 DUP4 MSTORE PUSH1 0x0 PUSH1 0x4 PUSH1 0x40 DUP3 KECCAK256 ADD SSTORE ADD SLOAD SWAP1 PUSH1 0x5 DUP3 MUL DUP3 DUP2 DIV PUSH1 0x5 EQ DUP4 ISZERO OR ISZERO PUSH2 0x670 JUMPI PUSH2 0x607 PUSH1 0x64 PUSH2 0x610 SWAP3 DIV DUP1 SWAP5 PUSH2 0x1BD6 JUMP JUMPDEST SWAP3 PUSH1 0xA SLOAD PUSH2 0x1D2D JUMP JUMPDEST PUSH1 0xA SSTORE DUP2 PUSH1 0x0 DUP2 ISZERO PUSH2 0x667 JUMPI JUMPDEST PUSH1 0x0 DUP1 DUP1 SWAP4 DUP2 SWAP4 CALLER SWAP1 CALL ISZERO PUSH2 0x65B JUMPI PUSH32 0xCEC7557DA08EEF8FEFE6B6111E8379E709F490BD0ACE42321CFDA8905617062B SWAP2 PUSH1 0x40 MLOAD SWAP1 DUP2 MSTORE LOG2 PUSH1 0x1 DUP1 SSTORE STOP JUMPDEST PUSH1 0x40 MLOAD RETURNDATASIZE PUSH1 0x0 DUP3 RETURNDATACOPY RETURNDATASIZE SWAP1 REVERT JUMPDEST POP PUSH2 0x8FC PUSH2 0x61D JUMP JUMPDEST PUSH4 0x4E487B71 PUSH1 0xE0 SHL PUSH1 0x0 MSTORE PUSH1 0x11 PUSH1 0x4 MSTORE PUSH1 0x24 PUSH1 0x0 REVERT JUMPDEST PUSH1 0x40 MLOAD PUSH3 0x461BCD PUSH1 0xE5 SHL DUP2 MSTORE PUSH1 0x4 DUP2 ADD DUP6 SWAP1 MSTORE PUSH1 0x16 PUSH1 0x24 DUP3 ADD MSTORE PUSH22 0x2A3937B8103A30B932103837BAB91030B7373AB632B9 PUSH1 0x51 SHL PUSH1 0x44 DUP3 ADD MSTORE PUSH1 0x64 SWAP1 REVERT JUMPDEST PUSH1 0x40 MLOAD PUSH3 0x461BCD PUSH1 0xE5 SHL DUP2 MSTORE PUSH1 0x4 DUP2 ADD DUP6 SWAP1 MSTORE PUSH1 0x25 PUSH1 0x24 DUP3 ADD MSTORE PUSH32 0x496D706F737369626C65206427616E6E756C657220617072C3A873206C652064 PUSH1 0x44 DUP3 ADD MSTORE PUSH5 0x30EA589D5D PUSH1 0xDA SHL PUSH1 0x64 DUP3 ADD MSTORE PUSH1 0x84 SWAP1 REVERT JUMPDEST PUSH1 0x40 MLOAD PUSH3 0x461BCD PUSH1 0xE5 SHL DUP2 MSTORE PUSH1 0x4 DUP2 ADD DUP4 SWAP1 MSTORE PUSH1 0xD PUSH1 0x24 DUP3 ADD MSTORE PUSH13 0x506173206175746F726973C3A9 PUSH1 0x98 SHL PUSH1 0x44 DUP3 ADD MSTORE PUSH1 0x64 SWAP1 REVERT JUMPDEST CALLVALUE PUSH2 0x249 JUMPI PUSH1 0x20 CALLDATASIZE PUSH1 0x3 NOT ADD SLT PUSH2 0x249 JUMPI PUSH1 0x4 CALLDATALOAD PUSH2 0x768 PUSH2 0x1B4F JUMP JUMPDEST PUSH1 0x14 DUP2 GT PUSH2 0x7A1 JUMPI PUSH1 0x20 DUP2 PUSH32 0x45610D581145924DD7090A5017E5F2B1D6F42213BB2E95707FF86846BBFCB1CA SWAP3 PUSH1 0x9 SSTORE PUSH1 0x40 MLOAD SWAP1 DUP2 MSTORE LOG1 STOP JUMPDEST PUSH1 0x40 MLOAD PUSH3 0x461BCD PUSH1 0xE5 SHL DUP2 MSTORE PUSH1 0x20 PUSH1 0x4 DUP3 ADD MSTORE PUSH1 0x11 PUSH1 0x24 DUP3 ADD MSTORE PUSH17 0x4672616973206D6178696D756D20323025 PUSH1 0x78 SHL PUSH1 0x44 DUP3 ADD MSTORE PUSH1 0x64 SWAP1 REVERT JUMPDEST CALLVALUE PUSH2 0x249 JUMPI PUSH1 0x0 CALLDATASIZE PUSH1 0x3 NOT ADD SLT PUSH2 0x249 JUMPI PUSH1 0xB SLOAD PUSH1 0x40 MLOAD PUSH1 0x1 PUSH1 0x1 PUSH1 0xA0 SHL SUB SWAP1 SWAP2 AND DUP2 MSTORE PUSH1 0x20 SWAP1 RETURN JUMPDEST CALLVALUE PUSH2 0x249 JUMPI PUSH1 0x0 CALLDATASIZE PUSH1 0x3 NOT ADD SLT PUSH2 0x249 JUMPI PUSH2 0x81C PUSH2 0x1B4F JUMP JUMPDEST PUSH1 0x0 DUP1 DUP1 DUP1 PUSH1 0xA SLOAD DUP2 PUSH1 0xA SSTORE PUSH1 0x1 DUP1 PUSH1 0xA0 SHL SUB DUP3 SLOAD AND DUP3 DUP3 ISZERO PUSH2 0x842 JUMPI JUMPDEST CALL ISZERO PUSH2 0x65B JUMPI STOP JUMPDEST POP PUSH2 0x8FC PUSH2 0x83A JUMP JUMPDEST CALLVALUE PUSH2 0x249 JUMPI PUSH1 0x0 CALLDATASIZE PUSH1 0x3 NOT ADD SLT PUSH2 0x249 JUMPI PUSH1 0x0 SLOAD PUSH1 0x40 MLOAD PUSH1 0x1 PUSH1 0x1 PUSH1 0xA0 SHL SUB SWAP1 SWAP2 AND DUP2 MSTORE PUSH1 0x20 SWAP1 RETURN JUMPDEST CALLVALUE PUSH2 0x249 JUMPI PUSH1 0x0 CALLDATASIZE PUSH1 0x3 NOT ADD SLT PUSH2 0x249 JUMPI PUSH2 0x88D PUSH2 0x1B4F JUMP JUMPDEST PUSH2 0x895 PUSH2 0x1BF6 JUMP JUMPDEST PUSH1 0x1 PUSH1 0xFF NOT PUSH1 0x2 SLOAD AND OR PUSH1 0x2 SSTORE PUSH32 0x62E78CEA01BEE320CD4E420270B5EA74000D11B0C9F74754EBDBFC544B05A258 PUSH1 0x20 PUSH1 0x40 MLOAD CALLER DUP2 MSTORE LOG1 STOP JUMPDEST CALLVALUE PUSH2 0x249 JUMPI PUSH1 0x20 DUP1 PUSH1 0x3 NOT CALLDATASIZE ADD SLT PUSH2 0x249 JUMPI PUSH1 0x1 PUSH1 0x1 PUSH1 0xA0 SHL SUB PUSH2 0x8F0 PUSH2 0x198F JUMP JUMPDEST AND PUSH1 0x0 MSTORE PUSH1 0x5 DUP2 MSTORE PUSH1 0x40 PUSH1 0x0 KECCAK256 PUSH1 0x40 MLOAD SWAP1 DUP2 DUP4 DUP3 SLOAD SWAP2 DUP3 DUP2 MSTORE ADD SWAP1 DUP2 SWAP3 PUSH1 0x0 MSTORE DUP5 PUSH1 0x0 KECCAK256 SWAP1 PUSH1 0x0 JUMPDEST DUP7 DUP3 DUP3 LT PUSH2 0x96E JUMPI DUP7 DUP7 PUSH2 0x92E DUP3 DUP9 SUB DUP4 PUSH2 0x1A1F JUMP JUMPDEST PUSH1 0x40 MLOAD SWAP3 DUP4 SWAP3 DUP2 DUP5 ADD SWAP1 DUP3 DUP6 MSTORE MLOAD DUP1 SWAP2 MSTORE PUSH1 0x40 DUP5 ADD SWAP3 SWAP2 PUSH1 0x0 JUMPDEST DUP3 DUP2 LT PUSH2 0x957 JUMPI POP POP POP POP SUB SWAP1 RETURN JUMPDEST DUP4 MLOAD DUP6 MSTORE DUP7 SWAP6 POP SWAP4 DUP2 ADD SWAP4 SWAP3 DUP2 ADD SWAP3 PUSH1 0x1 ADD PUSH2 0x948 JUMP JUMPDEST DUP4 SLOAD DUP6 MSTORE SWAP1 SWAP4 ADD SWAP3 PUSH1 0x1 SWAP3 DUP4 ADD SWAP3 ADD PUSH2 0x918 JUMP JUMPDEST CALLVALUE PUSH2 0x249 JUMPI PUSH1 0x0 CALLDATASIZE PUSH1 0x3 NOT ADD SLT PUSH2 0x249 JUMPI PUSH2 0x99B PUSH2 0x1B4F JUMP JUMPDEST PUSH1 0x0 DUP1 SLOAD PUSH1 0x1 PUSH1 0x1 PUSH1 0xA0 SHL SUB NOT DUP2 AND DUP3 SSTORE PUSH1 0x1 PUSH1 0x1 PUSH1 0xA0 SHL SUB AND PUSH32 0x8BE0079C531659141344CD1FD0A4F28419497F9722A3DAAFE3B4186F6B6457E0 DUP3 DUP1 LOG3 STOP JUMPDEST CALLVALUE PUSH2 0x249 JUMPI PUSH1 0x20 DUP1 PUSH1 0x3 NOT CALLDATASIZE ADD SLT PUSH2 0x249 JUMPI PUSH1 0x4 CALLDATALOAD PUSH1 0x1 DUP1 PUSH1 0xA0 SHL SUB PUSH2 0xA06 DUP2 PUSH1 0xB SLOAD AND CALLER EQ PUSH2 0x1C37 JUMP JUMPDEST PUSH2 0xA13 PUSH1 0x8 SLOAD DUP4 LT PUSH2 0x1C95 JUMP JUMPDEST DUP2 PUSH1 0x0 MSTORE PUSH1 0x4 DUP4 MSTORE PUSH1 0x40 PUSH1 0x0 KECCAK256 SWAP2 PUSH1 0x7 DUP4 ADD SWAP2 DUP3 SLOAD SWAP4 PUSH1 0xFF DUP6 AND PUSH1 0x4 DUP2 LT ISZERO PUSH2 0x477 JUMPI PUSH2 0xA40 SWAP1 ISZERO PUSH2 0x1CE1 JUMP JUMPDEST PUSH1 0x8 DUP2 ADD DUP1 SLOAD ISZERO PUSH2 0xBF1 JUMPI PUSH1 0x9 DUP3 ADD DUP1 SLOAD PUSH2 0xBAC JUMPI PUSH2 0xAAA PUSH2 0xA9F PUSH2 0xADF SWAP4 PUSH2 0xE10 SWAP4 PUSH1 0x2 DUP8 ADD SWAP10 DUP11 SLOAD PUSH1 0x0 MSTORE PUSH1 0x3 DUP14 MSTORE PUSH1 0x1 PUSH1 0x40 PUSH1 0x0 KECCAK256 SWAP13 TIMESTAMP DUP5 SSTORE PUSH1 0xFF NOT AND OR SWAP1 SSTORE PUSH1 0x3 DUP12 ADD PUSH2 0x100 PUSH1 0x1 PUSH1 0xB0 SHL SUB NOT DUP2 SLOAD AND SWAP1 SSTORE SLOAD SWAP1 SLOAD SWAP1 PUSH2 0x1BD6 JUMP JUMPDEST PUSH1 0x2 DUP10 ADD SLOAD SWAP1 PUSH2 0x1BE3 JUMP JUMPDEST DIV SWAP6 PUSH1 0x64 PUSH2 0xABA PUSH1 0x9 SLOAD DUP10 PUSH2 0x1BE3 JUMP JUMPDEST DIV SWAP1 PUSH2 0xAD5 PUSH1 0x5 PUSH2 0xACB DUP5 DUP12 PUSH2 0x1BD6 JUMP JUMPDEST SWAP3 ADD SWAP2 DUP3 SLOAD PUSH2 0x1D2D JUMP JUMPDEST SWAP1 SSTORE PUSH1 0xA SLOAD PUSH2 0x1D2D JUMP JUMPDEST PUSH1 0xA SSTORE PUSH1 0x0 SWAP2 PUSH1 0x5 DUP3 ADD SLOAD DUP7 DUP2 GT PUSH2 0xB6E JUMPI JUMPDEST DUP8 PUSH32 0x87343556099B49429066214EC214C7A2D132B37AD29DD9D6DE4B47CC2B587A5F PUSH1 0x40 DUP9 DUP9 PUSH32 0x328019CF102D7C7C17D39656E37FC93B0D193D0F0458F8307D5C4D2E48BD2A83 DUP10 DUP14 PUSH2 0xB5B DUP7 MLOAD SWAP3 DUP4 SWAP3 TIMESTAMP DUP5 PUSH1 0x40 SWAP2 SWAP5 SWAP4 SWAP3 PUSH1 0x60 DUP3 ADD SWAP6 DUP3 MSTORE PUSH1 0x20 DUP3 ADD MSTORE ADD MSTORE JUMP JUMPDEST SUB SWAP1 LOG2 SLOAD SWAP3 PUSH1 0x0 DUP3 MLOAD SWAP2 DUP2 DUP4 MSTORE DUP3 ADD MSTORE LOG2 STOP JUMPDEST PUSH1 0x1 SWAP6 SWAP5 SWAP4 POP PUSH1 0x0 DUP1 SWAP4 DUP2 SWAP4 PUSH2 0xB85 DUP11 DUP5 SWAP6 PUSH2 0x1BD6 JUMP JUMPDEST SWAP9 DUP10 SWAP3 ADD SLOAD AND DUP3 DUP3 ISZERO PUSH2 0xBA3 JUMPI JUMPDEST CALL ISZERO PUSH2 0x65B JUMPI SWAP1 SWAP2 DUP6 DUP1 DUP1 PUSH2 0xAF2 JUMP JUMPDEST POP PUSH2 0x8FC PUSH2 0xB93 JUMP JUMPDEST PUSH1 0x40 MLOAD PUSH3 0x461BCD PUSH1 0xE5 SHL DUP2 MSTORE PUSH1 0x4 DUP2 ADD DUP10 SWAP1 MSTORE PUSH1 0x1D PUSH1 0x24 DUP3 ADD MSTORE PUSH32 0x52C3A9736572766174696F6E2064C3A96AC3A0207465726D696EC3A965000000 PUSH1 0x44 DUP3 ADD MSTORE PUSH1 0x64 SWAP1 REVERT JUMPDEST PUSH1 0x40 MLOAD PUSH3 0x461BCD PUSH1 0xE5 SHL DUP2 MSTORE PUSH1 0x4 DUP2 ADD DUP9 SWAP1 MSTORE PUSH1 0x1B PUSH1 0x24 DUP3 ADD MSTORE PUSH32 0x52C3A9736572766174696F6E206E6F6E20636F6D6D656E63C3A9650000000000 PUSH1 0x44 DUP3 ADD MSTORE PUSH1 0x64 SWAP1 REVERT JUMPDEST POP CALLVALUE PUSH2 0x249 JUMPI PUSH1 0x40 CALLDATASIZE PUSH1 0x3 NOT ADD SLT PUSH2 0x249 JUMPI PUSH1 0x4 CALLDATALOAD PUSH8 0xFFFFFFFFFFFFFFFF DUP2 GT PUSH2 0x249 JUMPI CALLDATASIZE PUSH1 0x23 DUP3 ADD SLT ISZERO PUSH2 0x249 JUMPI DUP1 PUSH1 0x4 ADD CALLDATALOAD PUSH8 0xFFFFFFFFFFFFFFFF DUP2 GT PUSH2 0xF56 JUMPI PUSH1 0x40 MLOAD SWAP2 PUSH2 0xC91 PUSH1 0x1F DUP4 ADD PUSH1 0x1F NOT AND PUSH1 0x20 ADD DUP5 PUSH2 0x1A1F JUMP JUMPDEST DUP2 DUP4 MSTORE CALLDATASIZE PUSH1 0x24 DUP4 DUP4 ADD ADD GT PUSH2 0x249 JUMPI DUP2 PUSH1 0x0 SWAP3 PUSH1 0x24 PUSH1 0x20 SWAP4 ADD DUP4 DUP7 ADD CALLDATACOPY DUP4 ADD ADD MSTORE PUSH2 0xCBA PUSH2 0x1B4F JUMP JUMPDEST PUSH1 0x24 CALLDATALOAD ISZERO PUSH2 0xF6C JUMPI PUSH1 0x7 SLOAD SWAP2 PUSH2 0xCCF DUP4 PUSH2 0x1B7B JUMP JUMPDEST PUSH1 0x7 SSTORE PUSH1 0x40 MLOAD PUSH2 0xCDE DUP2 PUSH2 0x1A02 JUMP JUMPDEST DUP4 DUP2 MSTORE DUP3 PUSH1 0x20 DUP3 ADD MSTORE PUSH1 0x24 CALLDATALOAD PUSH1 0x40 DUP3 ADD MSTORE PUSH1 0x1 PUSH1 0x60 DUP3 ADD MSTORE PUSH1 0x0 PUSH1 0x80 DUP3 ADD MSTORE PUSH1 0x0 PUSH1 0xA0 DUP3 ADD MSTORE PUSH1 0x0 PUSH1 0xC0 DUP3 ADD MSTORE PUSH1 0x0 DUP3 DUP3 ADD MSTORE PUSH1 0x0 PUSH2 0x100 DUP3 ADD MSTORE DUP4 PUSH1 0x0 MSTORE PUSH1 0x3 PUSH1 0x20 MSTORE PUSH1 0x40 PUSH1 0x0 KECCAK256 SWAP2 DUP2 MLOAD DUP4 SSTORE PUSH1 0x20 DUP3 ADD MLOAD DUP1 MLOAD SWAP1 PUSH8 0xFFFFFFFFFFFFFFFF DUP3 GT PUSH2 0xF56 JUMPI PUSH2 0xD50 PUSH1 0x1 DUP7 ADD SLOAD PUSH2 0x1A6F JUMP JUMPDEST PUSH1 0x1F DUP2 GT PUSH2 0xF0F JUMPI JUMPDEST POP PUSH1 0x20 SWAP1 PUSH1 0x1F DUP4 GT PUSH1 0x1 EQ PUSH2 0xE72 JUMPI SWAP4 PUSH2 0xE5A SWAP6 SWAP4 DUP4 PUSH1 0x6 SWAP5 PUSH2 0x100 SWAP5 PUSH32 0xA6197EEF0B3F314919F42F1269EB3A092BE98FBBE59F968A27F4A5BB1FCDBB6A SWAP11 SWAP9 PUSH1 0x0 SWAP3 PUSH2 0xE67 JUMPI JUMPDEST POP POP DUP2 PUSH1 0x1 SHL SWAP2 PUSH1 0x0 NOT SWAP1 PUSH1 0x3 SHL SHR NOT AND OR PUSH1 0x1 DUP7 ADD SSTORE JUMPDEST PUSH1 0x40 DUP3 ADD MLOAD PUSH1 0x2 DUP7 ADD SSTORE PUSH1 0x60 DUP3 ADD MLOAD PUSH1 0x3 DUP7 ADD DUP1 SLOAD PUSH1 0x80 DUP6 ADD MLOAD PUSH1 0xA0 DUP7 ADD MLOAD PUSH1 0x1 PUSH1 0x1 PUSH1 0xB0 SHL SUB NOT SWAP1 SWAP3 AND PUSH1 0xFF SWAP5 ISZERO ISZERO SWAP5 SWAP1 SWAP5 AND SWAP4 SWAP1 SWAP4 OR SWAP3 ISZERO ISZERO PUSH1 0x8 SHL PUSH2 0xFF00 AND SWAP3 SWAP1 SWAP3 OR PUSH1 0x10 SWAP3 SWAP1 SWAP3 SHL PUSH3 0x10000 PUSH1 0x1 PUSH1 0xB0 SHL SUB AND SWAP2 SWAP1 SWAP2 OR SWAP1 SSTORE PUSH1 0xC0 DUP3 ADD MLOAD PUSH1 0x4 DUP7 ADD SSTORE DUP2 ADD MLOAD PUSH1 0x5 DUP6 ADD SSTORE ADD MLOAD SWAP2 ADD SSTORE DUP4 PUSH1 0x0 MSTORE PUSH1 0x6 PUSH1 0x20 MSTORE PUSH1 0x40 PUSH1 0x0 KECCAK256 PUSH1 0x1 PUSH1 0xFF NOT DUP3 SLOAD AND OR SWAP1 SSTORE PUSH1 0x40 MLOAD SWAP2 DUP3 SWAP2 PUSH1 0x40 DUP4 MSTORE PUSH1 0x40 DUP4 ADD SWAP1 PUSH2 0x19A5 JUMP JUMPDEST PUSH1 0x24 CALLDATALOAD PUSH1 0x20 DUP4 ADD MSTORE SUB SWAP1 LOG2 STOP JUMPDEST ADD MLOAD SWAP1 POP CODESIZE DUP1 PUSH2 0xDA1 JUMP JUMPDEST SWAP1 PUSH1 0x1 DUP7 ADD PUSH1 0x0 MSTORE PUSH1 0x20 PUSH1 0x0 KECCAK256 SWAP2 PUSH1 0x0 JUMPDEST PUSH1 0x1F NOT DUP6 AND DUP2 LT PUSH2 0xEF7 JUMPI POP SWAP4 PUSH1 0x1 DUP5 PUSH2 0x100 SWAP5 PUSH32 0xA6197EEF0B3F314919F42F1269EB3A092BE98FBBE59F968A27F4A5BB1FCDBB6A SWAP11 SWAP9 SWAP5 PUSH2 0xE5A SWAP11 SWAP9 PUSH1 0x6 SWAP9 PUSH1 0x1F NOT DUP2 AND LT PUSH2 0xEDE JUMPI JUMPDEST POP POP POP DUP2 SHL ADD PUSH1 0x1 DUP7 ADD SSTORE PUSH2 0xDB9 JUMP JUMPDEST ADD MLOAD PUSH1 0x0 NOT PUSH1 0xF8 DUP5 PUSH1 0x3 SHL AND SHR NOT AND SWAP1 SSTORE CODESIZE DUP1 DUP1 PUSH2 0xECE JUMP JUMPDEST SWAP2 SWAP3 PUSH1 0x20 PUSH1 0x1 DUP2 SWAP3 DUP7 DUP6 ADD MLOAD DUP2 SSTORE ADD SWAP5 ADD SWAP3 ADD PUSH2 0xE83 JUMP JUMPDEST PUSH1 0x1 DUP7 ADD PUSH1 0x0 MSTORE PUSH1 0x20 PUSH1 0x0 KECCAK256 PUSH1 0x1F DUP5 ADD PUSH1 0x5 SHR DUP2 ADD PUSH1 0x20 DUP6 LT PUSH2 0xF4F JUMPI JUMPDEST PUSH1 0x1F DUP4 ADD PUSH1 0x5 SHR DUP3 ADD DUP2 LT PUSH2 0xF43 JUMPI POP POP PUSH2 0xD59 JUMP JUMPDEST PUSH1 0x0 DUP2 SSTORE PUSH1 0x1 ADD PUSH2 0xF2D JUMP JUMPDEST POP DUP1 PUSH2 0xF2D JUMP JUMPDEST PUSH4 0x4E487B71 PUSH1 0xE0 SHL PUSH1 0x0 MSTORE PUSH1 0x41 PUSH1 0x4 MSTORE PUSH1 0x24 PUSH1 0x0 REVERT JUMPDEST PUSH1 0x40 MLOAD PUSH3 0x461BCD PUSH1 0xE5 SHL DUP2 MSTORE PUSH1 0x20 PUSH1 0x4 DUP3 ADD MSTORE PUSH1 0x23 PUSH1 0x24 DUP3 ADD MSTORE PUSH32 0x4C6520746172696620646F697420C3AA74726520737570C3A9726965757220C3 PUSH1 0x44 DUP3 ADD MSTORE PUSH3 0xA0203 PUSH1 0xEC SHL PUSH1 0x64 DUP3 ADD MSTORE PUSH1 0x84 SWAP1 REVERT JUMPDEST CALLVALUE PUSH2 0x249 JUMPI PUSH1 0x0 CALLDATASIZE PUSH1 0x3 NOT ADD SLT PUSH2 0x249 JUMPI PUSH1 0x20 PUSH1 0x40 MLOAD PUSH3 0x15180 DUP2 MSTORE RETURN JUMPDEST CALLVALUE PUSH2 0x249 JUMPI PUSH1 0x0 CALLDATASIZE PUSH1 0x3 NOT ADD SLT PUSH2 0x249 JUMPI PUSH1 0x20 PUSH1 0xFF PUSH1 0x2 SLOAD AND PUSH1 0x40 MLOAD SWAP1 ISZERO ISZERO DUP2 MSTORE RETURN JUMPDEST CALLVALUE PUSH2 0x249 JUMPI PUSH1 0x20 DUP1 PUSH1 0x3 NOT CALLDATASIZE ADD SLT PUSH2 0x249 JUMPI PUSH1 0x4 CALLDATALOAD PUSH1 0x1 DUP1 PUSH1 0xA0 SHL SUB PUSH2 0x1029 DUP2 PUSH1 0xB SLOAD AND CALLER EQ PUSH2 0x1C37 JUMP JUMPDEST PUSH2 0x1036 PUSH1 0x8 SLOAD DUP4 LT PUSH2 0x1C95 JUMP JUMPDEST DUP2 PUSH1 0x0 MSTORE PUSH1 0x4 DUP4 MSTORE PUSH1 0x40 PUSH1 0x0 KECCAK256 SWAP3 PUSH1 0xFF PUSH1 0x7 DUP6 ADD SLOAD AND PUSH1 0x4 DUP2 LT ISZERO PUSH2 0x477 JUMPI PUSH2 0x105F SWAP1 ISZERO PUSH2 0x1CE1 JUMP JUMPDEST PUSH1 0x8 DUP5 ADD SWAP2 DUP3 SLOAD PUSH2 0x1133 JUMPI PUSH1 0x6 PUSH1 0x2 DUP7 ADD SWAP4 DUP5 SLOAD PUSH1 0x0 MSTORE PUSH1 0x3 DUP5 MSTORE PUSH1 0x40 PUSH1 0x0 KECCAK256 SWAP1 TIMESTAMP SWAP1 SSTORE PUSH2 0x10C4 PUSH1 0x1 PUSH1 0x3 DUP4 ADD SWAP9 PUSH2 0x100 PUSH2 0xFF00 NOT DUP12 SLOAD AND OR DUP11 SSTORE ADD SWAP8 DUP5 DUP10 SLOAD AND DUP2 SLOAD SWAP1 PUSH3 0x10000 PUSH1 0x1 PUSH1 0xB0 SHL SUB SWAP1 PUSH1 0x10 SHL AND SWAP1 PUSH3 0x10000 PUSH1 0x1 PUSH1 0xB0 SHL SUB NOT AND OR SWAP1 SSTORE JUMP JUMPDEST ADD SWAP3 DUP4 SLOAD SWAP5 PUSH1 0x1 DUP7 ADD DUP1 SWAP7 GT PUSH2 0x670 JUMPI PUSH32 0x87343556099B49429066214EC214C7A2D132B37AD29DD9D6DE4B47CC2B587A5F SWAP6 PUSH1 0x40 SWAP6 SSTORE PUSH32 0x3FF61316811A031A622E30CAC19DEDB4040B4B6C408E7E2DABCF8814A07714D0 DUP5 DUP7 MLOAD TIMESTAMP DUP2 MSTORE LOG2 SLOAD SWAP5 SLOAD AND DUP3 MLOAD SWAP2 PUSH1 0x1 DUP4 MSTORE DUP3 ADD MSTORE LOG2 STOP JUMPDEST PUSH1 0x40 MLOAD PUSH3 0x461BCD PUSH1 0xE5 SHL DUP2 MSTORE PUSH1 0x4 DUP2 ADD DUP4 SWAP1 MSTORE PUSH1 0x1E PUSH1 0x24 DUP3 ADD MSTORE PUSH32 0x52C3A9736572766174696F6E2064C3A96AC3A020636F6D6D656E63C3A9650000 PUSH1 0x44 DUP3 ADD MSTORE PUSH1 0x64 SWAP1 REVERT JUMPDEST CALLVALUE PUSH2 0x249 JUMPI PUSH1 0x0 CALLDATASIZE PUSH1 0x3 NOT ADD SLT PUSH2 0x249 JUMPI PUSH2 0x1191 PUSH2 0x1B4F JUMP JUMPDEST PUSH1 0x2 SLOAD PUSH1 0xFF DUP2 AND ISZERO PUSH2 0x11D0 JUMPI PUSH1 0xFF NOT AND PUSH1 0x2 SSTORE PUSH32 0x5DB9EE0A495BF2E6FF9C91A7834C1BA4FDD244A5E8AA4E537BD38AEAE4B073AA PUSH1 0x20 PUSH1 0x40 MLOAD CALLER DUP2 MSTORE LOG1 STOP JUMPDEST PUSH1 0x40 MLOAD PUSH4 0x8DFC202B PUSH1 0xE0 SHL DUP2 MSTORE PUSH1 0x4 SWAP1 REVERT JUMPDEST POP CALLVALUE PUSH2 0x249 JUMPI PUSH1 0x20 SWAP1 DUP2 PUSH1 0x3 NOT CALLDATASIZE ADD SLT PUSH2 0x249 JUMPI PUSH1 0x40 MLOAD SWAP1 PUSH1 0x4 CALLDATALOAD PUSH2 0x1206 DUP4 PUSH2 0x1A02 JUMP JUMPDEST PUSH1 0x0 DUP4 MSTORE PUSH1 0x60 DUP5 DUP5 ADD MSTORE PUSH1 0x0 PUSH1 0x40 DUP5 ADD MSTORE PUSH1 0x0 PUSH1 0x60 DUP5 ADD MSTORE PUSH1 0x0 PUSH1 0x80 DUP5 ADD MSTORE PUSH1 0x0 PUSH1 0xA0 DUP5 ADD MSTORE PUSH1 0x0 PUSH1 0xC0 DUP5 ADD MSTORE PUSH1 0x0 DUP3 DUP5 ADD MSTORE PUSH1 0x0 PUSH2 0x100 DUP1 SWAP5 ADD MSTORE DUP1 PUSH1 0x0 MSTORE PUSH1 0x6 DUP5 MSTORE PUSH2 0x125B PUSH1 0xFF PUSH1 0x40 PUSH1 0x0 KECCAK256 SLOAD AND PUSH2 0x1B8A JUMP JUMPDEST PUSH1 0x0 MSTORE PUSH1 0x3 DUP4 MSTORE DUP3 PUSH1 0x40 PUSH1 0x0 KECCAK256 SWAP2 PUSH1 0x40 MLOAD SWAP4 DUP5 DUP1 SWAP3 PUSH2 0x1279 DUP3 PUSH2 0x1A02 JUMP JUMPDEST DUP6 SLOAD DUP3 MSTORE PUSH2 0x1289 PUSH1 0x1 DUP8 ADD PUSH2 0x1AA9 JUMP JUMPDEST SWAP6 DUP6 DUP4 ADD SWAP7 DUP8 MSTORE PUSH1 0x2 DUP2 ADD SLOAD SWAP7 PUSH1 0x40 DUP5 ADD SWAP8 DUP9 MSTORE PUSH1 0x3 DUP3 ADD SLOAD SWAP1 PUSH1 0x60 DUP6 ADD PUSH1 0xFF DUP4 AND ISZERO ISZERO DUP2 MSTORE PUSH1 0x80 DUP7 ADD SWAP1 PUSH1 0xFF DUP5 PUSH1 0x8 SHR AND ISZERO ISZERO DUP3 MSTORE PUSH2 0x131C PUSH1 0xA0 DUP9 ADD SWAP4 PUSH1 0x1 DUP1 PUSH1 0xA0 SHL SUB DUP1 SWAP7 PUSH1 0x10 SHR AND DUP6 MSTORE DUP10 PUSH1 0x6 PUSH1 0x4 DUP10 ADD SLOAD SWAP9 PUSH1 0xC0 DUP13 ADD SWAP10 DUP11 MSTORE DUP11 PUSH1 0x5 DUP3 ADD SLOAD SWAP13 ADD SWAP12 DUP13 MSTORE ADD SLOAD SWAP12 ADD SWAP11 DUP12 MSTORE PUSH1 0x40 MLOAD SWAP15 DUP16 SWAP15 DUP16 SWAP14 DUP15 MSTORE MLOAD SWAP1 DUP14 ADD MSTORE MLOAD PUSH2 0x140 PUSH2 0x120 SWAP13 DUP14 PUSH1 0x40 DUP3 ADD MSTORE ADD SWAP1 PUSH2 0x19A5 JUMP JUMPDEST SWAP11 MLOAD PUSH1 0x60 DUP14 ADD MSTORE MLOAD ISZERO ISZERO PUSH1 0x80 DUP13 ADD MSTORE MLOAD ISZERO ISZERO PUSH1 0xA0 DUP12 ADD MSTORE MLOAD AND PUSH1 0xC0 DUP10 ADD MSTORE MLOAD SWAP1 DUP8 ADD MSTORE MLOAD SWAP1 DUP6 ADD MSTORE MLOAD SWAP1 DUP4 ADD MSTORE SUB SWAP1 RETURN JUMPDEST POP PUSH1 0x60 CALLDATASIZE PUSH1 0x3 NOT ADD SLT PUSH2 0x249 JUMPI PUSH1 0x4 CALLDATALOAD SWAP1 PUSH1 0x24 SWAP1 DUP2 CALLDATALOAD SWAP2 PUSH1 0x44 DUP1 CALLDATALOAD SWAP2 PUSH2 0x1371 PUSH2 0x1C14 JUMP JUMPDEST PUSH2 0x1379 PUSH2 0x1BF6 JUMP JUMPDEST DUP6 PUSH1 0x0 MSTORE PUSH1 0x20 SWAP1 PUSH1 0x6 DUP3 MSTORE PUSH2 0x1395 PUSH1 0xFF PUSH1 0x40 PUSH1 0x0 KECCAK256 SLOAD AND PUSH2 0x1B8A JUMP JUMPDEST DUP7 PUSH1 0x0 MSTORE PUSH1 0x3 DUP3 MSTORE PUSH1 0x40 PUSH1 0x0 KECCAK256 SWAP2 PUSH1 0x3 DUP4 ADD SLOAD PUSH1 0xFF DUP2 AND ISZERO PUSH2 0x17B9 JUMPI PUSH1 0x8 SHR PUSH1 0xFF AND PUSH2 0x177F JUMPI TIMESTAMP DUP8 LT PUSH2 0x173E JUMPI DUP7 DUP6 GT ISZERO PUSH2 0x1705 JUMPI PUSH2 0xE10 DUP1 PUSH2 0x13D8 DUP10 DUP9 PUSH2 0x1BD6 JUMP JUMPDEST LT PUSH2 0x16C3 JUMPI PUSH3 0x15180 PUSH2 0x13EB DUP10 DUP9 PUSH2 0x1BD6 JUMP JUMPDEST GT PUSH2 0x1681 JUMPI PUSH1 0x4 DUP5 ADD SWAP4 DUP5 SLOAD DUP10 LT PUSH2 0x162A JUMPI PUSH2 0x1416 SWAP1 PUSH1 0x2 PUSH2 0x140D DUP12 DUP11 PUSH2 0x1BD6 JUMP JUMPDEST SWAP2 ADD SLOAD SWAP1 PUSH2 0x1BE3 JUMP JUMPDEST DIV SWAP4 DUP5 CALLVALUE LT PUSH2 0x15F2 JUMPI POP PUSH1 0x8 SLOAD SWAP6 PUSH2 0x142D DUP8 PUSH2 0x1B7B JUMP JUMPDEST PUSH1 0x8 SSTORE DUP7 PUSH1 0x40 MLOAD SWAP2 PUSH2 0x143E DUP4 PUSH2 0x19E5 JUMP JUMPDEST DUP2 DUP4 MSTORE DUP4 DUP4 ADD SWAP1 CALLER DUP3 MSTORE PUSH1 0x40 DUP5 ADD SWAP1 DUP13 DUP3 MSTORE PUSH1 0x60 DUP6 ADD DUP13 DUP2 MSTORE PUSH1 0x80 DUP7 ADD DUP12 DUP2 MSTORE PUSH1 0xA0 DUP8 ADD SWAP2 DUP12 DUP4 MSTORE PUSH1 0xC0 DUP9 ADD SWAP4 CALLVALUE DUP6 MSTORE DUP9 ADD SWAP5 PUSH1 0x0 DUP7 MSTORE PUSH2 0x100 DUP10 ADD SWAP7 PUSH1 0x0 DUP9 MSTORE PUSH2 0x120 DUP11 ADD SWAP9 PUSH1 0x0 DUP11 MSTORE PUSH1 0x0 MSTORE PUSH1 0x4 DUP12 MSTORE PUSH1 0x40 PUSH1 0x0 KECCAK256 SWAP10 MLOAD DUP11 SSTORE PUSH1 0x1 DUP11 ADD SWAP1 PUSH1 0x1 DUP1 PUSH1 0xA0 SHL SUB SWAP1 MLOAD AND PUSH1 0x1 PUSH1 0x1 PUSH1 0x60 SHL SUB PUSH1 0xA0 SHL DUP3 SLOAD AND OR SWAP1 SSTORE MLOAD PUSH1 0x2 DUP10 ADD SSTORE MLOAD PUSH1 0x3 DUP9 ADD SSTORE MLOAD PUSH1 0x4 DUP8 ADD SSTORE MLOAD PUSH1 0x5 DUP7 ADD SSTORE MLOAD PUSH1 0x6 DUP6 ADD SSTORE PUSH1 0x7 DUP5 ADD SWAP1 MLOAD PUSH1 0x4 DUP2 LT ISZERO PUSH2 0x15DD JUMPI SWAP2 PUSH1 0x5 SWAP6 SWAP5 SWAP4 SWAP2 PUSH1 0x9 SWAP4 PUSH1 0xFF DUP1 NOT DUP4 SLOAD AND SWAP2 AND OR SWAP1 SSTORE MLOAD PUSH1 0x8 DUP5 ADD SSTORE MLOAD SWAP2 ADD SSTORE CALLER PUSH1 0x0 MSTORE MSTORE PUSH1 0x40 PUSH1 0x0 KECCAK256 DUP1 SLOAD SWAP2 PUSH9 0x10000000000000000 DUP4 LT ISZERO PUSH2 0x15C9 JUMPI POP DUP2 PUSH2 0x1537 SWAP2 PUSH1 0x1 DUP8 SWAP6 SWAP5 ADD DUP2 SSTORE PUSH2 0x1A41 JUMP JUMPDEST DUP2 SLOAD SWAP1 PUSH1 0x3 SHL SWAP1 DUP8 DUP3 SHL SWAP2 PUSH1 0x0 NOT SWAP1 SHL NOT AND OR SWAP1 SSTORE SSTORE DUP1 CALLVALUE GT PUSH2 0x1596 JUMPI JUMPDEST PUSH1 0x40 DUP1 MLOAD SWAP5 DUP6 MSTORE PUSH1 0x20 DUP6 ADD SWAP3 SWAP1 SWAP3 MSTORE SWAP1 DUP4 ADD MSTORE CALLER SWAP2 PUSH32 0xE7EEF28FBC56402F7E03EDCC642FAC3BFA8290409AD900ACD2F643E4165F5FF4 SWAP1 PUSH1 0x60 SWAP1 LOG4 PUSH1 0x1 DUP1 SSTORE STOP JUMPDEST PUSH1 0x0 DUP1 DUP1 DUP1 PUSH2 0x15A5 DUP6 CALLVALUE PUSH2 0x1BD6 JUMP JUMPDEST DUP2 DUP2 ISZERO PUSH2 0x15C0 JUMPI JUMPDEST CALLER SWAP1 CALL PUSH2 0x1555 JUMPI PUSH1 0x40 MLOAD RETURNDATASIZE PUSH1 0x0 DUP3 RETURNDATACOPY RETURNDATASIZE SWAP1 REVERT JUMPDEST POP PUSH2 0x8FC PUSH2 0x15AD JUMP JUMPDEST PUSH4 0x4E487B71 PUSH1 0xE0 SHL PUSH1 0x0 SWAP1 DUP2 MSTORE PUSH1 0x41 PUSH1 0x4 MSTORE REVERT JUMPDEST DUP7 PUSH4 0x4E487B71 PUSH1 0xE0 SHL PUSH1 0x0 MSTORE PUSH1 0x21 PUSH1 0x4 MSTORE PUSH1 0x0 REVERT JUMPDEST PUSH20 0x14185A595B595B9D081A5B9CDD59999A5CD85B9D PUSH1 0x62 SHL SWAP1 PUSH1 0x14 PUSH1 0x64 SWAP5 PUSH1 0x40 MLOAD SWAP5 PUSH3 0x461BCD PUSH1 0xE5 SHL DUP7 MSTORE PUSH1 0x4 DUP7 ADD MSTORE DUP5 ADD MSTORE DUP3 ADD MSTORE REVERT JUMPDEST PUSH1 0x40 MLOAD PUSH3 0x461BCD PUSH1 0xE5 SHL DUP2 MSTORE PUSH1 0x4 DUP2 ADD DUP5 SWAP1 MSTORE PUSH1 0x2B DUP2 DUP7 ADD MSTORE PUSH32 0x506C6163652064C3A96AC3A02072C3A973657276C3A96520706F757220636574 DUP2 DUP9 ADD MSTORE PUSH11 0x74652070C3A972696F6465 PUSH1 0xA8 SHL PUSH1 0x64 DUP3 ADD MSTORE PUSH1 0x84 SWAP1 REVERT JUMPDEST POP PUSH32 0x447572C3A965206D6178696D616C652064C3A970617373C3A965000000000000 DUP5 PUSH1 0x1A PUSH1 0x64 SWAP5 PUSH1 0x40 MLOAD SWAP5 PUSH3 0x461BCD PUSH1 0xE5 SHL DUP7 MSTORE PUSH1 0x4 DUP7 ADD MSTORE DUP5 ADD MSTORE DUP3 ADD MSTORE REVERT JUMPDEST POP PUSH32 0x447572C3A965206D696E696D616C65206E6F6E2072657370656374C3A9650000 DUP5 PUSH1 0x1E PUSH1 0x64 SWAP5 PUSH1 0x40 MLOAD SWAP5 PUSH3 0x461BCD PUSH1 0xE5 SHL DUP7 MSTORE PUSH1 0x4 DUP7 ADD MSTORE DUP5 ADD MSTORE DUP3 ADD MSTORE REVERT JUMPDEST PUSH21 0x48657572652064652066696E20696E76616C696465 PUSH1 0x58 SHL DUP5 PUSH1 0x15 PUSH1 0x64 SWAP5 PUSH1 0x40 MLOAD SWAP5 PUSH3 0x461BCD PUSH1 0xE5 SHL DUP7 MSTORE PUSH1 0x4 DUP7 ADD MSTORE DUP5 ADD MSTORE DUP3 ADD MSTORE REVERT JUMPDEST PUSH32 0x48657572652064652064C3A962757420696E76616C6964650000000000000000 DUP5 PUSH1 0x18 PUSH1 0x64 SWAP5 PUSH1 0x40 MLOAD SWAP5 PUSH3 0x461BCD PUSH1 0xE5 SHL DUP7 MSTORE PUSH1 0x4 DUP7 ADD MSTORE DUP5 ADD MSTORE DUP3 ADD MSTORE REVERT JUMPDEST DUP4 PUSH1 0x15 PUSH1 0x64 SWAP4 PUSH1 0x40 MLOAD SWAP4 PUSH3 0x461BCD PUSH1 0xE5 SHL DUP6 MSTORE PUSH1 0x4 DUP6 ADD MSTORE DUP4 ADD MSTORE PUSH21 0x506C6163652064C3A96AC3A0206F63637570C3A965 PUSH1 0x58 SHL SWAP1 DUP3 ADD MSTORE REVERT JUMPDEST POP PUSH32 0x506C616365206465207061726B696E6720696E61637469766500000000000000 DUP5 PUSH1 0x19 PUSH1 0x64 SWAP5 PUSH1 0x40 MLOAD SWAP5 PUSH3 0x461BCD PUSH1 0xE5 SHL DUP7 MSTORE PUSH1 0x4 DUP7 ADD MSTORE DUP5 ADD MSTORE DUP3 ADD MSTORE REVERT JUMPDEST CALLVALUE PUSH2 0x249 JUMPI PUSH1 0x20 CALLDATASIZE PUSH1 0x3 NOT ADD SLT PUSH2 0x249 JUMPI PUSH2 0x1814 PUSH2 0x198F JUMP JUMPDEST PUSH2 0x181C PUSH2 0x1B4F JUMP JUMPDEST PUSH1 0x1 PUSH1 0x1 PUSH1 0xA0 SHL SUB AND DUP1 ISZERO PUSH2 0x186C JUMPI PUSH1 0x20 DUP2 PUSH32 0x3DF77BEB5DB05FCDD70A30FC8ADF3F83F9501B68579455ADBD100B8180940394 SWAP3 PUSH1 0x1 PUSH1 0x1 PUSH1 0x60 SHL SUB PUSH1 0xA0 SHL PUSH1 0xB SLOAD AND OR PUSH1 0xB SSTORE PUSH1 0x40 MLOAD SWAP1 DUP2 MSTORE LOG1 STOP JUMPDEST PUSH1 0x40 MLOAD PUSH3 0x461BCD PUSH1 0xE5 SHL DUP2 MSTORE PUSH1 0x20 PUSH1 0x4 DUP3 ADD MSTORE PUSH1 0x17 PUSH1 0x24 DUP3 ADD MSTORE PUSH32 0x41647265737365206F7261636C6520696E76616C696465000000000000000000 PUSH1 0x44 DUP3 ADD MSTORE PUSH1 0x64 SWAP1 REVERT JUMPDEST CALLVALUE PUSH2 0x249 JUMPI PUSH1 0x20 CALLDATASIZE PUSH1 0x3 NOT ADD SLT PUSH2 0x249 JUMPI PUSH1 0x4 CALLDATALOAD PUSH1 0x0 MSTORE PUSH1 0x6 PUSH1 0x20 MSTORE PUSH1 0x20 PUSH1 0xFF PUSH1 0x40 PUSH1 0x0 KECCAK256 SLOAD AND PUSH1 0x40 MLOAD SWAP1 ISZERO ISZERO DUP2 MSTORE RETURN JUMPDEST SWAP1 POP CALLVALUE PUSH2 0x249 JUMPI PUSH1 0x20 CALLDATASIZE PUSH1 0x3 NOT ADD SLT PUSH2 0x249 JUMPI PUSH2 0x140 SWAP2 PUSH1 0x4 CALLDATALOAD PUSH1 0x0 MSTORE PUSH1 0x4 PUSH1 0x20 MSTORE PUSH1 0x40 PUSH1 0x0 KECCAK256 PUSH2 0x1974 DUP2 SLOAD SWAP3 PUSH1 0x1 DUP1 PUSH1 0xA0 SHL SUB PUSH1 0x1 DUP5 ADD SLOAD AND SWAP1 PUSH1 0x2 DUP5 ADD SLOAD PUSH1 0x3 DUP6 ADD SLOAD PUSH1 0x4 DUP7 ADD SLOAD PUSH1 0x5 DUP8 ADD SLOAD SWAP2 PUSH1 0x6 DUP9 ADD SLOAD SWAP4 PUSH1 0xFF PUSH1 0x7 DUP11 ADD SLOAD AND SWAP7 PUSH1 0x9 PUSH1 0x8 DUP12 ADD SLOAD SWAP11 ADD SLOAD SWAP11 DUP13 MSTORE PUSH1 0x20 DUP13 ADD MSTORE PUSH1 0x40 DUP12 ADD MSTORE PUSH1 0x60 DUP11 ADD MSTORE PUSH1 0x80 DUP10 ADD MSTORE PUSH1 0xA0 DUP9 ADD MSTORE PUSH1 0xC0 DUP8 ADD MSTORE DUP6 ADD SWAP1 PUSH2 0x1982 JUMP JUMPDEST PUSH2 0x100 DUP4 ADD MSTORE PUSH2 0x120 DUP3 ADD MSTORE RETURN JUMPDEST SWAP1 PUSH1 0x4 DUP3 LT ISZERO PUSH2 0x477 JUMPI MSTORE JUMP JUMPDEST PUSH1 0x4 CALLDATALOAD SWAP1 PUSH1 0x1 PUSH1 0x1 PUSH1 0xA0 SHL SUB DUP3 AND DUP3 SUB PUSH2 0x249 JUMPI JUMP JUMPDEST SWAP2 SWAP1 DUP3 MLOAD SWAP3 DUP4 DUP3 MSTORE PUSH1 0x0 JUMPDEST DUP5 DUP2 LT PUSH2 0x19D1 JUMPI POP POP DUP3 PUSH1 0x0 PUSH1 0x20 DUP1 SWAP5 SWAP6 DUP5 ADD ADD MSTORE PUSH1 0x1F DUP1 NOT SWAP2 ADD AND ADD ADD SWAP1 JUMP JUMPDEST PUSH1 0x20 DUP2 DUP4 ADD DUP2 ADD MLOAD DUP5 DUP4 ADD DUP3 ADD MSTORE ADD PUSH2 0x19B0 JUMP JUMPDEST PUSH2 0x140 DUP2 ADD SWAP1 DUP2 LT PUSH8 0xFFFFFFFFFFFFFFFF DUP3 GT OR PUSH2 0xF56 JUMPI PUSH1 0x40 MSTORE JUMP JUMPDEST PUSH2 0x120 DUP2 ADD SWAP1 DUP2 LT PUSH8 0xFFFFFFFFFFFFFFFF DUP3 GT OR PUSH2 0xF56 JUMPI PUSH1 0x40 MSTORE JUMP JUMPDEST SWAP1 PUSH1 0x1F DUP1 NOT SWAP2 ADD AND DUP2 ADD SWAP1 DUP2 LT PUSH8 0xFFFFFFFFFFFFFFFF DUP3 GT OR PUSH2 0xF56 JUMPI PUSH1 0x40 MSTORE JUMP JUMPDEST DUP1 SLOAD DUP3 LT ISZERO PUSH2 0x1A59 JUMPI PUSH1 0x0 MSTORE PUSH1 0x20 PUSH1 0x0 KECCAK256 ADD SWAP1 PUSH1 0x0 SWAP1 JUMP JUMPDEST PUSH4 0x4E487B71 PUSH1 0xE0 SHL PUSH1 0x0 MSTORE PUSH1 0x32 PUSH1 0x4 MSTORE PUSH1 0x24 PUSH1 0x0 REVERT JUMPDEST SWAP1 PUSH1 0x1 DUP3 DUP2 SHR SWAP3 AND DUP1 ISZERO PUSH2 0x1A9F JUMPI JUMPDEST PUSH1 0x20 DUP4 LT EQ PUSH2 0x1A89 JUMPI JUMP JUMPDEST PUSH4 0x4E487B71 PUSH1 0xE0 SHL PUSH1 0x0 MSTORE PUSH1 0x22 PUSH1 0x4 MSTORE PUSH1 0x24 PUSH1 0x0 REVERT JUMPDEST SWAP2 PUSH1 0x7F AND SWAP2 PUSH2 0x1A7E JUMP JUMPDEST SWAP1 PUSH1 0x40 MLOAD SWAP2 DUP3 PUSH1 0x0 DUP3 SLOAD SWAP3 PUSH2 0x1ABD DUP5 PUSH2 0x1A6F JUMP JUMPDEST SWAP1 DUP2 DUP5 MSTORE PUSH1 0x1 SWAP5 DUP6 DUP2 AND SWAP1 DUP2 PUSH1 0x0 EQ PUSH2 0x1B2C JUMPI POP PUSH1 0x1 EQ PUSH2 0x1AE9 JUMPI JUMPDEST POP POP PUSH2 0x1AE7 SWAP3 POP SUB DUP4 PUSH2 0x1A1F JUMP JUMPDEST JUMP JUMPDEST SWAP1 SWAP4 SWAP2 POP PUSH1 0x0 MSTORE PUSH1 0x20 SWAP1 DUP2 PUSH1 0x0 KECCAK256 SWAP4 PUSH1 0x0 SWAP2 JUMPDEST DUP2 DUP4 LT PUSH2 0x1B14 JUMPI POP POP PUSH2 0x1AE7 SWAP4 POP DUP3 ADD ADD CODESIZE DUP1 PUSH2 0x1AD9 JUMP JUMPDEST DUP6 SLOAD DUP9 DUP5 ADD DUP6 ADD MSTORE SWAP5 DUP6 ADD SWAP5 DUP8 SWAP5 POP SWAP2 DUP4 ADD SWAP2 PUSH2 0x1AFC JUMP JUMPDEST SWAP2 POP POP PUSH2 0x1AE7 SWAP5 POP PUSH1 0x20 SWAP3 POP PUSH1 0xFF NOT AND DUP3 DUP5 ADD MSTORE ISZERO ISZERO PUSH1 0x5 SHL DUP3 ADD ADD CODESIZE DUP1 PUSH2 0x1AD9 JUMP JUMPDEST PUSH1 0x0 SLOAD PUSH1 0x1 PUSH1 0x1 PUSH1 0xA0 SHL SUB AND CALLER SUB PUSH2 0x1B63 JUMPI JUMP JUMPDEST PUSH1 0x40 MLOAD PUSH4 0x118CDAA7 PUSH1 0xE0 SHL DUP2 MSTORE CALLER PUSH1 0x4 DUP3 ADD MSTORE PUSH1 0x24 SWAP1 REVERT JUMPDEST PUSH1 0x0 NOT DUP2 EQ PUSH2 0x670 JUMPI PUSH1 0x1 ADD SWAP1 JUMP JUMPDEST ISZERO PUSH2 0x1B91 JUMPI JUMP JUMPDEST PUSH1 0x40 MLOAD PUSH3 0x461BCD PUSH1 0xE5 SHL DUP2 MSTORE PUSH1 0x20 PUSH1 0x4 DUP3 ADD MSTORE PUSH1 0x1C PUSH1 0x24 DUP3 ADD MSTORE PUSH32 0x506C616365206465207061726B696E6720696E6578697374616E746500000000 PUSH1 0x44 DUP3 ADD MSTORE PUSH1 0x64 SWAP1 REVERT JUMPDEST SWAP2 SWAP1 DUP3 SUB SWAP2 DUP3 GT PUSH2 0x670 JUMPI JUMP JUMPDEST DUP2 DUP2 MUL SWAP3 SWAP2 DUP2 ISZERO SWAP2 DUP5 DIV EQ OR ISZERO PUSH2 0x670 JUMPI JUMP JUMPDEST PUSH1 0xFF PUSH1 0x2 SLOAD AND PUSH2 0x1C02 JUMPI JUMP JUMPDEST PUSH1 0x40 MLOAD PUSH4 0xD93C0665 PUSH1 0xE0 SHL DUP2 MSTORE PUSH1 0x4 SWAP1 REVERT JUMPDEST PUSH1 0x2 PUSH1 0x1 SLOAD EQ PUSH2 0x1C25 JUMPI PUSH1 0x2 PUSH1 0x1 SSTORE JUMP JUMPDEST PUSH1 0x40 MLOAD PUSH4 0x3EE5AEB5 PUSH1 0xE0 SHL DUP2 MSTORE PUSH1 0x4 SWAP1 REVERT JUMPDEST ISZERO PUSH2 0x1C3E JUMPI JUMP JUMPDEST PUSH1 0x40 MLOAD PUSH3 0x461BCD PUSH1 0xE5 SHL DUP2 MSTORE PUSH1 0x20 PUSH1 0x4 DUP3 ADD MSTORE PUSH1 0x29 PUSH1 0x24 DUP3 ADD MSTORE PUSH32 0x5365756C206C276F7261636C65207065757420617070656C6572206365747465 PUSH1 0x44 DUP3 ADD MSTORE PUSH9 0x103337B731BA34B7B7 PUSH1 0xB9 SHL PUSH1 0x64 DUP3 ADD MSTORE PUSH1 0x84 SWAP1 REVERT JUMPDEST ISZERO PUSH2 0x1C9C JUMPI JUMP JUMPDEST PUSH1 0x40 MLOAD PUSH3 0x461BCD PUSH1 0xE5 SHL DUP2 MSTORE PUSH1 0x20 PUSH1 0x4 DUP3 ADD MSTORE PUSH1 0x18 PUSH1 0x24 DUP3 ADD MSTORE PUSH32 0x52C3A9736572766174696F6E20696E6578697374616E74650000000000000000 PUSH1 0x44 DUP3 ADD MSTORE PUSH1 0x64 SWAP1 REVERT JUMPDEST ISZERO PUSH2 0x1CE8 JUMPI JUMP JUMPDEST PUSH1 0x40 MLOAD PUSH3 0x461BCD PUSH1 0xE5 SHL DUP2 MSTORE PUSH1 0x20 PUSH1 0x4 DUP3 ADD MSTORE PUSH1 0x17 PUSH1 0x24 DUP3 ADD MSTORE PUSH32 0x52C3A9736572766174696F6E206E6F6E20616374697665000000000000000000 PUSH1 0x44 DUP3 ADD MSTORE PUSH1 0x64 SWAP1 REVERT JUMPDEST SWAP2 SWAP1 DUP3 ADD DUP1 SWAP3 GT PUSH2 0x670 JUMPI JUMP INVALID LOG2 PUSH5 0x6970667358 0x22 SLT KECCAK256 PREVRANDAO SELFDESTRUCT SWAP15 PUSH26 0x433F8B11F2BC89235BDD962DBCC4913D8014370C77EDA5214C0F 0xBB SSTORE PUSH5 0x736F6C6343 STOP ADDMOD EQ STOP CALLER "},"methodIdentifiers":{"MAX_RESERVATION_TIME()":"68e344e9","MIN_RESERVATION_TIME()":"e1d250a1","cancelReservation(uint256)":"ae5e6cf4","completeReservation(uint256)":"6dea62c5","createParkingSpot(string,uint256)":"6c4dfc67","getParkingSpot(uint256)":"2fdc2f90","getReservation(uint256)":"d57763c3","getUserReservations(address)":"793087bd","nextReservationId()":"c70c26cd","nextSpotId()":"df97a56d","oracleAddress()":"a89ae4ba","owner()":"8da5cb5b","parkingSpots(uint256)":"f5defcd3","pause()":"8456cb59","paused()":"5c975abb","platformFeePercentage()":"cdd78cfc","renounceOwnership()":"715018a6","reservations(uint256)":"067cf832","reserveSpot(uint256,uint256,uint256)":"2325bbd8","spotExists(uint256)":"100bb533","startReservation(uint256)":"53407851","totalPlatformEarnings()":"bfa4c5c1","transferOwnership(address)":"f2fde38b","unpause()":"3f4ba83a","updateOracle(address)":"1cb44dfc","updatePlatformFee(uint256)":"aa0b5988","userReservations(address,uint256)":"c05b8e37","withdrawPlatformEarnings()":"9d182f0b"}}}}}