{"contracts/ParkingOracle.sol":{"ParkingOracle":{"abi":[{"inputs":[{"internalType":"address","name":"_parkingSystemContract","type":"address"}],"stateMutability":"nonpayable","type":"constructor"},{"inputs":[],"name":"EnforcedPause","type":"error"},{"inputs":[],"name":"ExpectedPause","type":"error"},{"inputs":[{"internalType":"address","name":"owner","type":"address"}],"name":"OwnableInvalidOwner","type":"error"},{"inputs":[{"internalType":"address","name":"account","type":"address"}],"name":"OwnableUnauthorizedAccount","type":"error"},{"anonymous":false,"inputs":[{"indexed":true,"internalType":"address","name":"oracle","type":"address"},{"indexed":false,"internalType":"uint256","name":"spotId","type":"uint256"},{"indexed":false,"internalType":"string","name":"reason","type":"string"}],"name":"DataValidationFailed","type":"event"},{"anonymous":false,"inputs":[{"indexed":true,"internalType":"address","name":"nodeAddress","type":"address"},{"indexed":false,"internalType":"string","name":"nodeId","type":"string"}],"name":"OracleNodeAdded","type":"event"},{"anonymous":false,"inputs":[{"indexed":true,"internalType":"address","name":"nodeAddress","type":"address"}],"name":"OracleNodeRemoved","type":"event"},{"anonymous":false,"inputs":[{"indexed":true,"internalType":"address","name":"nodeAddress","type":"address"},{"indexed":false,"internalType":"bool","name":"isActive","type":"bool"},{"indexed":false,"internalType":"uint256","name":"reputation","type":"uint256"}],"name":"OracleNodeUpdated","type":"event"},{"anonymous":false,"inputs":[{"indexed":true,"internalType":"address","name":"previousOwner","type":"address"},{"indexed":true,"internalType":"address","name":"newOwner","type":"address"}],"name":"OwnershipTransferred","type":"event"},{"anonymous":false,"inputs":[{"indexed":false,"internalType":"address","name":"newContract","type":"address"}],"name":"ParkingSystemUpdated","type":"event"},{"anonymous":false,"inputs":[{"indexed":false,"internalType":"address","name":"account","type":"address"}],"name":"Paused","type":"event"},{"anonymous":false,"inputs":[{"indexed":true,"internalType":"uint256","name":"spotId","type":"uint256"},{"indexed":false,"internalType":"bool","name":"isOccupied","type":"bool"},{"indexed":false,"internalType":"uint256","name":"confidence","type":"uint256"},{"indexed":true,"internalType":"address","name":"oracle","type":"address"},{"indexed":false,"internalType":"string","name":"sensorType","type":"string"}],"name":"SensorDataUpdated","type":"event"},{"anonymous":false,"inputs":[{"indexed":false,"internalType":"address","name":"account","type":"address"}],"name":"Unpaused","type":"event"},{"inputs":[],"name":"MAX_HISTORY_SIZE","outputs":[{"internalType":"uint256","name":"","type":"uint256"}],"stateMutability":"view","type":"function"},{"inputs":[],"name":"MIN_CONFIDENCE","outputs":[{"internalType":"uint256","name":"","type":"uint256"}],"stateMutability":"view","type":"function"},{"inputs":[],"name":"UPDATE_COOLDOWN","outputs":[{"internalType":"uint256","name":"","type":"uint256"}],"stateMutability":"view","type":"function"},{"inputs":[{"internalType":"uint256","name":"","type":"uint256"}],"name":"activeOracles","outputs":[{"internalType":"address","name":"","type":"address"}],"stateMutability":"view","type":"function"},{"inputs":[{"internalType":"address","name":"_nodeAddress","type":"address"},{"internalType":"string","name":"_nodeId","type":"string"}],"name":"addOracleNode","outputs":[],"stateMutability":"nonpayable","type":"function"},{"inputs":[],"name":"getActiveOracles","outputs":[{"internalType":"address[]","name":"","type":"address[]"}],"stateMutability":"view","type":"function"},{"inputs":[{"internalType":"uint256","name":"_spotId","type":"uint256"}],"name":"getLatestSensorData","outputs":[{"components":[{"internalType":"uint256","name":"spotId","type":"uint256"},{"internalType":"bool","name":"isOccupied","type":"bool"},{"internalType":"uint256","name":"confidence","type":"uint256"},{"internalType":"uint256","name":"timestamp","type":"uint256"},{"internalType":"string","name":"sensorType","type":"string"},{"internalType":"bytes32","name":"dataHash","type":"bytes32"}],"internalType":"struct ParkingOracle.SensorData","name":"","type":"tuple"}],"stateMutability":"view","type":"function"},{"inputs":[{"internalType":"address","name":"_oracle","type":"address"}],"name":"getOracleNode","outputs":[{"components":[{"internalType":"address","name":"nodeAddress","type":"address"},{"internalType":"bool","name":"isActive","type":"bool"},{"internalType":"uint256","name":"reputation","type":"uint256"},{"internalType":"uint256","name":"totalUpdates","type":"uint256"},{"internalType":"uint256","name":"lastUpdate","type":"uint256"},{"internalType":"string","name":"nodeId","type":"string"}],"internalType":"struct ParkingOracle.OracleNode","name":"","type":"tuple"}],"stateMutability":"view","type":"function"},{"inputs":[{"internalType":"uint256","name":"_spotId","type":"uint256"}],"name":"getSensorHistory","outputs":[{"components":[{"internalType":"uint256","name":"spotId","type":"uint256"},{"internalType":"bool","name":"isOccupied","type":"bool"},{"internalType":"uint256","name":"confidence","type":"uint256"},{"internalType":"uint256","name":"timestamp","type":"uint256"},{"internalType":"string","name":"sensorType","type":"string"},{"internalType":"bytes32","name":"dataHash","type":"bytes32"}],"internalType":"struct ParkingOracle.SensorData[]","name":"","type":"tuple[]"}],"stateMutability":"view","type":"function"},{"inputs":[{"internalType":"uint256","name":"","type":"uint256"}],"name":"latestSensorData","outputs":[{"internalType":"uint256","name":"spotId","type":"uint256"},{"internalType":"bool","name":"isOccupied","type":"bool"},{"internalType":"uint256","name":"confidence","type":"uint256"},{"internalType":"uint256","name":"timestamp","type":"uint256"},{"internalType":"string","name":"sensorType","type":"string"},{"internalType":"bytes32","name":"dataHash","type":"bytes32"}],"stateMutability":"view","type":"function"},{"inputs":[{"internalType":"address","name":"","type":"address"}],"name":"oracleNodes","outputs":[{"internalType":"address","name":"nodeAddress","type":"address"},{"internalType":"bool","name":"isActive","type":"bool"},{"internalType":"uint256","name":"reputation","type":"uint256"},{"internalType":"uint256","name":"totalUpdates","type":"uint256"},{"internalType":"uint256","name":"lastUpdate","type":"uint256"},{"internalType":"string","name":"nodeId","type":"string"}],"stateMutability":"view","type":"function"},{"inputs":[],"name":"owner","outputs":[{"internalType":"address","name":"","type":"address"}],"stateMutability":"view","type":"function"},{"inputs":[],"name":"parkingSystemContract","outputs":[{"internalType":"address","name":"","type":"address"}],"stateMutability":"view","type":"function"},{"inputs":[],"name":"pause","outputs":[],"stateMutability":"nonpayable","type":"function"},{"inputs":[],"name":"paused","outputs":[{"internalType":"bool","name":"","type":"bool"}],"stateMutability":"view","type":"function"},{"inputs":[{"internalType":"bytes32","name":"","type":"bytes32"}],"name":"processedDataHashes","outputs":[{"internalType":"bool","name":"","type":"bool"}],"stateMutability":"view","type":"function"},{"inputs":[{"internalType":"address","name":"_nodeAddress","type":"address"}],"name":"removeOracleNode","outputs":[],"stateMutability":"nonpayable","type":"function"},{"inputs":[],"name":"renounceOwnership","outputs":[],"stateMutability":"nonpayable","type":"function"},{"inputs":[{"internalType":"uint256","name":"","type":"uint256"},{"internalType":"uint256","name":"","type":"uint256"}],"name":"sensorHistory","outputs":[{"internalType":"uint256","name":"spotId","type":"uint256"},{"internalType":"bool","name":"isOccupied","type":"bool"},{"internalType":"uint256","name":"confidence","type":"uint256"},{"internalType":"uint256","name":"timestamp","type":"uint256"},{"internalType":"string","name":"sensorType","type":"string"},{"internalType":"bytes32","name":"dataHash","type":"bytes32"}],"stateMutability":"view","type":"function"},{"inputs":[{"internalType":"address","name":"newOwner","type":"address"}],"name":"transferOwnership","outputs":[],"stateMutability":"nonpayable","type":"function"},{"inputs":[],"name":"unpause","outputs":[],"stateMutability":"nonpayable","type":"function"},{"inputs":[{"internalType":"address","name":"_oracle","type":"address"},{"internalType":"uint256","name":"_newReputation","type":"uint256"}],"name":"updateOracleReputation","outputs":[],"stateMutability":"nonpayable","type":"function"},{"inputs":[{"internalType":"address","name":"_newContract","type":"address"}],"name":"updateParkingSystemContract","outputs":[],"stateMutability":"nonpayable","type":"function"},{"inputs":[{"internalType":"uint256","name":"_spotId","type":"uint256"},{"internalType":"bool","name":"_isOccupied","type":"bool"},{"internalType":"uint256","name":"_confidence","type":"uint256"},{"internalType":"string","name":"_sensorType","type":"string"},{"internalType":"bytes32","name":"_dataHash","type":"bytes32"}],"name":"updateSensorData","outputs":[],"stateMutability":"nonpayable","type":"function"}],"evm":{"bytecode":{"linkReferences":{},"object":"6080346100c657601f611c9538819003918201601f19168301916001600160401b038311848410176100cb578084926020946040528339810103126100c657516001600160a01b0390818116908190036100c65733156100ad5760005460018060a01b0319903382821617600055604051933391167f8be0079c531659141344cd1fd0a4f28419497f9722a3daafe3b4186f6b6457e0600080a36006541617600655611bb390816100e28239f35b604051631e4fbdf760e01b815260006004820152602490fd5b600080fd5b634e487b7160e01b600052604160045260246000fdfe6040608081526004908136101561001557600080fd5b600091823560e01c806314dfe91214610f27578063158906aa14610ec057806325f2948d14610d595780632849463e14610cd15780633f4ba83a14610c6457806341f9375714610c4857806346faa48a14610c1d5780635c975abb14610bf8578063633cb8d614610bb25780636a63c650146109465780636ccaa94614610881578063715018a6146108275780638456cb59146107c857806388e83760146106d65780638da5cb5b146106ae5780639d5739e714610692578063b375afb5146105a1578063c106625114610585578063d72c348f14610511578063dd4c1b8d1461036b578063e4c90491146102f5578063e8e09990146102c8578063f2244d24146101b25763f2fde38b1461012957600080fd5b346101ae5760203660031901126101ae576101426110ee565b9061014b611236565b6001600160a01b0391821692831561019857505082546001600160a01b0319811683178455167f8be0079c531659141344cd1fd0a4f28419497f9722a3daafe3b4186f6b6457e08380a380f35b51631e4fbdf760e01b8152908101849052602490fd5b8280fd5b5090346101ae57806003193601126101ae576101cc6110ee565b91602435906101d9611236565b6103e88211610285576001600160a01b039384168086526001602052838620549094161561024e5750907f05c94d32adee4293c1c37c84faba6cc59b08a03079b3736c3fb8f1638232a05791838552600160205260ff8286208260018201555460a01c1690825191151582526020820152a280f35b606490602084519162461bcd60e51b8352820152601160248201527013dc9858db19481a5b995e1a5cdd185b9d607a1b6044820152fd5b606490602084519162461bcd60e51b8352820152601960248201527f52c3a97075746174696f6e206d6178696d616c652031303030000000000000006044820152fd5b5050346102f157816003193601126102f15760065490516001600160a01b039091168152602090f35b5080fd5b5050346102f15760203660031901126102f15760207f83048e2b1c148798abbdcd7fc5c618ae620d983f2d04445b4a3d65332ae7e92d916103346110ee565b61033c611236565b6001600160a01b031690610351821515611262565b600680546001600160a01b0319168317905551908152a180f35b50346101ae5760203660031901126101ae576103856110ee565b61038d611236565b60018060a01b03809116918285526001938460205260ff8187205460a01c16156104db5783865260208590528520805460ff60a01b1916905584845b6103f7575b85847f69c51e6934c7e0a7856e09a188ca387c2117bbe5c65c85321ae46452e11497f88280a280f35b60058054808310156104d4579084918661041085610f67565b949054600395861b1c16146104315750505061042b906112fd565b846103c9565b9290949391959650600019928381019081116104c157906104658561045861048494610f67565b9054908a1b1c1691610f67565b90919082549060031b9160018060a01b03809116831b921b1916179055565b83549081156104ae5750019261049984610f67565b81939154921b1b1916905555803880806103ce565b634e487b7160e01b885260319052602487fd5b634e487b7160e01b895260118352602489fd5b50506103ce565b906020606492519162461bcd60e51b8352820152601060248201526f27b930b1b632903737b71030b1ba34b360811b6044820152fd5b50913461058257816003193601126105825760243590833581526003602052828120908154831015610582575061057e9161054b9161121a565b509182549260ff6001820154169460028201546005610570600385015493850161113e565b9301549351968796876111e4565b0390f35b80fd5b5050346102f157816003193601126102f1576020905160648152f35b50346101ae5760208060031936011261068e5761057e91836105c16110ee565b95606060a083516105d18161103e565b838152838782015283858201528383820152836080820152015260018060a01b0380971681526001845220908451946106098661103e565b825490878216875260ff8588019260a01c161515825260018401549181880192835261064e60028601549460608a0195865260038701549660808b019788520161113e565b9560a089019687528251998a99828b52511690890152511515908701525160608601525160808501525160a08401525160c08084015260e0830190610fb4565b8380fd5b5050346102f157816003193601126102f15760209051601e8152f35b5050346102f157816003193601126102f157905490516001600160a01b039091168152602090f35b508290346102f157602090816003193601126101ae5780358352600382528383209182549167ffffffffffffffff83116107b55750929084519061071f858260051b0183611070565b8082528482018094845285842084915b83831061079057505050508451938085019181865251809252858501958260051b8601019392955b8287106107645785850386f35b909192938280610780600193603f198a82030186528851610ff4565b9601920196019592919092610757565b6006886001926107a3859b98999b611a86565b8152019201920191909694939661072f565b634e487b7160e01b855260419052602484fd5b5050346102f157816003193601126102f15760207f62e78cea01bee320cd4e420270b5ea74000d11b0c9f74754ebdbfc544b05a25891610806611236565b61080e611a65565b835460ff60a01b1916600160a01b17845551338152a180f35b8334610582578060031936011261058257610840611236565b80546001600160a01b03198116825581906001600160a01b03167f8be0079c531659141344cd1fd0a4f28419497f9722a3daafe3b4186f6b6457e08280a380f35b8284346105825780600319360112610582579080519182906005549182855260208095018093600584527f036b6384b5eca791c62761152d0c79bb0604c104a5fb6f4eb0703f3154bb3db090845b81811061092957505050816108e5910382611070565b83519485948186019282875251809352850193925b82811061090957505050500390f35b83516001600160a01b0316855286955093810193928101926001016108fa565b82546001600160a01b0316845292880192600192830192016108cf565b509190346102f157806003193601126102f1576109616110ee565b67ffffffffffffffff9190602435838111610bae576109839036908701611092565b9161098c611236565b6001600160a01b03828116949092906109a6861515611262565b85875260019060209482865260ff858a205460a01c16610b75579089879289888c8951936109d38561103e565b838552828501908982528b808701936101f485528b606089019682885260808a0198838a5260a08b019d8e528352522095511685549160ff60a01b9051151560a01b16916affffffffffffffffffffff60a81b161717845551878401555160028301555160038201550191518051918211610b62578190610a5e82610a588654611104565b866112b8565b8790601f8311600114610b03578b92610af8575b5050600019600383901b1c191690831b1790555b60055490600160401b821015610ae557610adf9261046583610ad0937fca2fda65e4ce906eedaca6f32bbfb3bf0b3781de9d7b093e127293f1b9e19ad29998979501600555610f67565b51928284938452830190610fb4565b0390a280f35b634e487b7160e01b885260418952602488fd5b015190503880610a72565b848c52888c208694509190601f1984168d5b8b828210610b4c5750508411610b33575b505050811b019055610a86565b015160001960f88460031b161c19169055388080610b26565b8385015186558997909501949384019301610b15565b634e487b7160e01b8a5260418b5260248afd5b845162461bcd60e51b8152808b01879052601360248201527227b930b1b632903261d4b561d01030b1ba34b360691b6044820152606490fd5b8480fd5b509134610582576020366003190112610582578161057e91843581526002602052209182549260ff6001820154169460028201546005610570600385015493850161113e565b5050346102f157816003193601126102f15760ff6020925460a01c1690519015158152f35b50346101ae5760203660031901126101ae57816020938260ff93358252855220541690519015158152f35b5050346102f157816003193601126102f1576020905160468152f35b50346101ae57826003193601126101ae57610c7d611236565b82549060ff8260a01c1615610cc3575060ff60a01b19168255513381527f5db9ee0a495bf2e6ff9c91a7834c1ba4fdd244a5e8aa4e537bd38aeae4b073aa90602090a180f35b8251638dfc202b60e01b8152fd5b509190346102f15760203660031901126102f1576001600160a01b039161057e9190819084610cfe6110ee565b1681526001602052208054946001820154610d246002840154926003850154940161113e565b9360ff81519889988116895260a01c16151560208801528601526060850152608084015260c060a084015260c0830190610fb4565b508290346102f15760a03660031901126102f157602435908035821515830361068e5760643567ffffffffffffffff8111610bae57610d9b9036908401611092565b91338552600160205260ff8686205460a01c1615610e8357610dbb611a65565b8115610e4957818552600260205260038686200154601e8101809111610e36574210610df85750610df59394506084359260443591611517565b80f35b855162461bcd60e51b81526020918101919091526015602482015274436f6f6c646f776e206e6f6e20c3a9636f756cc3a960581b6044820152606490fd5b634e487b7160e01b865260118252602486fd5b606490602087519162461bcd60e51b83528201526014602482015273494420646520706c61636520696e76616c69646560601b6044820152fd5b855162461bcd60e51b815260209181019190915260146024820152734f7261636c65206e6f6e206175746f726973c3a960601b6044820152606490fd5b50346101ae5760203660031901126101ae578183610f149261057e9560a08451610ee98161103e565b8281528260208201528286820152826060820152606060808201520152358152600260205220611a86565b9051918291602083526020830190610ff4565b50346101ae5760203660031901126101ae5735916005548310156105825750610f51602092610f67565b905491519160018060a01b039160031b1c168152f35b600554811015610f9e5760056000527f036b6384b5eca791c62761152d0c79bb0604c104a5fb6f4eb0703f3154bb3db00190600090565b634e487b7160e01b600052603260045260246000fd5b919082519283825260005b848110610fe0575050826000602080949584010152601f8019910116010190565b602081830181015184830182015201610fbf565b9081518152602082015115156020820152604082015160408201526060820151606082015260a080611035608085015160c0608086015260c0850190610fb4565b93015191015290565b60c0810190811067ffffffffffffffff82111761105a57604052565b634e487b7160e01b600052604160045260246000fd5b90601f8019910116810190811067ffffffffffffffff82111761105a57604052565b81601f820112156110e95780359067ffffffffffffffff821161105a57604051926110c7601f8401601f191660200185611070565b828452602083830101116110e957816000926020809301838601378301015290565b600080fd5b600435906001600160a01b03821682036110e957565b90600182811c92168015611134575b602083101461111e57565b634e487b7160e01b600052602260045260246000fd5b91607f1691611113565b906040519182600082549261115284611104565b9081845260019485811690816000146111c1575060011461117e575b505061117c92500383611070565b565b9093915060005260209081600020936000915b8183106111a957505061117c9350820101388061116e565b85548884018501529485019487945091830191611191565b91505061117c94506020925060ff191682840152151560051b820101388061116e565b96959491926112159360a095928952151560208901526040880152606087015260c0608087015260c0860190610fb4565b930152565b8054821015610f9e576000526006602060002091020190600090565b6000546001600160a01b0316330361124a57565b60405163118cdaa760e01b8152336004820152602490fd5b1561126957565b60405162461bcd60e51b815260206004820152601060248201526f4164726573736520696e76616c69646560801b6044820152606490fd5b8181106112ac575050565b600081556001016112a1565b9190601f81116112c757505050565b61117c926000526020600020906020601f840160051c830193106112f3575b601f0160051c01906112a1565b90915081906112e6565b600019811461130c5760010190565b634e487b7160e01b600052601160045260246000fd5b90805182556020908181015115159161134b6001938486019060ff801983541691151516179055565b6040820151600285015560608201516003850155600484019060808301519384519167ffffffffffffffff831161105a5761138a83610a588654611104565b80601f84116001146113cf57509180809260a09695946005986000946113c4575b50501b916000199060031b1c19161790555b0151910155565b0151925038806113ab565b91939495601f1984168660005283600020936000905b828210611427575050916005979593918560a09896941061140e575b505050811b0190556113bd565b015160001960f88460031b161c19169055388080611401565b8088869782949787015181550196019401906113e5565b90808214611513576114508154611104565b9067ffffffffffffffff821161105a57819061147082610a588654611104565b600090601f83116001146114a75760009261149c575b50508160011b916000199060031b1c1916179055565b015490503880611486565b81526020808220858352818320935090601f1985169083905b8282106114fa5750509084600195949392106114e1575b505050811b019055565b015460001960f88460031b161c191690553880806114d7565b84958192958501548155600180910196019401906114c0565b5050565b9293909160468110611a275760009180835260049260209184835260ff6040958187852054166119e4578951156119a85761155386898b611ad8565b156118b0578651976115648961103e565b898952151597888682015286888201524260608201528a60808201528360a082015289855260029384875261159b828a8820611322565b8552818652878520926001938460ff198254161790558a8652600391828852898720805490600160401b82101561189d57906115db91878201815561121a565b61177b57906115e991611322565b8a8652818752606489872054116116d8575b503385528286528785209084820161161381546112fd565b9055429101553384528185528187852001908154926103e8841061168f575b505050509161166e85837fac4634ca5286739c54037a07039ee401bf71958ef4935f8a30320654d77b9f699897958a6060989652845220611a86565b5082519485528401528201528061168a33956060830190610fb4565b0390a3565b83018093116116c557505561166e85837fac4634ca5286739c54037a07039ee401bf71958ef4935f8a30320654d77b9f69611632565b634e487b7160e01b855260119052602484fd5b85845b6117a0575b50508985528086528785208054801561178d576000190190611702828261121a565b61177b57600581898093558288820155828982015582868201558287820161172a8154611104565b8d8161173e575b50505050015555386115fb565b8390601f831160011461175957505050555b8238808d611731565b838252812092909161177490601f01871c84018d85016112a1565b5555611750565b634e487b7160e01b8852878552602488fd5b634e487b7160e01b875260318452602487fd5b8b875282885289872054606319810190811161188a57811015611885578b87528288528987208582019081831161187257906117db9161121a565b508c88528389526117ee828c8a2061121a565b91909161186057918183889461180b9403611811575b50506112fd565b906116db565b805482556118328686830154168684019060ff801983541691151516179055565b898101548a830155868101548783015561185088820189840161143e565b6005809101549101553880611804565b634e487b7160e01b8952888652602489fd5b634e487b7160e01b895260118652602489fd5b6116e0565b634e487b7160e01b885260118552602488fd5b634e487b7160e01b895260418652602489fd5b97945050509550918093505190815282828201526014838201527356616c69646174696f6e20c3a963686f75c3a96560601b60608201527f724f763ee9b5399456749deaa2b97e77734eb884af0c88926c6e5d532850b31b60803392a233845260018152818420926001840190815490600a821161197f575b505054906064821061193d575b5050505050565b7f05c94d32adee4293c1c37c84faba6cc59b08a03079b3736c3fb8f1638232a0579360ff60a01b19815416905582519485528401523392a23880808080611936565b6009198201918211611995575081553880611929565b634e487b7160e01b875260119052602486fd5b865162461bcd60e51b815290810185905260166024820152755479706520646520636170746575722072657175697360501b6044820152606490fd5b865162461bcd60e51b8152908101859052601960248201527f446f6e6ec3a965732064c3a96ac3a0207472616974c3a96573000000000000006044820152606490fd5b60405162461bcd60e51b8152602060048201526016602482015275436f6e6669616e636520696e737566666973616e746560501b6044820152606490fd5b60ff60005460a01c16611a7457565b60405163d93c066560e01b8152600490fd5b90604051611a938161103e565b60a0600582948054845260ff600182015416151560208501526002810154604085015260038101546060850152611acc6004820161113e565b60808501520154910152565b91604681108015611b73575b611b6b5760009283526002602052611afe60408420611a86565b9160608301519283611b15575b5050505050600190565b60200151151590151514159081611b60575b50611b5c574203428111611b4857601e11611b455780808080611b0b565b90565b634e487b7160e01b82526011600452602482fd5b5090565b605091501038611b27565b505050600090565b5060648111611ae456fea2646970667358221220087e9ec9fe68979630c529942629bd8596042a07d3ccae25297c74382a54f09c64736f6c63430008140033","opcodes":"PUSH1 0x80 CALLVALUE PUSH2 0xC6 JUMPI PUSH1 0x1F PUSH2 0x1C95 CODESIZE DUP2 SWAP1 SUB SWAP2 DUP3 ADD PUSH1 0x1F NOT AND DUP4 ADD SWAP2 PUSH1 0x1 PUSH1 0x1 PUSH1 0x40 SHL SUB DUP4 GT DUP5 DUP5 LT OR PUSH2 0xCB JUMPI DUP1 DUP5 SWAP3 PUSH1 0x20 SWAP5 PUSH1 0x40 MSTORE DUP4 CODECOPY DUP2 ADD SUB SLT PUSH2 0xC6 JUMPI MLOAD PUSH1 0x1 PUSH1 0x1 PUSH1 0xA0 SHL SUB SWAP1 DUP2 DUP2 AND SWAP1 DUP2 SWAP1 SUB PUSH2 0xC6 JUMPI CALLER ISZERO PUSH2 0xAD JUMPI PUSH1 0x0 SLOAD PUSH1 0x1 DUP1 PUSH1 0xA0 SHL SUB NOT SWAP1 CALLER DUP3 DUP3 AND OR PUSH1 0x0 SSTORE PUSH1 0x40 MLOAD SWAP4 CALLER SWAP2 AND PUSH32 0x8BE0079C531659141344CD1FD0A4F28419497F9722A3DAAFE3B4186F6B6457E0 PUSH1 0x0 DUP1 LOG3 PUSH1 0x6 SLOAD AND OR PUSH1 0x6 SSTORE PUSH2 0x1BB3 SWAP1 DUP2 PUSH2 0xE2 DUP3 CODECOPY RETURN JUMPDEST PUSH1 0x40 MLOAD PUSH4 0x1E4FBDF7 PUSH1 0xE0 SHL DUP2 MSTORE PUSH1 0x0 PUSH1 0x4 DUP3 ADD MSTORE PUSH1 0x24 SWAP1 REVERT JUMPDEST PUSH1 0x0 DUP1 REVERT JUMPDEST PUSH4 0x4E487B71 PUSH1 0xE0 SHL PUSH1 0x0 MSTORE PUSH1 0x41 PUSH1 0x4 MSTORE PUSH1 0x24 PUSH1 0x0 REVERT INVALID PUSH1 0x40 PUSH1 0x80 DUP2 MSTORE PUSH1 0x4 SWAP1 DUP2 CALLDATASIZE LT ISZERO PUSH2 0x15 JUMPI PUSH1 0x0 DUP1 REVERT JUMPDEST PUSH1 0x0 SWAP2 DUP3 CALLDATALOAD PUSH1 0xE0 SHR DUP1 PUSH4 0x14DFE912 EQ PUSH2 0xF27 JUMPI DUP1 PUSH4 0x158906AA EQ PUSH2 0xEC0 JUMPI DUP1 PUSH4 0x25F2948D EQ PUSH2 0xD59 JUMPI DUP1 PUSH4 0x2849463E EQ PUSH2 0xCD1 JUMPI DUP1 PUSH4 0x3F4BA83A EQ PUSH2 0xC64 JUMPI DUP1 PUSH4 0x41F93757 EQ PUSH2 0xC48 JUMPI DUP1 PUSH4 0x46FAA48A EQ PUSH2 0xC1D JUMPI DUP1 PUSH4 0x5C975ABB EQ PUSH2 0xBF8 JUMPI DUP1 PUSH4 0x633CB8D6 EQ PUSH2 0xBB2 JUMPI DUP1 PUSH4 0x6A63C650 EQ PUSH2 0x946 JUMPI DUP1 PUSH4 0x6CCAA946 EQ PUSH2 0x881 JUMPI DUP1 PUSH4 0x715018A6 EQ PUSH2 0x827 JUMPI DUP1 PUSH4 0x8456CB59 EQ PUSH2 0x7C8 JUMPI DUP1 PUSH4 0x88E83760 EQ PUSH2 0x6D6 JUMPI DUP1 PUSH4 0x8DA5CB5B EQ PUSH2 0x6AE JUMPI DUP1 PUSH4 0x9D5739E7 EQ PUSH2 0x692 JUMPI DUP1 PUSH4 0xB375AFB5 EQ PUSH2 0x5A1 JUMPI DUP1 PUSH4 0xC1066251 EQ PUSH2 0x585 JUMPI DUP1 PUSH4 0xD72C348F EQ PUSH2 0x511 JUMPI DUP1 PUSH4 0xDD4C1B8D EQ PUSH2 0x36B JUMPI DUP1 PUSH4 0xE4C90491 EQ PUSH2 0x2F5 JUMPI DUP1 PUSH4 0xE8E09990 EQ PUSH2 0x2C8 JUMPI DUP1 PUSH4 0xF2244D24 EQ PUSH2 0x1B2 JUMPI PUSH4 0xF2FDE38B EQ PUSH2 0x129 JUMPI PUSH1 0x0 DUP1 REVERT JUMPDEST CALLVALUE PUSH2 0x1AE JUMPI PUSH1 0x20 CALLDATASIZE PUSH1 0x3 NOT ADD SLT PUSH2 0x1AE JUMPI PUSH2 0x142 PUSH2 0x10EE JUMP JUMPDEST SWAP1 PUSH2 0x14B PUSH2 0x1236 JUMP JUMPDEST PUSH1 0x1 PUSH1 0x1 PUSH1 0xA0 SHL SUB SWAP2 DUP3 AND SWAP3 DUP4 ISZERO PUSH2 0x198 JUMPI POP POP DUP3 SLOAD PUSH1 0x1 PUSH1 0x1 PUSH1 0xA0 SHL SUB NOT DUP2 AND DUP4 OR DUP5 SSTORE AND PUSH32 0x8BE0079C531659141344CD1FD0A4F28419497F9722A3DAAFE3B4186F6B6457E0 DUP4 DUP1 LOG3 DUP1 RETURN JUMPDEST MLOAD PUSH4 0x1E4FBDF7 PUSH1 0xE0 SHL DUP2 MSTORE SWAP1 DUP2 ADD DUP5 SWAP1 MSTORE PUSH1 0x24 SWAP1 REVERT JUMPDEST DUP3 DUP1 REVERT JUMPDEST POP SWAP1 CALLVALUE PUSH2 0x1AE JUMPI DUP1 PUSH1 0x3 NOT CALLDATASIZE ADD SLT PUSH2 0x1AE JUMPI PUSH2 0x1CC PUSH2 0x10EE JUMP JUMPDEST SWAP2 PUSH1 0x24 CALLDATALOAD SWAP1 PUSH2 0x1D9 PUSH2 0x1236 JUMP JUMPDEST PUSH2 0x3E8 DUP3 GT PUSH2 0x285 JUMPI PUSH1 0x1 PUSH1 0x1 PUSH1 0xA0 SHL SUB SWAP4 DUP5 AND DUP1 DUP7 MSTORE PUSH1 0x1 PUSH1 0x20 MSTORE DUP4 DUP7 KECCAK256 SLOAD SWAP1 SWAP5 AND ISZERO PUSH2 0x24E JUMPI POP SWAP1 PUSH32 0x5C94D32ADEE4293C1C37C84FABA6CC59B08A03079B3736C3FB8F1638232A057 SWAP2 DUP4 DUP6 MSTORE PUSH1 0x1 PUSH1 0x20 MSTORE PUSH1 0xFF DUP3 DUP7 KECCAK256 DUP3 PUSH1 0x1 DUP3 ADD SSTORE SLOAD PUSH1 0xA0 SHR AND SWAP1 DUP3 MLOAD SWAP2 ISZERO ISZERO DUP3 MSTORE PUSH1 0x20 DUP3 ADD MSTORE LOG2 DUP1 RETURN JUMPDEST PUSH1 0x64 SWAP1 PUSH1 0x20 DUP5 MLOAD SWAP2 PUSH3 0x461BCD PUSH1 0xE5 SHL DUP4 MSTORE DUP3 ADD MSTORE PUSH1 0x11 PUSH1 0x24 DUP3 ADD MSTORE PUSH17 0x13DC9858DB19481A5B995E1A5CDD185B9D PUSH1 0x7A SHL PUSH1 0x44 DUP3 ADD MSTORE REVERT JUMPDEST PUSH1 0x64 SWAP1 PUSH1 0x20 DUP5 MLOAD SWAP2 PUSH3 0x461BCD PUSH1 0xE5 SHL DUP4 MSTORE DUP3 ADD MSTORE PUSH1 0x19 PUSH1 0x24 DUP3 ADD MSTORE PUSH32 0x52C3A97075746174696F6E206D6178696D616C65203130303000000000000000 PUSH1 0x44 DUP3 ADD MSTORE REVERT JUMPDEST POP POP CALLVALUE PUSH2 0x2F1 JUMPI DUP2 PUSH1 0x3 NOT CALLDATASIZE ADD SLT PUSH2 0x2F1 JUMPI PUSH1 0x6 SLOAD SWAP1 MLOAD PUSH1 0x1 PUSH1 0x1 PUSH1 0xA0 SHL SUB SWAP1 SWAP2 AND DUP2 MSTORE PUSH1 0x20 SWAP1 RETURN JUMPDEST POP DUP1 REVERT JUMPDEST POP POP CALLVALUE PUSH2 0x2F1 JUMPI PUSH1 0x20 CALLDATASIZE PUSH1 0x3 NOT ADD SLT PUSH2 0x2F1 JUMPI PUSH1 0x20 PUSH32 0x83048E2B1C148798ABBDCD7FC5C618AE620D983F2D04445B4A3D65332AE7E92D SWAP2 PUSH2 0x334 PUSH2 0x10EE JUMP JUMPDEST PUSH2 0x33C PUSH2 0x1236 JUMP JUMPDEST PUSH1 0x1 PUSH1 0x1 PUSH1 0xA0 SHL SUB AND SWAP1 PUSH2 0x351 DUP3 ISZERO ISZERO PUSH2 0x1262 JUMP JUMPDEST PUSH1 0x6 DUP1 SLOAD PUSH1 0x1 PUSH1 0x1 PUSH1 0xA0 SHL SUB NOT AND DUP4 OR SWAP1 SSTORE MLOAD SWAP1 DUP2 MSTORE LOG1 DUP1 RETURN JUMPDEST POP CALLVALUE PUSH2 0x1AE JUMPI PUSH1 0x20 CALLDATASIZE PUSH1 0x3 NOT ADD SLT PUSH2 0x1AE JUMPI PUSH2 0x385 PUSH2 0x10EE JUMP JUMPDEST PUSH2 0x38D PUSH2 0x1236 JUMP JUMPDEST PUSH1 0x1 DUP1 PUSH1 0xA0 SHL SUB DUP1 SWAP2 AND SWAP2 DUP3 DUP6 MSTORE PUSH1 0x1 SWAP4 DUP5 PUSH1 0x20 MSTORE PUSH1 0xFF DUP2 DUP8 KECCAK256 SLOAD PUSH1 0xA0 SHR AND ISZERO PUSH2 0x4DB JUMPI DUP4 DUP7 MSTORE PUSH1 0x20 DUP6 SWAP1 MSTORE DUP6 KECCAK256 DUP1 SLOAD PUSH1 0xFF PUSH1 0xA0 SHL NOT AND SWAP1 SSTORE DUP5 DUP5 JUMPDEST PUSH2 0x3F7 JUMPI JUMPDEST DUP6 DUP5 PUSH32 0x69C51E6934C7E0A7856E09A188CA387C2117BBE5C65C85321AE46452E11497F8 DUP3 DUP1 LOG2 DUP1 RETURN JUMPDEST PUSH1 0x5 DUP1 SLOAD DUP1 DUP4 LT ISZERO PUSH2 0x4D4 JUMPI SWAP1 DUP5 SWAP2 DUP7 PUSH2 0x410 DUP6 PUSH2 0xF67 JUMP JUMPDEST SWAP5 SWAP1 SLOAD PUSH1 0x3 SWAP6 DUP7 SHL SHR AND EQ PUSH2 0x431 JUMPI POP POP POP PUSH2 0x42B SWAP1 PUSH2 0x12FD JUMP JUMPDEST DUP5 PUSH2 0x3C9 JUMP JUMPDEST SWAP3 SWAP1 SWAP5 SWAP4 SWAP2 SWAP6 SWAP7 POP PUSH1 0x0 NOT SWAP3 DUP4 DUP2 ADD SWAP1 DUP2 GT PUSH2 0x4C1 JUMPI SWAP1 PUSH2 0x465 DUP6 PUSH2 0x458 PUSH2 0x484 SWAP5 PUSH2 0xF67 JUMP JUMPDEST SWAP1 SLOAD SWAP1 DUP11 SHL SHR AND SWAP2 PUSH2 0xF67 JUMP JUMPDEST SWAP1 SWAP2 SWAP1 DUP3 SLOAD SWAP1 PUSH1 0x3 SHL SWAP2 PUSH1 0x1 DUP1 PUSH1 0xA0 SHL SUB DUP1 SWAP2 AND DUP4 SHL SWAP3 SHL NOT AND OR SWAP1 SSTORE JUMP JUMPDEST DUP4 SLOAD SWAP1 DUP2 ISZERO PUSH2 0x4AE JUMPI POP ADD SWAP3 PUSH2 0x499 DUP5 PUSH2 0xF67 JUMP JUMPDEST DUP2 SWAP4 SWAP2 SLOAD SWAP3 SHL SHL NOT AND SWAP1 SSTORE SSTORE DUP1 CODESIZE DUP1 DUP1 PUSH2 0x3CE JUMP JUMPDEST PUSH4 0x4E487B71 PUSH1 0xE0 SHL DUP9 MSTORE PUSH1 0x31 SWAP1 MSTORE PUSH1 0x24 DUP8 REVERT JUMPDEST PUSH4 0x4E487B71 PUSH1 0xE0 SHL DUP10 MSTORE PUSH1 0x11 DUP4 MSTORE PUSH1 0x24 DUP10 REVERT JUMPDEST POP POP PUSH2 0x3CE JUMP JUMPDEST SWAP1 PUSH1 0x20 PUSH1 0x64 SWAP3 MLOAD SWAP2 PUSH3 0x461BCD PUSH1 0xE5 SHL DUP4 MSTORE DUP3 ADD MSTORE PUSH1 0x10 PUSH1 0x24 DUP3 ADD MSTORE PUSH16 0x27B930B1B632903737B71030B1BA34B3 PUSH1 0x81 SHL PUSH1 0x44 DUP3 ADD MSTORE REVERT JUMPDEST POP SWAP2 CALLVALUE PUSH2 0x582 JUMPI DUP2 PUSH1 0x3 NOT CALLDATASIZE ADD SLT PUSH2 0x582 JUMPI PUSH1 0x24 CALLDATALOAD SWAP1 DUP4 CALLDATALOAD DUP2 MSTORE PUSH1 0x3 PUSH1 0x20 MSTORE DUP3 DUP2 KECCAK256 SWAP1 DUP2 SLOAD DUP4 LT ISZERO PUSH2 0x582 JUMPI POP PUSH2 0x57E SWAP2 PUSH2 0x54B SWAP2 PUSH2 0x121A JUMP JUMPDEST POP SWAP2 DUP3 SLOAD SWAP3 PUSH1 0xFF PUSH1 0x1 DUP3 ADD SLOAD AND SWAP5 PUSH1 0x2 DUP3 ADD SLOAD PUSH1 0x5 PUSH2 0x570 PUSH1 0x3 DUP6 ADD SLOAD SWAP4 DUP6 ADD PUSH2 0x113E JUMP JUMPDEST SWAP4 ADD SLOAD SWAP4 MLOAD SWAP7 DUP8 SWAP7 DUP8 PUSH2 0x11E4 JUMP JUMPDEST SUB SWAP1 RETURN JUMPDEST DUP1 REVERT JUMPDEST POP POP CALLVALUE PUSH2 0x2F1 JUMPI DUP2 PUSH1 0x3 NOT CALLDATASIZE ADD SLT PUSH2 0x2F1 JUMPI PUSH1 0x20 SWAP1 MLOAD PUSH1 0x64 DUP2 MSTORE RETURN JUMPDEST POP CALLVALUE PUSH2 0x1AE JUMPI PUSH1 0x20 DUP1 PUSH1 0x3 NOT CALLDATASIZE ADD SLT PUSH2 0x68E JUMPI PUSH2 0x57E SWAP2 DUP4 PUSH2 0x5C1 PUSH2 0x10EE JUMP JUMPDEST SWAP6 PUSH1 0x60 PUSH1 0xA0 DUP4 MLOAD PUSH2 0x5D1 DUP2 PUSH2 0x103E JUMP JUMPDEST DUP4 DUP2 MSTORE DUP4 DUP8 DUP3 ADD MSTORE DUP4 DUP6 DUP3 ADD MSTORE DUP4 DUP4 DUP3 ADD MSTORE DUP4 PUSH1 0x80 DUP3 ADD MSTORE ADD MSTORE PUSH1 0x1 DUP1 PUSH1 0xA0 SHL SUB DUP1 SWAP8 AND DUP2 MSTORE PUSH1 0x1 DUP5 MSTORE KECCAK256 SWAP1 DUP5 MLOAD SWAP5 PUSH2 0x609 DUP7 PUSH2 0x103E JUMP JUMPDEST DUP3 SLOAD SWAP1 DUP8 DUP3 AND DUP8 MSTORE PUSH1 0xFF DUP6 DUP9 ADD SWAP3 PUSH1 0xA0 SHR AND ISZERO ISZERO DUP3 MSTORE PUSH1 0x1 DUP5 ADD SLOAD SWAP2 DUP2 DUP9 ADD SWAP3 DUP4 MSTORE PUSH2 0x64E PUSH1 0x2 DUP7 ADD SLOAD SWAP5 PUSH1 0x60 DUP11 ADD SWAP6 DUP7 MSTORE PUSH1 0x3 DUP8 ADD SLOAD SWAP7 PUSH1 0x80 DUP12 ADD SWAP8 DUP9 MSTORE ADD PUSH2 0x113E JUMP JUMPDEST SWAP6 PUSH1 0xA0 DUP10 ADD SWAP7 DUP8 MSTORE DUP3 MLOAD SWAP10 DUP11 SWAP10 DUP3 DUP12 MSTORE MLOAD AND SWAP1 DUP10 ADD MSTORE MLOAD ISZERO ISZERO SWAP1 DUP8 ADD MSTORE MLOAD PUSH1 0x60 DUP7 ADD MSTORE MLOAD PUSH1 0x80 DUP6 ADD MSTORE MLOAD PUSH1 0xA0 DUP5 ADD MSTORE MLOAD PUSH1 0xC0 DUP1 DUP5 ADD MSTORE PUSH1 0xE0 DUP4 ADD SWAP1 PUSH2 0xFB4 JUMP JUMPDEST DUP4 DUP1 REVERT JUMPDEST POP POP CALLVALUE PUSH2 0x2F1 JUMPI DUP2 PUSH1 0x3 NOT CALLDATASIZE ADD SLT PUSH2 0x2F1 JUMPI PUSH1 0x20 SWAP1 MLOAD PUSH1 0x1E DUP2 MSTORE RETURN JUMPDEST POP POP CALLVALUE PUSH2 0x2F1 JUMPI DUP2 PUSH1 0x3 NOT CALLDATASIZE ADD SLT PUSH2 0x2F1 JUMPI SWAP1 SLOAD SWAP1 MLOAD PUSH1 0x1 PUSH1 0x1 PUSH1 0xA0 SHL SUB SWAP1 SWAP2 AND DUP2 MSTORE PUSH1 0x20 SWAP1 RETURN JUMPDEST POP DUP3 SWAP1 CALLVALUE PUSH2 0x2F1 JUMPI PUSH1 0x20 SWAP1 DUP2 PUSH1 0x3 NOT CALLDATASIZE ADD SLT PUSH2 0x1AE JUMPI DUP1 CALLDATALOAD DUP4 MSTORE PUSH1 0x3 DUP3 MSTORE DUP4 DUP4 KECCAK256 SWAP2 DUP3 SLOAD SWAP2 PUSH8 0xFFFFFFFFFFFFFFFF DUP4 GT PUSH2 0x7B5 JUMPI POP SWAP3 SWAP1 DUP5 MLOAD SWAP1 PUSH2 0x71F DUP6 DUP3 PUSH1 0x5 SHL ADD DUP4 PUSH2 0x1070 JUMP JUMPDEST DUP1 DUP3 MSTORE DUP5 DUP3 ADD DUP1 SWAP5 DUP5 MSTORE DUP6 DUP5 KECCAK256 DUP5 SWAP2 JUMPDEST DUP4 DUP4 LT PUSH2 0x790 JUMPI POP POP POP POP DUP5 MLOAD SWAP4 DUP1 DUP6 ADD SWAP2 DUP2 DUP7 MSTORE MLOAD DUP1 SWAP3 MSTORE DUP6 DUP6 ADD SWAP6 DUP3 PUSH1 0x5 SHL DUP7 ADD ADD SWAP4 SWAP3 SWAP6 JUMPDEST DUP3 DUP8 LT PUSH2 0x764 JUMPI DUP6 DUP6 SUB DUP7 RETURN JUMPDEST SWAP1 SWAP2 SWAP3 SWAP4 DUP3 DUP1 PUSH2 0x780 PUSH1 0x1 SWAP4 PUSH1 0x3F NOT DUP11 DUP3 SUB ADD DUP7 MSTORE DUP9 MLOAD PUSH2 0xFF4 JUMP JUMPDEST SWAP7 ADD SWAP3 ADD SWAP7 ADD SWAP6 SWAP3 SWAP2 SWAP1 SWAP3 PUSH2 0x757 JUMP JUMPDEST PUSH1 0x6 DUP9 PUSH1 0x1 SWAP3 PUSH2 0x7A3 DUP6 SWAP12 SWAP9 SWAP10 SWAP12 PUSH2 0x1A86 JUMP JUMPDEST DUP2 MSTORE ADD SWAP3 ADD SWAP3 ADD SWAP2 SWAP1 SWAP7 SWAP5 SWAP4 SWAP7 PUSH2 0x72F JUMP JUMPDEST PUSH4 0x4E487B71 PUSH1 0xE0 SHL DUP6 MSTORE PUSH1 0x41 SWAP1 MSTORE PUSH1 0x24 DUP5 REVERT JUMPDEST POP POP CALLVALUE PUSH2 0x2F1 JUMPI DUP2 PUSH1 0x3 NOT CALLDATASIZE ADD SLT PUSH2 0x2F1 JUMPI PUSH1 0x20 PUSH32 0x62E78CEA01BEE320CD4E420270B5EA74000D11B0C9F74754EBDBFC544B05A258 SWAP2 PUSH2 0x806 PUSH2 0x1236 JUMP JUMPDEST PUSH2 0x80E PUSH2 0x1A65 JUMP JUMPDEST DUP4 SLOAD PUSH1 0xFF PUSH1 0xA0 SHL NOT AND PUSH1 0x1 PUSH1 0xA0 SHL OR DUP5 SSTORE MLOAD CALLER DUP2 MSTORE LOG1 DUP1 RETURN JUMPDEST DUP4 CALLVALUE PUSH2 0x582 JUMPI DUP1 PUSH1 0x3 NOT CALLDATASIZE ADD SLT PUSH2 0x582 JUMPI PUSH2 0x840 PUSH2 0x1236 JUMP JUMPDEST DUP1 SLOAD PUSH1 0x1 PUSH1 0x1 PUSH1 0xA0 SHL SUB NOT DUP2 AND DUP3 SSTORE DUP2 SWAP1 PUSH1 0x1 PUSH1 0x1 PUSH1 0xA0 SHL SUB AND PUSH32 0x8BE0079C531659141344CD1FD0A4F28419497F9722A3DAAFE3B4186F6B6457E0 DUP3 DUP1 LOG3 DUP1 RETURN JUMPDEST DUP3 DUP5 CALLVALUE PUSH2 0x582 JUMPI DUP1 PUSH1 0x3 NOT CALLDATASIZE ADD SLT PUSH2 0x582 JUMPI SWAP1 DUP1 MLOAD SWAP2 DUP3 SWAP1 PUSH1 0x5 SLOAD SWAP2 DUP3 DUP6 MSTORE PUSH1 0x20 DUP1 SWAP6 ADD DUP1 SWAP4 PUSH1 0x5 DUP5 MSTORE PUSH32 0x36B6384B5ECA791C62761152D0C79BB0604C104A5FB6F4EB0703F3154BB3DB0 SWAP1 DUP5 JUMPDEST DUP2 DUP2 LT PUSH2 0x929 JUMPI POP POP POP DUP2 PUSH2 0x8E5 SWAP2 SUB DUP3 PUSH2 0x1070 JUMP JUMPDEST DUP4 MLOAD SWAP5 DUP6 SWAP5 DUP2 DUP7 ADD SWAP3 DUP3 DUP8 MSTORE MLOAD DUP1 SWAP4 MSTORE DUP6 ADD SWAP4 SWAP3 JUMPDEST DUP3 DUP2 LT PUSH2 0x909 JUMPI POP POP POP POP SUB SWAP1 RETURN JUMPDEST DUP4 MLOAD PUSH1 0x1 PUSH1 0x1 PUSH1 0xA0 SHL SUB AND DUP6 MSTORE DUP7 SWAP6 POP SWAP4 DUP2 ADD SWAP4 SWAP3 DUP2 ADD SWAP3 PUSH1 0x1 ADD PUSH2 0x8FA JUMP JUMPDEST DUP3 SLOAD PUSH1 0x1 PUSH1 0x1 PUSH1 0xA0 SHL SUB AND DUP5 MSTORE SWAP3 DUP9 ADD SWAP3 PUSH1 0x1 SWAP3 DUP4 ADD SWAP3 ADD PUSH2 0x8CF JUMP JUMPDEST POP SWAP2 SWAP1 CALLVALUE PUSH2 0x2F1 JUMPI DUP1 PUSH1 0x3 NOT CALLDATASIZE ADD SLT PUSH2 0x2F1 JUMPI PUSH2 0x961 PUSH2 0x10EE JUMP JUMPDEST PUSH8 0xFFFFFFFFFFFFFFFF SWAP2 SWAP1 PUSH1 0x24 CALLDATALOAD DUP4 DUP2 GT PUSH2 0xBAE JUMPI PUSH2 0x983 SWAP1 CALLDATASIZE SWAP1 DUP8 ADD PUSH2 0x1092 JUMP JUMPDEST SWAP2 PUSH2 0x98C PUSH2 0x1236 JUMP JUMPDEST PUSH1 0x1 PUSH1 0x1 PUSH1 0xA0 SHL SUB DUP3 DUP2 AND SWAP5 SWAP1 SWAP3 SWAP1 PUSH2 0x9A6 DUP7 ISZERO ISZERO PUSH2 0x1262 JUMP JUMPDEST DUP6 DUP8 MSTORE PUSH1 0x1 SWAP1 PUSH1 0x20 SWAP5 DUP3 DUP7 MSTORE PUSH1 0xFF DUP6 DUP11 KECCAK256 SLOAD PUSH1 0xA0 SHR AND PUSH2 0xB75 JUMPI SWAP1 DUP10 DUP8 SWAP3 DUP10 DUP9 DUP13 DUP10 MLOAD SWAP4 PUSH2 0x9D3 DUP6 PUSH2 0x103E JUMP JUMPDEST DUP4 DUP6 MSTORE DUP3 DUP6 ADD SWAP1 DUP10 DUP3 MSTORE DUP12 DUP1 DUP8 ADD SWAP4 PUSH2 0x1F4 DUP6 MSTORE DUP12 PUSH1 0x60 DUP10 ADD SWAP7 DUP3 DUP9 MSTORE PUSH1 0x80 DUP11 ADD SWAP9 DUP4 DUP11 MSTORE PUSH1 0xA0 DUP12 ADD SWAP14 DUP15 MSTORE DUP4 MSTORE MSTORE KECCAK256 SWAP6 MLOAD AND DUP6 SLOAD SWAP2 PUSH1 0xFF PUSH1 0xA0 SHL SWAP1 MLOAD ISZERO ISZERO PUSH1 0xA0 SHL AND SWAP2 PUSH11 0xFFFFFFFFFFFFFFFFFFFFFF PUSH1 0xA8 SHL AND OR OR DUP5 SSTORE MLOAD DUP8 DUP5 ADD SSTORE MLOAD PUSH1 0x2 DUP4 ADD SSTORE MLOAD PUSH1 0x3 DUP3 ADD SSTORE ADD SWAP2 MLOAD DUP1 MLOAD SWAP2 DUP3 GT PUSH2 0xB62 JUMPI DUP2 SWAP1 PUSH2 0xA5E DUP3 PUSH2 0xA58 DUP7 SLOAD PUSH2 0x1104 JUMP JUMPDEST DUP7 PUSH2 0x12B8 JUMP JUMPDEST DUP8 SWAP1 PUSH1 0x1F DUP4 GT PUSH1 0x1 EQ PUSH2 0xB03 JUMPI DUP12 SWAP3 PUSH2 0xAF8 JUMPI JUMPDEST POP POP PUSH1 0x0 NOT PUSH1 0x3 DUP4 SWAP1 SHL SHR NOT AND SWAP1 DUP4 SHL OR SWAP1 SSTORE JUMPDEST PUSH1 0x5 SLOAD SWAP1 PUSH1 0x1 PUSH1 0x40 SHL DUP3 LT ISZERO PUSH2 0xAE5 JUMPI PUSH2 0xADF SWAP3 PUSH2 0x465 DUP4 PUSH2 0xAD0 SWAP4 PUSH32 0xCA2FDA65E4CE906EEDACA6F32BBFB3BF0B3781DE9D7B093E127293F1B9E19AD2 SWAP10 SWAP9 SWAP8 SWAP6 ADD PUSH1 0x5 SSTORE PUSH2 0xF67 JUMP JUMPDEST MLOAD SWAP3 DUP3 DUP5 SWAP4 DUP5 MSTORE DUP4 ADD SWAP1 PUSH2 0xFB4 JUMP JUMPDEST SUB SWAP1 LOG2 DUP1 RETURN JUMPDEST PUSH4 0x4E487B71 PUSH1 0xE0 SHL DUP9 MSTORE PUSH1 0x41 DUP10 MSTORE PUSH1 0x24 DUP9 REVERT JUMPDEST ADD MLOAD SWAP1 POP CODESIZE DUP1 PUSH2 0xA72 JUMP JUMPDEST DUP5 DUP13 MSTORE DUP9 DUP13 KECCAK256 DUP7 SWAP5 POP SWAP2 SWAP1 PUSH1 0x1F NOT DUP5 AND DUP14 JUMPDEST DUP12 DUP3 DUP3 LT PUSH2 0xB4C JUMPI POP POP DUP5 GT PUSH2 0xB33 JUMPI JUMPDEST POP POP POP DUP2 SHL ADD SWAP1 SSTORE PUSH2 0xA86 JUMP JUMPDEST ADD MLOAD PUSH1 0x0 NOT PUSH1 0xF8 DUP5 PUSH1 0x3 SHL AND SHR NOT AND SWAP1 SSTORE CODESIZE DUP1 DUP1 PUSH2 0xB26 JUMP JUMPDEST DUP4 DUP6 ADD MLOAD DUP7 SSTORE DUP10 SWAP8 SWAP1 SWAP6 ADD SWAP5 SWAP4 DUP5 ADD SWAP4 ADD PUSH2 0xB15 JUMP JUMPDEST PUSH4 0x4E487B71 PUSH1 0xE0 SHL DUP11 MSTORE PUSH1 0x41 DUP12 MSTORE PUSH1 0x24 DUP11 REVERT JUMPDEST DUP5 MLOAD PUSH3 0x461BCD PUSH1 0xE5 SHL DUP2 MSTORE DUP1 DUP12 ADD DUP8 SWAP1 MSTORE PUSH1 0x13 PUSH1 0x24 DUP3 ADD MSTORE PUSH19 0x27B930B1B632903261D4B561D01030B1BA34B3 PUSH1 0x69 SHL PUSH1 0x44 DUP3 ADD MSTORE PUSH1 0x64 SWAP1 REVERT JUMPDEST DUP5 DUP1 REVERT JUMPDEST POP SWAP2 CALLVALUE PUSH2 0x582 JUMPI PUSH1 0x20 CALLDATASIZE PUSH1 0x3 NOT ADD SLT PUSH2 0x582 JUMPI DUP2 PUSH2 0x57E SWAP2 DUP5 CALLDATALOAD DUP2 MSTORE PUSH1 0x2 PUSH1 0x20 MSTORE KECCAK256 SWAP2 DUP3 SLOAD SWAP3 PUSH1 0xFF PUSH1 0x1 DUP3 ADD SLOAD AND SWAP5 PUSH1 0x2 DUP3 ADD SLOAD PUSH1 0x5 PUSH2 0x570 PUSH1 0x3 DUP6 ADD SLOAD SWAP4 DUP6 ADD PUSH2 0x113E JUMP JUMPDEST POP POP CALLVALUE PUSH2 0x2F1 JUMPI DUP2 PUSH1 0x3 NOT CALLDATASIZE ADD SLT PUSH2 0x2F1 JUMPI PUSH1 0xFF PUSH1 0x20 SWAP3 SLOAD PUSH1 0xA0 SHR AND SWAP1 MLOAD SWAP1 ISZERO ISZERO DUP2 MSTORE RETURN JUMPDEST POP CALLVALUE PUSH2 0x1AE JUMPI PUSH1 0x20 CALLDATASIZE PUSH1 0x3 NOT ADD SLT PUSH2 0x1AE JUMPI DUP2 PUSH1 0x20 SWAP4 DUP3 PUSH1 0xFF SWAP4 CALLDATALOAD DUP3 MSTORE DUP6 MSTORE KECCAK256 SLOAD AND SWAP1 MLOAD SWAP1 ISZERO ISZERO DUP2 MSTORE RETURN JUMPDEST POP POP CALLVALUE PUSH2 0x2F1 JUMPI DUP2 PUSH1 0x3 NOT CALLDATASIZE ADD SLT PUSH2 0x2F1 JUMPI PUSH1 0x20 SWAP1 MLOAD PUSH1 0x46 DUP2 MSTORE RETURN JUMPDEST POP CALLVALUE PUSH2 0x1AE JUMPI DUP3 PUSH1 0x3 NOT CALLDATASIZE ADD SLT PUSH2 0x1AE JUMPI PUSH2 0xC7D PUSH2 0x1236 JUMP JUMPDEST DUP3 SLOAD SWAP1 PUSH1 0xFF DUP3 PUSH1 0xA0 SHR AND ISZERO PUSH2 0xCC3 JUMPI POP PUSH1 0xFF PUSH1 0xA0 SHL NOT AND DUP3 SSTORE MLOAD CALLER DUP2 MSTORE PUSH32 0x5DB9EE0A495BF2E6FF9C91A7834C1BA4FDD244A5E8AA4E537BD38AEAE4B073AA SWAP1 PUSH1 0x20 SWAP1 LOG1 DUP1 RETURN JUMPDEST DUP3 MLOAD PUSH4 0x8DFC202B PUSH1 0xE0 SHL DUP2 MSTORE REVERT JUMPDEST POP SWAP2 SWAP1 CALLVALUE PUSH2 0x2F1 JUMPI PUSH1 0x20 CALLDATASIZE PUSH1 0x3 NOT ADD SLT PUSH2 0x2F1 JUMPI PUSH1 0x1 PUSH1 0x1 PUSH1 0xA0 SHL SUB SWAP2 PUSH2 0x57E SWAP2 SWAP1 DUP2 SWAP1 DUP5 PUSH2 0xCFE PUSH2 0x10EE JUMP JUMPDEST AND DUP2 MSTORE PUSH1 0x1 PUSH1 0x20 MSTORE KECCAK256 DUP1 SLOAD SWAP5 PUSH1 0x1 DUP3 ADD SLOAD PUSH2 0xD24 PUSH1 0x2 DUP5 ADD SLOAD SWAP3 PUSH1 0x3 DUP6 ADD SLOAD SWAP5 ADD PUSH2 0x113E JUMP JUMPDEST SWAP4 PUSH1 0xFF DUP2 MLOAD SWAP9 DUP10 SWAP9 DUP2 AND DUP10 MSTORE PUSH1 0xA0 SHR AND ISZERO ISZERO PUSH1 0x20 DUP9 ADD MSTORE DUP7 ADD MSTORE PUSH1 0x60 DUP6 ADD MSTORE PUSH1 0x80 DUP5 ADD MSTORE PUSH1 0xC0 PUSH1 0xA0 DUP5 ADD MSTORE PUSH1 0xC0 DUP4 ADD SWAP1 PUSH2 0xFB4 JUMP JUMPDEST POP DUP3 SWAP1 CALLVALUE PUSH2 0x2F1 JUMPI PUSH1 0xA0 CALLDATASIZE PUSH1 0x3 NOT ADD SLT PUSH2 0x2F1 JUMPI PUSH1 0x24 CALLDATALOAD SWAP1 DUP1 CALLDATALOAD DUP3 ISZERO ISZERO DUP4 SUB PUSH2 0x68E JUMPI PUSH1 0x64 CALLDATALOAD PUSH8 0xFFFFFFFFFFFFFFFF DUP2 GT PUSH2 0xBAE JUMPI PUSH2 0xD9B SWAP1 CALLDATASIZE SWAP1 DUP5 ADD PUSH2 0x1092 JUMP JUMPDEST SWAP2 CALLER DUP6 MSTORE PUSH1 0x1 PUSH1 0x20 MSTORE PUSH1 0xFF DUP7 DUP7 KECCAK256 SLOAD PUSH1 0xA0 SHR AND ISZERO PUSH2 0xE83 JUMPI PUSH2 0xDBB PUSH2 0x1A65 JUMP JUMPDEST DUP2 ISZERO PUSH2 0xE49 JUMPI DUP2 DUP6 MSTORE PUSH1 0x2 PUSH1 0x20 MSTORE PUSH1 0x3 DUP7 DUP7 KECCAK256 ADD SLOAD PUSH1 0x1E DUP2 ADD DUP1 SWAP2 GT PUSH2 0xE36 JUMPI TIMESTAMP LT PUSH2 0xDF8 JUMPI POP PUSH2 0xDF5 SWAP4 SWAP5 POP PUSH1 0x84 CALLDATALOAD SWAP3 PUSH1 0x44 CALLDATALOAD SWAP2 PUSH2 0x1517 JUMP JUMPDEST DUP1 RETURN JUMPDEST DUP6 MLOAD PUSH3 0x461BCD PUSH1 0xE5 SHL DUP2 MSTORE PUSH1 0x20 SWAP2 DUP2 ADD SWAP2 SWAP1 SWAP2 MSTORE PUSH1 0x15 PUSH1 0x24 DUP3 ADD MSTORE PUSH21 0x436F6F6C646F776E206E6F6E20C3A9636F756CC3A9 PUSH1 0x58 SHL PUSH1 0x44 DUP3 ADD MSTORE PUSH1 0x64 SWAP1 REVERT JUMPDEST PUSH4 0x4E487B71 PUSH1 0xE0 SHL DUP7 MSTORE PUSH1 0x11 DUP3 MSTORE PUSH1 0x24 DUP7 REVERT JUMPDEST PUSH1 0x64 SWAP1 PUSH1 0x20 DUP8 MLOAD SWAP2 PUSH3 0x461BCD PUSH1 0xE5 SHL DUP4 MSTORE DUP3 ADD MSTORE PUSH1 0x14 PUSH1 0x24 DUP3 ADD MSTORE PUSH20 0x494420646520706C61636520696E76616C696465 PUSH1 0x60 SHL PUSH1 0x44 DUP3 ADD MSTORE REVERT JUMPDEST DUP6 MLOAD PUSH3 0x461BCD PUSH1 0xE5 SHL DUP2 MSTORE PUSH1 0x20 SWAP2 DUP2 ADD SWAP2 SWAP1 SWAP2 MSTORE PUSH1 0x14 PUSH1 0x24 DUP3 ADD MSTORE PUSH20 0x4F7261636C65206E6F6E206175746F726973C3A9 PUSH1 0x60 SHL PUSH1 0x44 DUP3 ADD MSTORE PUSH1 0x64 SWAP1 REVERT JUMPDEST POP CALLVALUE PUSH2 0x1AE JUMPI PUSH1 0x20 CALLDATASIZE PUSH1 0x3 NOT ADD SLT PUSH2 0x1AE JUMPI DUP2 DUP4 PUSH2 0xF14 SWAP3 PUSH2 0x57E SWAP6 PUSH1 0xA0 DUP5 MLOAD PUSH2 0xEE9 DUP2 PUSH2 0x103E JUMP JUMPDEST DUP3 DUP2 MSTORE DUP3 PUSH1 0x20 DUP3 ADD MSTORE DUP3 DUP7 DUP3 ADD MSTORE DUP3 PUSH1 0x60 DUP3 ADD MSTORE PUSH1 0x60 PUSH1 0x80 DUP3 ADD MSTORE ADD MSTORE CALLDATALOAD DUP2 MSTORE PUSH1 0x2 PUSH1 0x20 MSTORE KECCAK256 PUSH2 0x1A86 JUMP JUMPDEST SWAP1 MLOAD SWAP2 DUP3 SWAP2 PUSH1 0x20 DUP4 MSTORE PUSH1 0x20 DUP4 ADD SWAP1 PUSH2 0xFF4 JUMP JUMPDEST POP CALLVALUE PUSH2 0x1AE JUMPI PUSH1 0x20 CALLDATASIZE PUSH1 0x3 NOT ADD SLT PUSH2 0x1AE JUMPI CALLDATALOAD SWAP2 PUSH1 0x5 SLOAD DUP4 LT ISZERO PUSH2 0x582 JUMPI POP PUSH2 0xF51 PUSH1 0x20 SWAP3 PUSH2 0xF67 JUMP JUMPDEST SWAP1 SLOAD SWAP2 MLOAD SWAP2 PUSH1 0x1 DUP1 PUSH1 0xA0 SHL SUB SWAP2 PUSH1 0x3 SHL SHR AND DUP2 MSTORE RETURN JUMPDEST PUSH1 0x5 SLOAD DUP2 LT ISZERO PUSH2 0xF9E JUMPI PUSH1 0x5 PUSH1 0x0 MSTORE PUSH32 0x36B6384B5ECA791C62761152D0C79BB0604C104A5FB6F4EB0703F3154BB3DB0 ADD SWAP1 PUSH1 0x0 SWAP1 JUMP JUMPDEST PUSH4 0x4E487B71 PUSH1 0xE0 SHL PUSH1 0x0 MSTORE PUSH1 0x32 PUSH1 0x4 MSTORE PUSH1 0x24 PUSH1 0x0 REVERT JUMPDEST SWAP2 SWAP1 DUP3 MLOAD SWAP3 DUP4 DUP3 MSTORE PUSH1 0x0 JUMPDEST DUP5 DUP2 LT PUSH2 0xFE0 JUMPI POP POP DUP3 PUSH1 0x0 PUSH1 0x20 DUP1 SWAP5 SWAP6 DUP5 ADD ADD MSTORE PUSH1 0x1F DUP1 NOT SWAP2 ADD AND ADD ADD SWAP1 JUMP JUMPDEST PUSH1 0x20 DUP2 DUP4 ADD DUP2 ADD MLOAD DUP5 DUP4 ADD DUP3 ADD MSTORE ADD PUSH2 0xFBF JUMP JUMPDEST SWAP1 DUP2 MLOAD DUP2 MSTORE PUSH1 0x20 DUP3 ADD MLOAD ISZERO ISZERO PUSH1 0x20 DUP3 ADD MSTORE PUSH1 0x40 DUP3 ADD MLOAD PUSH1 0x40 DUP3 ADD MSTORE PUSH1 0x60 DUP3 ADD MLOAD PUSH1 0x60 DUP3 ADD MSTORE PUSH1 0xA0 DUP1 PUSH2 0x1035 PUSH1 0x80 DUP6 ADD MLOAD PUSH1 0xC0 PUSH1 0x80 DUP7 ADD MSTORE PUSH1 0xC0 DUP6 ADD SWAP1 PUSH2 0xFB4 JUMP JUMPDEST SWAP4 ADD MLOAD SWAP2 ADD MSTORE SWAP1 JUMP JUMPDEST PUSH1 0xC0 DUP2 ADD SWAP1 DUP2 LT PUSH8 0xFFFFFFFFFFFFFFFF DUP3 GT OR PUSH2 0x105A JUMPI PUSH1 0x40 MSTORE JUMP JUMPDEST PUSH4 0x4E487B71 PUSH1 0xE0 SHL PUSH1 0x0 MSTORE PUSH1 0x41 PUSH1 0x4 MSTORE PUSH1 0x24 PUSH1 0x0 REVERT JUMPDEST SWAP1 PUSH1 0x1F DUP1 NOT SWAP2 ADD AND DUP2 ADD SWAP1 DUP2 LT PUSH8 0xFFFFFFFFFFFFFFFF DUP3 GT OR PUSH2 0x105A JUMPI PUSH1 0x40 MSTORE JUMP JUMPDEST DUP2 PUSH1 0x1F DUP3 ADD SLT ISZERO PUSH2 0x10E9 JUMPI DUP1 CALLDATALOAD SWAP1 PUSH8 0xFFFFFFFFFFFFFFFF DUP3 GT PUSH2 0x105A JUMPI PUSH1 0x40 MLOAD SWAP3 PUSH2 0x10C7 PUSH1 0x1F DUP5 ADD PUSH1 0x1F NOT AND PUSH1 0x20 ADD DUP6 PUSH2 0x1070 JUMP JUMPDEST DUP3 DUP5 MSTORE PUSH1 0x20 DUP4 DUP4 ADD ADD GT PUSH2 0x10E9 JUMPI DUP2 PUSH1 0x0 SWAP3 PUSH1 0x20 DUP1 SWAP4 ADD DUP4 DUP7 ADD CALLDATACOPY DUP4 ADD ADD MSTORE SWAP1 JUMP JUMPDEST PUSH1 0x0 DUP1 REVERT JUMPDEST PUSH1 0x4 CALLDATALOAD SWAP1 PUSH1 0x1 PUSH1 0x1 PUSH1 0xA0 SHL SUB DUP3 AND DUP3 SUB PUSH2 0x10E9 JUMPI JUMP JUMPDEST SWAP1 PUSH1 0x1 DUP3 DUP2 SHR SWAP3 AND DUP1 ISZERO PUSH2 0x1134 JUMPI JUMPDEST PUSH1 0x20 DUP4 LT EQ PUSH2 0x111E JUMPI JUMP JUMPDEST PUSH4 0x4E487B71 PUSH1 0xE0 SHL PUSH1 0x0 MSTORE PUSH1 0x22 PUSH1 0x4 MSTORE PUSH1 0x24 PUSH1 0x0 REVERT JUMPDEST SWAP2 PUSH1 0x7F AND SWAP2 PUSH2 0x1113 JUMP JUMPDEST SWAP1 PUSH1 0x40 MLOAD SWAP2 DUP3 PUSH1 0x0 DUP3 SLOAD SWAP3 PUSH2 0x1152 DUP5 PUSH2 0x1104 JUMP JUMPDEST SWAP1 DUP2 DUP5 MSTORE PUSH1 0x1 SWAP5 DUP6 DUP2 AND SWAP1 DUP2 PUSH1 0x0 EQ PUSH2 0x11C1 JUMPI POP PUSH1 0x1 EQ PUSH2 0x117E JUMPI JUMPDEST POP POP PUSH2 0x117C SWAP3 POP SUB DUP4 PUSH2 0x1070 JUMP JUMPDEST JUMP JUMPDEST SWAP1 SWAP4 SWAP2 POP PUSH1 0x0 MSTORE PUSH1 0x20 SWAP1 DUP2 PUSH1 0x0 KECCAK256 SWAP4 PUSH1 0x0 SWAP2 JUMPDEST DUP2 DUP4 LT PUSH2 0x11A9 JUMPI POP POP PUSH2 0x117C SWAP4 POP DUP3 ADD ADD CODESIZE DUP1 PUSH2 0x116E JUMP JUMPDEST DUP6 SLOAD DUP9 DUP5 ADD DUP6 ADD MSTORE SWAP5 DUP6 ADD SWAP5 DUP8 SWAP5 POP SWAP2 DUP4 ADD SWAP2 PUSH2 0x1191 JUMP JUMPDEST SWAP2 POP POP PUSH2 0x117C SWAP5 POP PUSH1 0x20 SWAP3 POP PUSH1 0xFF NOT AND DUP3 DUP5 ADD MSTORE ISZERO ISZERO PUSH1 0x5 SHL DUP3 ADD ADD CODESIZE DUP1 PUSH2 0x116E JUMP JUMPDEST SWAP7 SWAP6 SWAP5 SWAP2 SWAP3 PUSH2 0x1215 SWAP4 PUSH1 0xA0 SWAP6 SWAP3 DUP10 MSTORE ISZERO ISZERO PUSH1 0x20 DUP10 ADD MSTORE PUSH1 0x40 DUP9 ADD MSTORE PUSH1 0x60 DUP8 ADD MSTORE PUSH1 0xC0 PUSH1 0x80 DUP8 ADD MSTORE PUSH1 0xC0 DUP7 ADD SWAP1 PUSH2 0xFB4 JUMP JUMPDEST SWAP4 ADD MSTORE JUMP JUMPDEST DUP1 SLOAD DUP3 LT ISZERO PUSH2 0xF9E JUMPI PUSH1 0x0 MSTORE PUSH1 0x6 PUSH1 0x20 PUSH1 0x0 KECCAK256 SWAP2 MUL ADD SWAP1 PUSH1 0x0 SWAP1 JUMP JUMPDEST PUSH1 0x0 SLOAD PUSH1 0x1 PUSH1 0x1 PUSH1 0xA0 SHL SUB AND CALLER SUB PUSH2 0x124A JUMPI JUMP JUMPDEST PUSH1 0x40 MLOAD PUSH4 0x118CDAA7 PUSH1 0xE0 SHL DUP2 MSTORE CALLER PUSH1 0x4 DUP3 ADD MSTORE PUSH1 0x24 SWAP1 REVERT JUMPDEST ISZERO PUSH2 0x1269 JUMPI JUMP JUMPDEST PUSH1 0x40 MLOAD PUSH3 0x461BCD PUSH1 0xE5 SHL DUP2 MSTORE PUSH1 0x20 PUSH1 0x4 DUP3 ADD MSTORE PUSH1 0x10 PUSH1 0x24 DUP3 ADD MSTORE PUSH16 0x4164726573736520696E76616C696465 PUSH1 0x80 SHL PUSH1 0x44 DUP3 ADD MSTORE PUSH1 0x64 SWAP1 REVERT JUMPDEST DUP2 DUP2 LT PUSH2 0x12AC JUMPI POP POP JUMP JUMPDEST PUSH1 0x0 DUP2 SSTORE PUSH1 0x1 ADD PUSH2 0x12A1 JUMP JUMPDEST SWAP2 SWAP1 PUSH1 0x1F DUP2 GT PUSH2 0x12C7 JUMPI POP POP POP JUMP JUMPDEST PUSH2 0x117C SWAP3 PUSH1 0x0 MSTORE PUSH1 0x20 PUSH1 0x0 KECCAK256 SWAP1 PUSH1 0x20 PUSH1 0x1F DUP5 ADD PUSH1 0x5 SHR DUP4 ADD SWAP4 LT PUSH2 0x12F3 JUMPI JUMPDEST PUSH1 0x1F ADD PUSH1 0x5 SHR ADD SWAP1 PUSH2 0x12A1 JUMP JUMPDEST SWAP1 SWAP2 POP DUP2 SWAP1 PUSH2 0x12E6 JUMP JUMPDEST PUSH1 0x0 NOT DUP2 EQ PUSH2 0x130C JUMPI PUSH1 0x1 ADD SWAP1 JUMP JUMPDEST PUSH4 0x4E487B71 PUSH1 0xE0 SHL PUSH1 0x0 MSTORE PUSH1 0x11 PUSH1 0x4 MSTORE PUSH1 0x24 PUSH1 0x0 REVERT JUMPDEST SWAP1 DUP1 MLOAD DUP3 SSTORE PUSH1 0x20 SWAP1 DUP2 DUP2 ADD MLOAD ISZERO ISZERO SWAP2 PUSH2 0x134B PUSH1 0x1 SWAP4 DUP5 DUP7 ADD SWAP1 PUSH1 0xFF DUP1 NOT DUP4 SLOAD AND SWAP2 ISZERO ISZERO AND OR SWAP1 SSTORE JUMP JUMPDEST PUSH1 0x40 DUP3 ADD MLOAD PUSH1 0x2 DUP6 ADD SSTORE PUSH1 0x60 DUP3 ADD MLOAD PUSH1 0x3 DUP6 ADD SSTORE PUSH1 0x4 DUP5 ADD SWAP1 PUSH1 0x80 DUP4 ADD MLOAD SWAP4 DUP5 MLOAD SWAP2 PUSH8 0xFFFFFFFFFFFFFFFF DUP4 GT PUSH2 0x105A JUMPI PUSH2 0x138A DUP4 PUSH2 0xA58 DUP7 SLOAD PUSH2 0x1104 JUMP JUMPDEST DUP1 PUSH1 0x1F DUP5 GT PUSH1 0x1 EQ PUSH2 0x13CF JUMPI POP SWAP2 DUP1 DUP1 SWAP3 PUSH1 0xA0 SWAP7 SWAP6 SWAP5 PUSH1 0x5 SWAP9 PUSH1 0x0 SWAP5 PUSH2 0x13C4 JUMPI JUMPDEST POP POP SHL SWAP2 PUSH1 0x0 NOT SWAP1 PUSH1 0x3 SHL SHR NOT AND OR SWAP1 SSTORE JUMPDEST ADD MLOAD SWAP2 ADD SSTORE JUMP JUMPDEST ADD MLOAD SWAP3 POP CODESIZE DUP1 PUSH2 0x13AB JUMP JUMPDEST SWAP2 SWAP4 SWAP5 SWAP6 PUSH1 0x1F NOT DUP5 AND DUP7 PUSH1 0x0 MSTORE DUP4 PUSH1 0x0 KECCAK256 SWAP4 PUSH1 0x0 SWAP1 JUMPDEST DUP3 DUP3 LT PUSH2 0x1427 JUMPI POP POP SWAP2 PUSH1 0x5 SWAP8 SWAP6 SWAP4 SWAP2 DUP6 PUSH1 0xA0 SWAP9 SWAP7 SWAP5 LT PUSH2 0x140E JUMPI JUMPDEST POP POP POP DUP2 SHL ADD SWAP1 SSTORE PUSH2 0x13BD JUMP JUMPDEST ADD MLOAD PUSH1 0x0 NOT PUSH1 0xF8 DUP5 PUSH1 0x3 SHL AND SHR NOT AND SWAP1 SSTORE CODESIZE DUP1 DUP1 PUSH2 0x1401 JUMP JUMPDEST DUP1 DUP9 DUP7 SWAP8 DUP3 SWAP5 SWAP8 DUP8 ADD MLOAD DUP2 SSTORE ADD SWAP7 ADD SWAP5 ADD SWAP1 PUSH2 0x13E5 JUMP JUMPDEST SWAP1 DUP1 DUP3 EQ PUSH2 0x1513 JUMPI PUSH2 0x1450 DUP2 SLOAD PUSH2 0x1104 JUMP JUMPDEST SWAP1 PUSH8 0xFFFFFFFFFFFFFFFF DUP3 GT PUSH2 0x105A JUMPI DUP2 SWAP1 PUSH2 0x1470 DUP3 PUSH2 0xA58 DUP7 SLOAD PUSH2 0x1104 JUMP JUMPDEST PUSH1 0x0 SWAP1 PUSH1 0x1F DUP4 GT PUSH1 0x1 EQ PUSH2 0x14A7 JUMPI PUSH1 0x0 SWAP3 PUSH2 0x149C JUMPI JUMPDEST POP POP DUP2 PUSH1 0x1 SHL SWAP2 PUSH1 0x0 NOT SWAP1 PUSH1 0x3 SHL SHR NOT AND OR SWAP1 SSTORE JUMP JUMPDEST ADD SLOAD SWAP1 POP CODESIZE DUP1 PUSH2 0x1486 JUMP JUMPDEST DUP2 MSTORE PUSH1 0x20 DUP1 DUP3 KECCAK256 DUP6 DUP4 MSTORE DUP2 DUP4 KECCAK256 SWAP4 POP SWAP1 PUSH1 0x1F NOT DUP6 AND SWAP1 DUP4 SWAP1 JUMPDEST DUP3 DUP3 LT PUSH2 0x14FA JUMPI POP POP SWAP1 DUP5 PUSH1 0x1 SWAP6 SWAP5 SWAP4 SWAP3 LT PUSH2 0x14E1 JUMPI JUMPDEST POP POP POP DUP2 SHL ADD SWAP1 SSTORE JUMP JUMPDEST ADD SLOAD PUSH1 0x0 NOT PUSH1 0xF8 DUP5 PUSH1 0x3 SHL AND SHR NOT AND SWAP1 SSTORE CODESIZE DUP1 DUP1 PUSH2 0x14D7 JUMP JUMPDEST DUP5 SWAP6 DUP2 SWAP3 SWAP6 DUP6 ADD SLOAD DUP2 SSTORE PUSH1 0x1 DUP1 SWAP2 ADD SWAP7 ADD SWAP5 ADD SWAP1 PUSH2 0x14C0 JUMP JUMPDEST POP POP JUMP JUMPDEST SWAP3 SWAP4 SWAP1 SWAP2 PUSH1 0x46 DUP2 LT PUSH2 0x1A27 JUMPI PUSH1 0x0 SWAP2 DUP1 DUP4 MSTORE PUSH1 0x4 SWAP3 PUSH1 0x20 SWAP2 DUP5 DUP4 MSTORE PUSH1 0xFF PUSH1 0x40 SWAP6 DUP2 DUP8 DUP6 KECCAK256 SLOAD AND PUSH2 0x19E4 JUMPI DUP10 MLOAD ISZERO PUSH2 0x19A8 JUMPI PUSH2 0x1553 DUP7 DUP10 DUP12 PUSH2 0x1AD8 JUMP JUMPDEST ISZERO PUSH2 0x18B0 JUMPI DUP7 MLOAD SWAP8 PUSH2 0x1564 DUP10 PUSH2 0x103E JUMP JUMPDEST DUP10 DUP10 MSTORE ISZERO ISZERO SWAP8 DUP9 DUP7 DUP3 ADD MSTORE DUP7 DUP9 DUP3 ADD MSTORE TIMESTAMP PUSH1 0x60 DUP3 ADD MSTORE DUP11 PUSH1 0x80 DUP3 ADD MSTORE DUP4 PUSH1 0xA0 DUP3 ADD MSTORE DUP10 DUP6 MSTORE PUSH1 0x2 SWAP4 DUP5 DUP8 MSTORE PUSH2 0x159B DUP3 DUP11 DUP9 KECCAK256 PUSH2 0x1322 JUMP JUMPDEST DUP6 MSTORE DUP2 DUP7 MSTORE DUP8 DUP6 KECCAK256 SWAP3 PUSH1 0x1 SWAP4 DUP5 PUSH1 0xFF NOT DUP3 SLOAD AND OR SWAP1 SSTORE DUP11 DUP7 MSTORE PUSH1 0x3 SWAP2 DUP3 DUP9 MSTORE DUP10 DUP8 KECCAK256 DUP1 SLOAD SWAP1 PUSH1 0x1 PUSH1 0x40 SHL DUP3 LT ISZERO PUSH2 0x189D JUMPI SWAP1 PUSH2 0x15DB SWAP2 DUP8 DUP3 ADD DUP2 SSTORE PUSH2 0x121A JUMP JUMPDEST PUSH2 0x177B JUMPI SWAP1 PUSH2 0x15E9 SWAP2 PUSH2 0x1322 JUMP JUMPDEST DUP11 DUP7 MSTORE DUP2 DUP8 MSTORE PUSH1 0x64 DUP10 DUP8 KECCAK256 SLOAD GT PUSH2 0x16D8 JUMPI JUMPDEST POP CALLER DUP6 MSTORE DUP3 DUP7 MSTORE DUP8 DUP6 KECCAK256 SWAP1 DUP5 DUP3 ADD PUSH2 0x1613 DUP2 SLOAD PUSH2 0x12FD JUMP JUMPDEST SWAP1 SSTORE TIMESTAMP SWAP2 ADD SSTORE CALLER DUP5 MSTORE DUP2 DUP6 MSTORE DUP2 DUP8 DUP6 KECCAK256 ADD SWAP1 DUP2 SLOAD SWAP3 PUSH2 0x3E8 DUP5 LT PUSH2 0x168F JUMPI JUMPDEST POP POP POP POP SWAP2 PUSH2 0x166E DUP6 DUP4 PUSH32 0xAC4634CA5286739C54037A07039EE401BF71958EF4935F8A30320654D77B9F69 SWAP9 SWAP8 SWAP6 DUP11 PUSH1 0x60 SWAP9 SWAP7 MSTORE DUP5 MSTORE KECCAK256 PUSH2 0x1A86 JUMP JUMPDEST POP DUP3 MLOAD SWAP5 DUP6 MSTORE DUP5 ADD MSTORE DUP3 ADD MSTORE DUP1 PUSH2 0x168A CALLER SWAP6 PUSH1 0x60 DUP4 ADD SWAP1 PUSH2 0xFB4 JUMP JUMPDEST SUB SWAP1 LOG3 JUMP JUMPDEST DUP4 ADD DUP1 SWAP4 GT PUSH2 0x16C5 JUMPI POP SSTORE PUSH2 0x166E DUP6 DUP4 PUSH32 0xAC4634CA5286739C54037A07039EE401BF71958EF4935F8A30320654D77B9F69 PUSH2 0x1632 JUMP JUMPDEST PUSH4 0x4E487B71 PUSH1 0xE0 SHL DUP6 MSTORE PUSH1 0x11 SWAP1 MSTORE PUSH1 0x24 DUP5 REVERT JUMPDEST DUP6 DUP5 JUMPDEST PUSH2 0x17A0 JUMPI JUMPDEST POP POP DUP10 DUP6 MSTORE DUP1 DUP7 MSTORE DUP8 DUP6 KECCAK256 DUP1 SLOAD DUP1 ISZERO PUSH2 0x178D JUMPI PUSH1 0x0 NOT ADD SWAP1 PUSH2 0x1702 DUP3 DUP3 PUSH2 0x121A JUMP JUMPDEST PUSH2 0x177B JUMPI PUSH1 0x5 DUP2 DUP10 DUP1 SWAP4 SSTORE DUP3 DUP9 DUP3 ADD SSTORE DUP3 DUP10 DUP3 ADD SSTORE DUP3 DUP7 DUP3 ADD SSTORE DUP3 DUP8 DUP3 ADD PUSH2 0x172A DUP2 SLOAD PUSH2 0x1104 JUMP JUMPDEST DUP14 DUP2 PUSH2 0x173E JUMPI JUMPDEST POP POP POP POP ADD SSTORE SSTORE CODESIZE PUSH2 0x15FB JUMP JUMPDEST DUP4 SWAP1 PUSH1 0x1F DUP4 GT PUSH1 0x1 EQ PUSH2 0x1759 JUMPI POP POP POP SSTORE JUMPDEST DUP3 CODESIZE DUP1 DUP14 PUSH2 0x1731 JUMP JUMPDEST DUP4 DUP3 MSTORE DUP2 KECCAK256 SWAP3 SWAP1 SWAP2 PUSH2 0x1774 SWAP1 PUSH1 0x1F ADD DUP8 SHR DUP5 ADD DUP14 DUP6 ADD PUSH2 0x12A1 JUMP JUMPDEST SSTORE SSTORE PUSH2 0x1750 JUMP JUMPDEST PUSH4 0x4E487B71 PUSH1 0xE0 SHL DUP9 MSTORE DUP8 DUP6 MSTORE PUSH1 0x24 DUP9 REVERT JUMPDEST PUSH4 0x4E487B71 PUSH1 0xE0 SHL DUP8 MSTORE PUSH1 0x31 DUP5 MSTORE PUSH1 0x24 DUP8 REVERT JUMPDEST DUP12 DUP8 MSTORE DUP3 DUP9 MSTORE DUP10 DUP8 KECCAK256 SLOAD PUSH1 0x63 NOT DUP2 ADD SWAP1 DUP2 GT PUSH2 0x188A JUMPI DUP2 LT ISZERO PUSH2 0x1885 JUMPI DUP12 DUP8 MSTORE DUP3 DUP9 MSTORE DUP10 DUP8 KECCAK256 DUP6 DUP3 ADD SWAP1 DUP2 DUP4 GT PUSH2 0x1872 JUMPI SWAP1 PUSH2 0x17DB SWAP2 PUSH2 0x121A JUMP JUMPDEST POP DUP13 DUP9 MSTORE DUP4 DUP10 MSTORE PUSH2 0x17EE DUP3 DUP13 DUP11 KECCAK256 PUSH2 0x121A JUMP JUMPDEST SWAP2 SWAP1 SWAP2 PUSH2 0x1860 JUMPI SWAP2 DUP2 DUP4 DUP9 SWAP5 PUSH2 0x180B SWAP5 SUB PUSH2 0x1811 JUMPI JUMPDEST POP POP PUSH2 0x12FD JUMP JUMPDEST SWAP1 PUSH2 0x16DB JUMP JUMPDEST DUP1 SLOAD DUP3 SSTORE PUSH2 0x1832 DUP7 DUP7 DUP4 ADD SLOAD AND DUP7 DUP5 ADD SWAP1 PUSH1 0xFF DUP1 NOT DUP4 SLOAD AND SWAP2 ISZERO ISZERO AND OR SWAP1 SSTORE JUMP JUMPDEST DUP10 DUP2 ADD SLOAD DUP11 DUP4 ADD SSTORE DUP7 DUP2 ADD SLOAD DUP8 DUP4 ADD SSTORE PUSH2 0x1850 DUP9 DUP3 ADD DUP10 DUP5 ADD PUSH2 0x143E JUMP JUMPDEST PUSH1 0x5 DUP1 SWAP2 ADD SLOAD SWAP2 ADD SSTORE CODESIZE DUP1 PUSH2 0x1804 JUMP JUMPDEST PUSH4 0x4E487B71 PUSH1 0xE0 SHL DUP10 MSTORE DUP9 DUP7 MSTORE PUSH1 0x24 DUP10 REVERT JUMPDEST PUSH4 0x4E487B71 PUSH1 0xE0 SHL DUP10 MSTORE PUSH1 0x11 DUP7 MSTORE PUSH1 0x24 DUP10 REVERT JUMPDEST PUSH2 0x16E0 JUMP JUMPDEST PUSH4 0x4E487B71 PUSH1 0xE0 SHL DUP9 MSTORE PUSH1 0x11 DUP6 MSTORE PUSH1 0x24 DUP9 REVERT JUMPDEST PUSH4 0x4E487B71 PUSH1 0xE0 SHL DUP10 MSTORE PUSH1 0x41 DUP7 MSTORE PUSH1 0x24 DUP10 REVERT JUMPDEST SWAP8 SWAP5 POP POP POP SWAP6 POP SWAP2 DUP1 SWAP4 POP MLOAD SWAP1 DUP2 MSTORE DUP3 DUP3 DUP3 ADD MSTORE PUSH1 0x14 DUP4 DUP3 ADD MSTORE PUSH20 0x56616C69646174696F6E20C3A963686F75C3A965 PUSH1 0x60 SHL PUSH1 0x60 DUP3 ADD MSTORE PUSH32 0x724F763EE9B5399456749DEAA2B97E77734EB884AF0C88926C6E5D532850B31B PUSH1 0x80 CALLER SWAP3 LOG2 CALLER DUP5 MSTORE PUSH1 0x1 DUP2 MSTORE DUP2 DUP5 KECCAK256 SWAP3 PUSH1 0x1 DUP5 ADD SWAP1 DUP2 SLOAD SWAP1 PUSH1 0xA DUP3 GT PUSH2 0x197F JUMPI JUMPDEST POP POP SLOAD SWAP1 PUSH1 0x64 DUP3 LT PUSH2 0x193D JUMPI JUMPDEST POP POP POP POP POP JUMP JUMPDEST PUSH32 0x5C94D32ADEE4293C1C37C84FABA6CC59B08A03079B3736C3FB8F1638232A057 SWAP4 PUSH1 0xFF PUSH1 0xA0 SHL NOT DUP2 SLOAD AND SWAP1 SSTORE DUP3 MLOAD SWAP5 DUP6 MSTORE DUP5 ADD MSTORE CALLER SWAP3 LOG2 CODESIZE DUP1 DUP1 DUP1 DUP1 PUSH2 0x1936 JUMP JUMPDEST PUSH1 0x9 NOT DUP3 ADD SWAP2 DUP3 GT PUSH2 0x1995 JUMPI POP DUP2 SSTORE CODESIZE DUP1 PUSH2 0x1929 JUMP JUMPDEST PUSH4 0x4E487B71 PUSH1 0xE0 SHL DUP8 MSTORE PUSH1 0x11 SWAP1 MSTORE PUSH1 0x24 DUP7 REVERT JUMPDEST DUP7 MLOAD PUSH3 0x461BCD PUSH1 0xE5 SHL DUP2 MSTORE SWAP1 DUP2 ADD DUP6 SWAP1 MSTORE PUSH1 0x16 PUSH1 0x24 DUP3 ADD MSTORE PUSH22 0x54797065206465206361707465757220726571756973 PUSH1 0x50 SHL PUSH1 0x44 DUP3 ADD MSTORE PUSH1 0x64 SWAP1 REVERT JUMPDEST DUP7 MLOAD PUSH3 0x461BCD PUSH1 0xE5 SHL DUP2 MSTORE SWAP1 DUP2 ADD DUP6 SWAP1 MSTORE PUSH1 0x19 PUSH1 0x24 DUP3 ADD MSTORE PUSH32 0x446F6E6EC3A965732064C3A96AC3A0207472616974C3A9657300000000000000 PUSH1 0x44 DUP3 ADD MSTORE PUSH1 0x64 SWAP1 REVERT JUMPDEST PUSH1 0x40 MLOAD PUSH3 0x461BCD PUSH1 0xE5 SHL DUP2 MSTORE PUSH1 0x20 PUSH1 0x4 DUP3 ADD MSTORE PUSH1 0x16 PUSH1 0x24 DUP3 ADD MSTORE PUSH22 0x436F6E6669616E636520696E737566666973616E7465 PUSH1 0x50 SHL PUSH1 0x44 DUP3 ADD MSTORE PUSH1 0x64 SWAP1 REVERT JUMPDEST PUSH1 0xFF PUSH1 0x0 SLOAD PUSH1 0xA0 SHR AND PUSH2 0x1A74 JUMPI JUMP JUMPDEST PUSH1 0x40 MLOAD PUSH4 0xD93C0665 PUSH1 0xE0 SHL DUP2 MSTORE PUSH1 0x4 SWAP1 REVERT JUMPDEST SWAP1 PUSH1 0x40 MLOAD PUSH2 0x1A93 DUP2 PUSH2 0x103E JUMP JUMPDEST PUSH1 0xA0 PUSH1 0x5 DUP3 SWAP5 DUP1 SLOAD DUP5 MSTORE PUSH1 0xFF PUSH1 0x1 DUP3 ADD SLOAD AND ISZERO ISZERO PUSH1 0x20 DUP6 ADD MSTORE PUSH1 0x2 DUP2 ADD SLOAD PUSH1 0x40 DUP6 ADD MSTORE PUSH1 0x3 DUP2 ADD SLOAD PUSH1 0x60 DUP6 ADD MSTORE PUSH2 0x1ACC PUSH1 0x4 DUP3 ADD PUSH2 0x113E JUMP JUMPDEST PUSH1 0x80 DUP6 ADD MSTORE ADD SLOAD SWAP2 ADD MSTORE JUMP JUMPDEST SWAP2 PUSH1 0x46 DUP2 LT DUP1 ISZERO PUSH2 0x1B73 JUMPI JUMPDEST PUSH2 0x1B6B JUMPI PUSH1 0x0 SWAP3 DUP4 MSTORE PUSH1 0x2 PUSH1 0x20 MSTORE PUSH2 0x1AFE PUSH1 0x40 DUP5 KECCAK256 PUSH2 0x1A86 JUMP JUMPDEST SWAP2 PUSH1 0x60 DUP4 ADD MLOAD SWAP3 DUP4 PUSH2 0x1B15 JUMPI JUMPDEST POP POP POP POP POP PUSH1 0x1 SWAP1 JUMP JUMPDEST PUSH1 0x20 ADD MLOAD ISZERO ISZERO SWAP1 ISZERO ISZERO EQ ISZERO SWAP1 DUP2 PUSH2 0x1B60 JUMPI JUMPDEST POP PUSH2 0x1B5C JUMPI TIMESTAMP SUB TIMESTAMP DUP2 GT PUSH2 0x1B48 JUMPI PUSH1 0x1E GT PUSH2 0x1B45 JUMPI DUP1 DUP1 DUP1 DUP1 PUSH2 0x1B0B JUMP JUMPDEST SWAP1 JUMP JUMPDEST PUSH4 0x4E487B71 PUSH1 0xE0 SHL DUP3 MSTORE PUSH1 0x11 PUSH1 0x4 MSTORE PUSH1 0x24 DUP3 REVERT JUMPDEST POP SWAP1 JUMP JUMPDEST PUSH1 0x50 SWAP2 POP LT CODESIZE PUSH2 0x1B27 JUMP JUMPDEST POP POP POP PUSH1 0x0 SWAP1 JUMP JUMPDEST POP PUSH1 0x64 DUP2 GT PUSH2 0x1AE4 JUMP INVALID LOG2 PUSH5 0x6970667358 0x22 SLT KECCAK256 ADDMOD PUSH31 0x9EC9FE68979630C529942629BD8596042A07D3CCAE25297C74382A54F09C64 PUSH20 0x6F6C634300081400330000000000000000000000 "},"methodIdentifiers":{"MAX_HISTORY_SIZE()":"c1066251","MIN_CONFIDENCE()":"41f93757","UPDATE_COOLDOWN()":"9d5739e7","activeOracles(uint256)":"14dfe912","addOracleNode(address,string)":"6a63c650","getActiveOracles()":"6ccaa946","getLatestSensorData(uint256)":"158906aa","getOracleNode(address)":"b375afb5","getSensorHistory(uint256)":"88e83760","latestSensorData(uint256)":"633cb8d6","oracleNodes(address)":"2849463e","owner()":"8da5cb5b","parkingSystemContract()":"e8e09990","pause()":"8456cb59","paused()":"5c975abb","processedDataHashes(bytes32)":"46faa48a","removeOracleNode(address)":"dd4c1b8d","renounceOwnership()":"715018a6","sensorHistory(uint256,uint256)":"d72c348f","transferOwnership(address)":"f2fde38b","unpause()":"3f4ba83a","updateOracleReputation(address,uint256)":"f2244d24","updateParkingSystemContract(address)":"e4c90491","updateSensorData(uint256,bool,uint256,string,bytes32)":"25f2948d"}}}}}