{
  "_format": "hh-sol-artifact-1",
  "contractName": "ParkingOracle",
  "sourceName": "contracts/ParkingOracle.sol",
  "abi": [
    {
      "inputs": [
        {
          "internalType": "address",
          "name": "_parkingSystemContract",
          "type": "address"
        }
      ],
      "stateMutability": "nonpayable",
      "type": "constructor"
    },
    {
      "inputs": [],
      "name": "EnforcedPause",
      "type": "error"
    },
    {
      "inputs": [],
      "name": "ExpectedPause",
      "type": "error"
    },
    {
      "inputs": [
        {
          "internalType": "address",
          "name": "owner",
          "type": "address"
        }
      ],
      "name": "OwnableInvalidOwner",
      "type": "error"
    },
    {
      "inputs": [
        {
          "internalType": "address",
          "name": "account",
          "type": "address"
        }
      ],
      "name": "OwnableUnauthorizedAccount",
      "type": "error"
    },
    {
      "anonymous": false,
      "inputs": [
        {
          "indexed": true,
          "internalType": "address",
          "name": "oracle",
          "type": "address"
        },
        {
          "indexed": false,
          "internalType": "uint256",
          "name": "spotId",
          "type": "uint256"
        },
        {
          "indexed": false,
          "internalType": "string",
          "name": "reason",
          "type": "string"
        }
      ],
      "name": "DataValidationFailed",
      "type": "event"
    },
    {
      "anonymous": false,
      "inputs": [
        {
          "indexed": true,
          "internalType": "address",
          "name": "nodeAddress",
          "type": "address"
        },
        {
          "indexed": false,
          "internalType": "string",
          "name": "nodeId",
          "type": "string"
        }
      ],
      "name": "OracleNodeAdded",
      "type": "event"
    },
    {
      "anonymous": false,
      "inputs": [
        {
          "indexed": true,
          "internalType": "address",
          "name": "nodeAddress",
          "type": "address"
        }
      ],
      "name": "OracleNodeRemoved",
      "type": "event"
    },
    {
      "anonymous": false,
      "inputs": [
        {
          "indexed": true,
          "internalType": "address",
          "name": "nodeAddress",
          "type": "address"
        },
        {
          "indexed": false,
          "internalType": "bool",
          "name": "isActive",
          "type": "bool"
        },
        {
          "indexed": false,
          "internalType": "uint256",
          "name": "reputation",
          "type": "uint256"
        }
      ],
      "name": "OracleNodeUpdated",
      "type": "event"
    },
    {
      "anonymous": false,
      "inputs": [
        {
          "indexed": true,
          "internalType": "address",
          "name": "previousOwner",
          "type": "address"
        },
        {
          "indexed": true,
          "internalType": "address",
          "name": "newOwner",
          "type": "address"
        }
      ],
      "name": "OwnershipTransferred",
      "type": "event"
    },
    {
      "anonymous": false,
      "inputs": [
        {
          "indexed": false,
          "internalType": "address",
          "name": "newContract",
          "type": "address"
        }
      ],
      "name": "ParkingSystemUpdated",
      "type": "event"
    },
    {
      "anonymous": false,
      "inputs": [
        {
          "indexed": false,
          "internalType": "address",
          "name": "account",
          "type": "address"
        }
      ],
      "name": "Paused",
      "type": "event"
    },
    {
      "anonymous": false,
      "inputs": [
        {
          "indexed": true,
          "internalType": "uint256",
          "name": "spotId",
          "type": "uint256"
        },
        {
          "indexed": false,
          "internalType": "bool",
          "name": "isOccupied",
          "type": "bool"
        },
        {
          "indexed": false,
          "internalType": "uint256",
          "name": "confidence",
          "type": "uint256"
        },
        {
          "indexed": true,
          "internalType": "address",
          "name": "oracle",
          "type": "address"
        },
        {
          "indexed": false,
          "internalType": "string",
          "name": "sensorType",
          "type": "string"
        }
      ],
      "name": "SensorDataUpdated",
      "type": "event"
    },
    {
      "anonymous": false,
      "inputs": [
        {
          "indexed": false,
          "internalType": "address",
          "name": "account",
          "type": "address"
        }
      ],
      "name": "Unpaused",
      "type": "event"
    },
    {
      "inputs": [],
      "name": "MAX_HISTORY_SIZE",
      "outputs": [
        {
          "internalType": "uint256",
          "name": "",
          "type": "uint256"
        }
      ],
      "stateMutability": "view",
      "type": "function"
    },
    {
      "inputs": [],
      "name": "MIN_CONFIDENCE",
      "outputs": [
        {
          "internalType": "uint256",
          "name": "",
          "type": "uint256"
        }
      ],
      "stateMutability": "view",
      "type": "function"
    },
    {
      "inputs": [],
      "name": "UPDATE_COOLDOWN",
      "outputs": [
        {
          "internalType": "uint256",
          "name": "",
          "type": "uint256"
        }
      ],
      "stateMutability": "view",
      "type": "function"
    },
    {
      "inputs": [
        {
          "internalType": "uint256",
          "name": "",
          "type": "uint256"
        }
      ],
      "name": "activeOracles",
      "outputs": [
        {
          "internalType": "address",
          "name": "",
          "type": "address"
        }
      ],
      "stateMutability": "view",
      "type": "function"
    },
    {
      "inputs": [
        {
          "internalType": "address",
          "name": "_nodeAddress",
          "type": "address"
        },
        {
          "internalType": "string",
          "name": "_nodeId",
          "type": "string"
        }
      ],
      "name": "addOracleNode",
      "outputs": [],
      "stateMutability": "nonpayable",
      "type": "function"
    },
    {
      "inputs": [],
      "name": "getActiveOracles",
      "outputs": [
        {
          "internalType": "address[]",
          "name": "",
          "type": "address[]"
        }
      ],
      "stateMutability": "view",
      "type": "function"
    },
    {
      "inputs": [
        {
          "internalType": "uint256",
          "name": "_spotId",
          "type": "uint256"
        }
      ],
      "name": "getLatestSensorData",
      "outputs": [
        {
          "components": [
            {
              "internalType": "uint256",
              "name": "spotId",
              "type": "uint256"
            },
            {
              "internalType": "bool",
              "name": "isOccupied",
              "type": "bool"
            },
            {
              "internalType": "uint256",
              "name": "confidence",
              "type": "uint256"
            },
            {
              "internalType": "uint256",
              "name": "timestamp",
              "type": "uint256"
            },
            {
              "internalType": "string",
              "name": "sensorType",
              "type": "string"
            },
            {
              "internalType": "bytes32",
              "name": "dataHash",
              "type": "bytes32"
            }
          ],
          "internalType": "struct ParkingOracle.SensorData",
          "name": "",
          "type": "tuple"
        }
      ],
      "stateMutability": "view",
      "type": "function"
    },
    {
      "inputs": [
        {
          "internalType": "address",
          "name": "_oracle",
          "type": "address"
        }
      ],
      "name": "getOracleNode",
      "outputs": [
        {
          "components": [
            {
              "internalType": "address",
              "name": "nodeAddress",
              "type": "address"
            },
            {
              "internalType": "bool",
              "name": "isActive",
              "type": "bool"
            },
            {
              "internalType": "uint256",
              "name": "reputation",
              "type": "uint256"
            },
            {
              "internalType": "uint256",
              "name": "totalUpdates",
              "type": "uint256"
            },
            {
              "internalType": "uint256",
              "name": "lastUpdate",
              "type": "uint256"
            },
            {
              "internalType": "string",
              "name": "nodeId",
              "type": "string"
            }
          ],
          "internalType": "struct ParkingOracle.OracleNode",
          "name": "",
          "type": "tuple"
        }
      ],
      "stateMutability": "view",
      "type": "function"
    },
    {
      "inputs": [
        {
          "internalType": "uint256",
          "name": "_spotId",
          "type": "uint256"
        }
      ],
      "name": "getSensorHistory",
      "outputs": [
        {
          "components": [
            {
              "internalType": "uint256",
              "name": "spotId",
              "type": "uint256"
            },
            {
              "internalType": "bool",
              "name": "isOccupied",
              "type": "bool"
            },
            {
              "internalType": "uint256",
              "name": "confidence",
              "type": "uint256"
            },
            {
              "internalType": "uint256",
              "name": "timestamp",
              "type": "uint256"
            },
            {
              "internalType": "string",
              "name": "sensorType",
              "type": "string"
            },
            {
              "internalType": "bytes32",
              "name": "dataHash",
              "type": "bytes32"
            }
          ],
          "internalType": "struct ParkingOracle.SensorData[]",
          "name": "",
          "type": "tuple[]"
        }
      ],
      "stateMutability": "view",
      "type": "function"
    },
    {
      "inputs": [
        {
          "internalType": "uint256",
          "name": "",
          "type": "uint256"
        }
      ],
      "name": "latestSensorData",
      "outputs": [
        {
          "internalType": "uint256",
          "name": "spotId",
          "type": "uint256"
        },
        {
          "internalType": "bool",
          "name": "isOccupied",
          "type": "bool"
        },
        {
          "internalType": "uint256",
          "name": "confidence",
          "type": "uint256"
        },
        {
          "internalType": "uint256",
          "name": "timestamp",
          "type": "uint256"
        },
        {
          "internalType": "string",
          "name": "sensorType",
          "type": "string"
        },
        {
          "internalType": "bytes32",
          "name": "dataHash",
          "type": "bytes32"
        }
      ],
      "stateMutability": "view",
      "type": "function"
    },
    {
      "inputs": [
        {
          "internalType": "address",
          "name": "",
          "type": "address"
        }
      ],
      "name": "oracleNodes",
      "outputs": [
        {
          "internalType": "address",
          "name": "nodeAddress",
          "type": "address"
        },
        {
          "internalType": "bool",
          "name": "isActive",
          "type": "bool"
        },
        {
          "internalType": "uint256",
          "name": "reputation",
          "type": "uint256"
        },
        {
          "internalType": "uint256",
          "name": "totalUpdates",
          "type": "uint256"
        },
        {
          "internalType": "uint256",
          "name": "lastUpdate",
          "type": "uint256"
        },
        {
          "internalType": "string",
          "name": "nodeId",
          "type": "string"
        }
      ],
      "stateMutability": "view",
      "type": "function"
    },
    {
      "inputs": [],
      "name": "owner",
      "outputs": [
        {
          "internalType": "address",
          "name": "",
          "type": "address"
        }
      ],
      "stateMutability": "view",
      "type": "function"
    },
    {
      "inputs": [],
      "name": "parkingSystemContract",
      "outputs": [
        {
          "internalType": "address",
          "name": "",
          "type": "address"
        }
      ],
      "stateMutability": "view",
      "type": "function"
    },
    {
      "inputs": [],
      "name": "pause",
      "outputs": [],
      "stateMutability": "nonpayable",
      "type": "function"
    },
    {
      "inputs": [],
      "name": "paused",
      "outputs": [
        {
          "internalType": "bool",
          "name": "",
          "type": "bool"
        }
      ],
      "stateMutability": "view",
      "type": "function"
    },
    {
      "inputs": [
        {
          "internalType": "bytes32",
          "name": "",
          "type": "bytes32"
        }
      ],
      "name": "processedDataHashes",
      "outputs": [
        {
          "internalType": "bool",
          "name": "",
          "type": "bool"
        }
      ],
      "stateMutability": "view",
      "type": "function"
    },
    {
      "inputs": [
        {
          "internalType": "address",
          "name": "_nodeAddress",
          "type": "address"
        }
      ],
      "name": "removeOracleNode",
      "outputs": [],
      "stateMutability": "nonpayable",
      "type": "function"
    },
    {
      "inputs": [],
      "name": "renounceOwnership",
      "outputs": [],
      "stateMutability": "nonpayable",
      "type": "function"
    },
    {
      "inputs": [
        {
          "internalType": "uint256",
          "name": "",
          "type": "uint256"
        },
        {
          "internalType": "uint256",
          "name": "",
          "type": "uint256"
        }
      ],
      "name": "sensorHistory",
      "outputs": [
        {
          "internalType": "uint256",
          "name": "spotId",
          "type": "uint256"
        },
        {
          "internalType": "bool",
          "name": "isOccupied",
          "type": "bool"
        },
        {
          "internalType": "uint256",
          "name": "confidence",
          "type": "uint256"
        },
        {
          "internalType": "uint256",
          "name": "timestamp",
          "type": "uint256"
        },
        {
          "internalType": "string",
          "name": "sensorType",
          "type": "string"
        },
        {
          "internalType": "bytes32",
          "name": "dataHash",
          "type": "bytes32"
        }
      ],
      "stateMutability": "view",
      "type": "function"
    },
    {
      "inputs": [
        {
          "internalType": "address",
          "name": "newOwner",
          "type": "address"
        }
      ],
      "name": "transferOwnership",
      "outputs": [],
      "stateMutability": "nonpayable",
      "type": "function"
    },
    {
      "inputs": [],
      "name": "unpause",
      "outputs": [],
      "stateMutability": "nonpayable",
      "type": "function"
    },
    {
      "inputs": [
        {
          "internalType": "address",
          "name": "_oracle",
          "type": "address"
        },
        {
          "internalType": "uint256",
          "name": "_newReputation",
          "type": "uint256"
        }
      ],
      "name": "updateOracleReputation",
      "outputs": [],
      "stateMutability": "nonpayable",
      "type": "function"
    },
    {
      "inputs": [
        {
          "internalType": "address",
          "name": "_newContract",
          "type": "address"
        }
      ],
      "name": "updateParkingSystemContract",
      "outputs": [],
      "stateMutability": "nonpayable",
      "type": "function"
    },
    {
      "inputs": [
        {
          "internalType": "uint256",
          "name": "_spotId",
          "type": "uint256"
        },
        {
          "internalType": "bool",
          "name": "_isOccupied",
          "type": "bool"
        },
        {
          "internalType": "uint256",
          "name": "_confidence",
          "type": "uint256"
        },
        {
          "internalType": "string",
          "name": "_sensorType",
          "type": "string"
        },
        {
          "internalType": "bytes32",
          "name": "_dataHash",
          "type": "bytes32"
        }
      ],
      "name": "updateSensorData",
      "outputs": [],
      "stateMutability": "nonpayable",
      "type": "function"
    }
  ],
  "bytecode": "0x6080346100c657601f611c9538819003918201601f19168301916001600160401b038311848410176100cb578084926020946040528339810103126100c657516001600160a01b0390818116908190036100c65733156100ad5760005460018060a01b0319903382821617600055604051933391167f8be0079c531659141344cd1fd0a4f28419497f9722a3daafe3b4186f6b6457e0600080a36006541617600655611bb390816100e28239f35b604051631e4fbdf760e01b815260006004820152602490fd5b600080fd5b634e487b7160e01b600052604160045260246000fdfe6040608081526004908136101561001557600080fd5b600091823560e01c806314dfe91214610f27578063158906aa14610ec057806325f2948d14610d595780632849463e14610cd15780633f4ba83a14610c6457806341f9375714610c4857806346faa48a14610c1d5780635c975abb14610bf8578063633cb8d614610bb25780636a63c650146109465780636ccaa94614610881578063715018a6146108275780638456cb59146107c857806388e83760146106d65780638da5cb5b146106ae5780639d5739e714610692578063b375afb5146105a1578063c106625114610585578063d72c348f14610511578063dd4c1b8d1461036b578063e4c90491146102f5578063e8e09990146102c8578063f2244d24146101b25763f2fde38b1461012957600080fd5b346101ae5760203660031901126101ae576101426110ee565b9061014b611236565b6001600160a01b0391821692831561019857505082546001600160a01b0319811683178455167f8be0079c531659141344cd1fd0a4f28419497f9722a3daafe3b4186f6b6457e08380a380f35b51631e4fbdf760e01b8152908101849052602490fd5b8280fd5b5090346101ae57806003193601126101ae576101cc6110ee565b91602435906101d9611236565b6103e88211610285576001600160a01b039384168086526001602052838620549094161561024e5750907f05c94d32adee4293c1c37c84faba6cc59b08a03079b3736c3fb8f1638232a05791838552600160205260ff8286208260018201555460a01c1690825191151582526020820152a280f35b606490602084519162461bcd60e51b8352820152601160248201527013dc9858db19481a5b995e1a5cdd185b9d607a1b6044820152fd5b606490602084519162461bcd60e51b8352820152601960248201527f52c3a97075746174696f6e206d6178696d616c652031303030000000000000006044820152fd5b5050346102f157816003193601126102f15760065490516001600160a01b039091168152602090f35b5080fd5b5050346102f15760203660031901126102f15760207f83048e2b1c148798abbdcd7fc5c618ae620d983f2d04445b4a3d65332ae7e92d916103346110ee565b61033c611236565b6001600160a01b031690610351821515611262565b600680546001600160a01b0319168317905551908152a180f35b50346101ae5760203660031901126101ae576103856110ee565b61038d611236565b60018060a01b03809116918285526001938460205260ff8187205460a01c16156104db5783865260208590528520805460ff60a01b1916905584845b6103f7575b85847f69c51e6934c7e0a7856e09a188ca387c2117bbe5c65c85321ae46452e11497f88280a280f35b60058054808310156104d4579084918661041085610f67565b949054600395861b1c16146104315750505061042b906112fd565b846103c9565b9290949391959650600019928381019081116104c157906104658561045861048494610f67565b9054908a1b1c1691610f67565b90919082549060031b9160018060a01b03809116831b921b1916179055565b83549081156104ae5750019261049984610f67565b81939154921b1b1916905555803880806103ce565b634e487b7160e01b885260319052602487fd5b634e487b7160e01b895260118352602489fd5b50506103ce565b906020606492519162461bcd60e51b8352820152601060248201526f27b930b1b632903737b71030b1ba34b360811b6044820152fd5b50913461058257816003193601126105825760243590833581526003602052828120908154831015610582575061057e9161054b9161121a565b509182549260ff6001820154169460028201546005610570600385015493850161113e565b9301549351968796876111e4565b0390f35b80fd5b5050346102f157816003193601126102f1576020905160648152f35b50346101ae5760208060031936011261068e5761057e91836105c16110ee565b95606060a083516105d18161103e565b838152838782015283858201528383820152836080820152015260018060a01b0380971681526001845220908451946106098661103e565b825490878216875260ff8588019260a01c161515825260018401549181880192835261064e60028601549460608a0195865260038701549660808b019788520161113e565b9560a089019687528251998a99828b52511690890152511515908701525160608601525160808501525160a08401525160c08084015260e0830190610fb4565b8380fd5b5050346102f157816003193601126102f15760209051601e8152f35b5050346102f157816003193601126102f157905490516001600160a01b039091168152602090f35b508290346102f157602090816003193601126101ae5780358352600382528383209182549167ffffffffffffffff83116107b55750929084519061071f858260051b0183611070565b8082528482018094845285842084915b83831061079057505050508451938085019181865251809252858501958260051b8601019392955b8287106107645785850386f35b909192938280610780600193603f198a82030186528851610ff4565b9601920196019592919092610757565b6006886001926107a3859b98999b611a86565b8152019201920191909694939661072f565b634e487b7160e01b855260419052602484fd5b5050346102f157816003193601126102f15760207f62e78cea01bee320cd4e420270b5ea74000d11b0c9f74754ebdbfc544b05a25891610806611236565b61080e611a65565b835460ff60a01b1916600160a01b17845551338152a180f35b8334610582578060031936011261058257610840611236565b80546001600160a01b03198116825581906001600160a01b03167f8be0079c531659141344cd1fd0a4f28419497f9722a3daafe3b4186f6b6457e08280a380f35b8284346105825780600319360112610582579080519182906005549182855260208095018093600584527f036b6384b5eca791c62761152d0c79bb0604c104a5fb6f4eb0703f3154bb3db090845b81811061092957505050816108e5910382611070565b83519485948186019282875251809352850193925b82811061090957505050500390f35b83516001600160a01b0316855286955093810193928101926001016108fa565b82546001600160a01b0316845292880192600192830192016108cf565b509190346102f157806003193601126102f1576109616110ee565b67ffffffffffffffff9190602435838111610bae576109839036908701611092565b9161098c611236565b6001600160a01b03828116949092906109a6861515611262565b85875260019060209482865260ff858a205460a01c16610b75579089879289888c8951936109d38561103e565b838552828501908982528b808701936101f485528b606089019682885260808a0198838a5260a08b019d8e528352522095511685549160ff60a01b9051151560a01b16916affffffffffffffffffffff60a81b161717845551878401555160028301555160038201550191518051918211610b62578190610a5e82610a588654611104565b866112b8565b8790601f8311600114610b03578b92610af8575b5050600019600383901b1c191690831b1790555b60055490600160401b821015610ae557610adf9261046583610ad0937fca2fda65e4ce906eedaca6f32bbfb3bf0b3781de9d7b093e127293f1b9e19ad29998979501600555610f67565b51928284938452830190610fb4565b0390a280f35b634e487b7160e01b885260418952602488fd5b015190503880610a72565b848c52888c208694509190601f1984168d5b8b828210610b4c5750508411610b33575b505050811b019055610a86565b015160001960f88460031b161c19169055388080610b26565b8385015186558997909501949384019301610b15565b634e487b7160e01b8a5260418b5260248afd5b845162461bcd60e51b8152808b01879052601360248201527227b930b1b632903261d4b561d01030b1ba34b360691b6044820152606490fd5b8480fd5b509134610582576020366003190112610582578161057e91843581526002602052209182549260ff6001820154169460028201546005610570600385015493850161113e565b5050346102f157816003193601126102f15760ff6020925460a01c1690519015158152f35b50346101ae5760203660031901126101ae57816020938260ff93358252855220541690519015158152f35b5050346102f157816003193601126102f1576020905160468152f35b50346101ae57826003193601126101ae57610c7d611236565b82549060ff8260a01c1615610cc3575060ff60a01b19168255513381527f5db9ee0a495bf2e6ff9c91a7834c1ba4fdd244a5e8aa4e537bd38aeae4b073aa90602090a180f35b8251638dfc202b60e01b8152fd5b509190346102f15760203660031901126102f1576001600160a01b039161057e9190819084610cfe6110ee565b1681526001602052208054946001820154610d246002840154926003850154940161113e565b9360ff81519889988116895260a01c16151560208801528601526060850152608084015260c060a084015260c0830190610fb4565b508290346102f15760a03660031901126102f157602435908035821515830361068e5760643567ffffffffffffffff8111610bae57610d9b9036908401611092565b91338552600160205260ff8686205460a01c1615610e8357610dbb611a65565b8115610e4957818552600260205260038686200154601e8101809111610e36574210610df85750610df59394506084359260443591611517565b80f35b855162461bcd60e51b81526020918101919091526015602482015274436f6f6c646f776e206e6f6e20c3a9636f756cc3a960581b6044820152606490fd5b634e487b7160e01b865260118252602486fd5b606490602087519162461bcd60e51b83528201526014602482015273494420646520706c61636520696e76616c69646560601b6044820152fd5b855162461bcd60e51b815260209181019190915260146024820152734f7261636c65206e6f6e206175746f726973c3a960601b6044820152606490fd5b50346101ae5760203660031901126101ae578183610f149261057e9560a08451610ee98161103e565b8281528260208201528286820152826060820152606060808201520152358152600260205220611a86565b9051918291602083526020830190610ff4565b50346101ae5760203660031901126101ae5735916005548310156105825750610f51602092610f67565b905491519160018060a01b039160031b1c168152f35b600554811015610f9e5760056000527f036b6384b5eca791c62761152d0c79bb0604c104a5fb6f4eb0703f3154bb3db00190600090565b634e487b7160e01b600052603260045260246000fd5b919082519283825260005b848110610fe0575050826000602080949584010152601f8019910116010190565b602081830181015184830182015201610fbf565b9081518152602082015115156020820152604082015160408201526060820151606082015260a080611035608085015160c0608086015260c0850190610fb4565b93015191015290565b60c0810190811067ffffffffffffffff82111761105a57604052565b634e487b7160e01b600052604160045260246000fd5b90601f8019910116810190811067ffffffffffffffff82111761105a57604052565b81601f820112156110e95780359067ffffffffffffffff821161105a57604051926110c7601f8401601f191660200185611070565b828452602083830101116110e957816000926020809301838601378301015290565b600080fd5b600435906001600160a01b03821682036110e957565b90600182811c92168015611134575b602083101461111e57565b634e487b7160e01b600052602260045260246000fd5b91607f1691611113565b906040519182600082549261115284611104565b9081845260019485811690816000146111c1575060011461117e575b505061117c92500383611070565b565b9093915060005260209081600020936000915b8183106111a957505061117c9350820101388061116e565b85548884018501529485019487945091830191611191565b91505061117c94506020925060ff191682840152151560051b820101388061116e565b96959491926112159360a095928952151560208901526040880152606087015260c0608087015260c0860190610fb4565b930152565b8054821015610f9e576000526006602060002091020190600090565b6000546001600160a01b0316330361124a57565b60405163118cdaa760e01b8152336004820152602490fd5b1561126957565b60405162461bcd60e51b815260206004820152601060248201526f4164726573736520696e76616c69646560801b6044820152606490fd5b8181106112ac575050565b600081556001016112a1565b9190601f81116112c757505050565b61117c926000526020600020906020601f840160051c830193106112f3575b601f0160051c01906112a1565b90915081906112e6565b600019811461130c5760010190565b634e487b7160e01b600052601160045260246000fd5b90805182556020908181015115159161134b6001938486019060ff801983541691151516179055565b6040820151600285015560608201516003850155600484019060808301519384519167ffffffffffffffff831161105a5761138a83610a588654611104565b80601f84116001146113cf57509180809260a09695946005986000946113c4575b50501b916000199060031b1c19161790555b0151910155565b0151925038806113ab565b91939495601f1984168660005283600020936000905b828210611427575050916005979593918560a09896941061140e575b505050811b0190556113bd565b015160001960f88460031b161c19169055388080611401565b8088869782949787015181550196019401906113e5565b90808214611513576114508154611104565b9067ffffffffffffffff821161105a57819061147082610a588654611104565b600090601f83116001146114a75760009261149c575b50508160011b916000199060031b1c1916179055565b015490503880611486565b81526020808220858352818320935090601f1985169083905b8282106114fa5750509084600195949392106114e1575b505050811b019055565b015460001960f88460031b161c191690553880806114d7565b84958192958501548155600180910196019401906114c0565b5050565b9293909160468110611a275760009180835260049260209184835260ff6040958187852054166119e4578951156119a85761155386898b611ad8565b156118b0578651976115648961103e565b898952151597888682015286888201524260608201528a60808201528360a082015289855260029384875261159b828a8820611322565b8552818652878520926001938460ff198254161790558a8652600391828852898720805490600160401b82101561189d57906115db91878201815561121a565b61177b57906115e991611322565b8a8652818752606489872054116116d8575b503385528286528785209084820161161381546112fd565b9055429101553384528185528187852001908154926103e8841061168f575b505050509161166e85837fac4634ca5286739c54037a07039ee401bf71958ef4935f8a30320654d77b9f699897958a6060989652845220611a86565b5082519485528401528201528061168a33956060830190610fb4565b0390a3565b83018093116116c557505561166e85837fac4634ca5286739c54037a07039ee401bf71958ef4935f8a30320654d77b9f69611632565b634e487b7160e01b855260119052602484fd5b85845b6117a0575b50508985528086528785208054801561178d576000190190611702828261121a565b61177b57600581898093558288820155828982015582868201558287820161172a8154611104565b8d8161173e575b50505050015555386115fb565b8390601f831160011461175957505050555b8238808d611731565b838252812092909161177490601f01871c84018d85016112a1565b5555611750565b634e487b7160e01b8852878552602488fd5b634e487b7160e01b875260318452602487fd5b8b875282885289872054606319810190811161188a57811015611885578b87528288528987208582019081831161187257906117db9161121a565b508c88528389526117ee828c8a2061121a565b91909161186057918183889461180b9403611811575b50506112fd565b906116db565b805482556118328686830154168684019060ff801983541691151516179055565b898101548a830155868101548783015561185088820189840161143e565b6005809101549101553880611804565b634e487b7160e01b8952888652602489fd5b634e487b7160e01b895260118652602489fd5b6116e0565b634e487b7160e01b885260118552602488fd5b634e487b7160e01b895260418652602489fd5b97945050509550918093505190815282828201526014838201527356616c69646174696f6e20c3a963686f75c3a96560601b60608201527f724f763ee9b5399456749deaa2b97e77734eb884af0c88926c6e5d532850b31b60803392a233845260018152818420926001840190815490600a821161197f575b505054906064821061193d575b5050505050565b7f05c94d32adee4293c1c37c84faba6cc59b08a03079b3736c3fb8f1638232a0579360ff60a01b19815416905582519485528401523392a23880808080611936565b6009198201918211611995575081553880611929565b634e487b7160e01b875260119052602486fd5b865162461bcd60e51b815290810185905260166024820152755479706520646520636170746575722072657175697360501b6044820152606490fd5b865162461bcd60e51b8152908101859052601960248201527f446f6e6ec3a965732064c3a96ac3a0207472616974c3a96573000000000000006044820152606490fd5b60405162461bcd60e51b8152602060048201526016602482015275436f6e6669616e636520696e737566666973616e746560501b6044820152606490fd5b60ff60005460a01c16611a7457565b60405163d93c066560e01b8152600490fd5b90604051611a938161103e565b60a0600582948054845260ff600182015416151560208501526002810154604085015260038101546060850152611acc6004820161113e565b60808501520154910152565b91604681108015611b73575b611b6b5760009283526002602052611afe60408420611a86565b9160608301519283611b15575b5050505050600190565b60200151151590151514159081611b60575b50611b5c574203428111611b4857601e11611b455780808080611b0b565b90565b634e487b7160e01b82526011600452602482fd5b5090565b605091501038611b27565b505050600090565b5060648111611ae456fea2646970667358221220087e9ec9fe68979630c529942629bd8596042a07d3ccae25297c74382a54f09c64736f6c63430008140033",
  "linkReferences": {},
  "deployedLinkReferences": {}
}